{
  "_format": "hh-sol-artifact-1",
  "contractName": "PlayerNFT",
  "sourceName": "contracts/PlayerNFT.sol",
  "abi": [
    {
      "inputs": [],
      "stateMutability": "nonpayable",
      "type": "constructor"
    },
    {
      "inputs": [
        {
          "internalType": "address",
          "name": "sender",
          "type": "address"
        },
        {
          "internalType": "uint256",
          "name": "tokenId",
          "type": "uint256"
        },
        {
          "internalType": "address",
          "name": "owner",
          "type": "address"
        }
      ],
      "name": "ERC721IncorrectOwner",
      "type": "error"
    },
    {
      "inputs": [
        {
          "internalType": "address",
          "name": "operator",
          "type": "address"
        },
        {
          "internalType": "uint256",
          "name": "tokenId",
          "type": "uint256"
        }
      ],
      "name": "ERC721InsufficientApproval",
      "type": "error"
    },
    {
      "inputs": [
        {
          "internalType": "address",
          "name": "approver",
          "type": "address"
        }
      ],
      "name": "ERC721InvalidApprover",
      "type": "error"
    },
    {
      "inputs": [
        {
          "internalType": "address",
          "name": "operator",
          "type": "address"
        }
      ],
      "name": "ERC721InvalidOperator",
      "type": "error"
    },
    {
      "inputs": [
        {
          "internalType": "address",
          "name": "owner",
          "type": "address"
        }
      ],
      "name": "ERC721InvalidOwner",
      "type": "error"
    },
    {
      "inputs": [
        {
          "internalType": "address",
          "name": "receiver",
          "type": "address"
        }
      ],
      "name": "ERC721InvalidReceiver",
      "type": "error"
    },
    {
      "inputs": [
        {
          "internalType": "address",
          "name": "sender",
          "type": "address"
        }
      ],
      "name": "ERC721InvalidSender",
      "type": "error"
    },
    {
      "inputs": [
        {
          "internalType": "uint256",
          "name": "tokenId",
          "type": "uint256"
        }
      ],
      "name": "ERC721NonexistentToken",
      "type": "error"
    },
    {
      "inputs": [
        {
          "internalType": "address",
          "name": "owner",
          "type": "address"
        }
      ],
      "name": "OwnableInvalidOwner",
      "type": "error"
    },
    {
      "inputs": [
        {
          "internalType": "address",
          "name": "account",
          "type": "address"
        }
      ],
      "name": "OwnableUnauthorizedAccount",
      "type": "error"
    },
    {
      "anonymous": false,
      "inputs": [
        {
          "indexed": true,
          "internalType": "address",
          "name": "owner",
          "type": "address"
        },
        {
          "indexed": true,
          "internalType": "address",
          "name": "approved",
          "type": "address"
        },
        {
          "indexed": true,
          "internalType": "uint256",
          "name": "tokenId",
          "type": "uint256"
        }
      ],
      "name": "Approval",
      "type": "event"
    },
    {
      "anonymous": false,
      "inputs": [
        {
          "indexed": true,
          "internalType": "address",
          "name": "owner",
          "type": "address"
        },
        {
          "indexed": true,
          "internalType": "address",
          "name": "operator",
          "type": "address"
        },
        {
          "indexed": false,
          "internalType": "bool",
          "name": "approved",
          "type": "bool"
        }
      ],
      "name": "ApprovalForAll",
      "type": "event"
    },
    {
      "anonymous": false,
      "inputs": [
        {
          "indexed": false,
          "internalType": "uint256",
          "name": "_fromTokenId",
          "type": "uint256"
        },
        {
          "indexed": false,
          "internalType": "uint256",
          "name": "_toTokenId",
          "type": "uint256"
        }
      ],
      "name": "BatchMetadataUpdate",
      "type": "event"
    },
    {
      "anonymous": false,
      "inputs": [
        {
          "indexed": false,
          "internalType": "uint256",
          "name": "_tokenId",
          "type": "uint256"
        }
      ],
      "name": "MetadataUpdate",
      "type": "event"
    },
    {
      "anonymous": false,
      "inputs": [
        {
          "indexed": true,
          "internalType": "address",
          "name": "previousOwner",
          "type": "address"
        },
        {
          "indexed": true,
          "internalType": "address",
          "name": "newOwner",
          "type": "address"
        }
      ],
      "name": "OwnershipTransferred",
      "type": "event"
    },
    {
      "anonymous": false,
      "inputs": [
        {
          "indexed": true,
          "internalType": "uint256",
          "name": "tokenId",
          "type": "uint256"
        },
        {
          "indexed": false,
          "internalType": "string",
          "name": "name",
          "type": "string"
        }
      ],
      "name": "PlayerMetadataUpdated",
      "type": "event"
    },
    {
      "anonymous": false,
      "inputs": [
        {
          "indexed": true,
          "internalType": "address",
          "name": "player",
          "type": "address"
        },
        {
          "indexed": true,
          "internalType": "uint256",
          "name": "tokenId",
          "type": "uint256"
        },
        {
          "indexed": false,
          "internalType": "string",
          "name": "name",
          "type": "string"
        }
      ],
      "name": "PlayerMinted",
      "type": "event"
    },
    {
      "anonymous": false,
      "inputs": [
        {
          "indexed": true,
          "internalType": "address",
          "name": "from",
          "type": "address"
        },
        {
          "indexed": true,
          "internalType": "address",
          "name": "to",
          "type": "address"
        },
        {
          "indexed": true,
          "internalType": "uint256",
          "name": "tokenId",
          "type": "uint256"
        }
      ],
      "name": "PlayerTransferred",
      "type": "event"
    },
    {
      "anonymous": false,
      "inputs": [
        {
          "indexed": true,
          "internalType": "address",
          "name": "from",
          "type": "address"
        },
        {
          "indexed": true,
          "internalType": "address",
          "name": "to",
          "type": "address"
        },
        {
          "indexed": true,
          "internalType": "uint256",
          "name": "tokenId",
          "type": "uint256"
        }
      ],
      "name": "Transfer",
      "type": "event"
    },
    {
      "inputs": [
        {
          "internalType": "address",
          "name": "to",
          "type": "address"
        },
        {
          "internalType": "uint256",
          "name": "tokenId",
          "type": "uint256"
        }
      ],
      "name": "approve",
      "outputs": [],
      "stateMutability": "nonpayable",
      "type": "function"
    },
    {
      "inputs": [
        {
          "internalType": "address",
          "name": "owner",
          "type": "address"
        }
      ],
      "name": "balanceOf",
      "outputs": [
        {
          "internalType": "uint256",
          "name": "",
          "type": "uint256"
        }
      ],
      "stateMutability": "view",
      "type": "function"
    },
    {
      "inputs": [
        {
          "internalType": "uint256",
          "name": "tokenId",
          "type": "uint256"
        }
      ],
      "name": "deactivatePlayer",
      "outputs": [],
      "stateMutability": "nonpayable",
      "type": "function"
    },
    {
      "inputs": [
        {
          "internalType": "uint256",
          "name": "tokenId",
          "type": "uint256"
        }
      ],
      "name": "getApproved",
      "outputs": [
        {
          "internalType": "address",
          "name": "",
          "type": "address"
        }
      ],
      "stateMutability": "view",
      "type": "function"
    },
    {
      "inputs": [
        {
          "internalType": "uint256",
          "name": "tokenId",
          "type": "uint256"
        }
      ],
      "name": "getPlayerInfo",
      "outputs": [
        {
          "internalType": "string",
          "name": "name",
          "type": "string"
        },
        {
          "internalType": "string",
          "name": "position",
          "type": "string"
        },
        {
          "internalType": "uint256",
          "name": "jerseyNumber",
          "type": "uint256"
        },
        {
          "internalType": "string",
          "name": "nationality",
          "type": "string"
        },
        {
          "internalType": "uint256",
          "name": "mintedAt",
          "type": "uint256"
        },
        {
          "internalType": "bool",
          "name": "isActive",
          "type": "bool"
        },
        {
          "internalType": "address",
          "name": "owner",
          "type": "address"
        }
      ],
      "stateMutability": "view",
      "type": "function"
    },
    {
      "inputs": [
        {
          "internalType": "address",
          "name": "player",
          "type": "address"
        }
      ],
      "name": "getPlayerTokenId",
      "outputs": [
        {
          "internalType": "uint256",
          "name": "",
          "type": "uint256"
        }
      ],
      "stateMutability": "view",
      "type": "function"
    },
    {
      "inputs": [
        {
          "internalType": "address",
          "name": "owner",
          "type": "address"
        },
        {
          "internalType": "address",
          "name": "operator",
          "type": "address"
        }
      ],
      "name": "isApprovedForAll",
      "outputs": [
        {
          "internalType": "bool",
          "name": "",
          "type": "bool"
        }
      ],
      "stateMutability": "view",
      "type": "function"
    },
    {
      "inputs": [
        {
          "internalType": "address",
          "name": "player",
          "type": "address"
        },
        {
          "internalType": "string",
          "name": "name",
          "type": "string"
        },
        {
          "internalType": "string",
          "name": "position",
          "type": "string"
        },
        {
          "internalType": "uint256",
          "name": "jerseyNumber",
          "type": "uint256"
        },
        {
          "internalType": "string",
          "name": "nationality",
          "type": "string"
        },
        {
          "internalType": "string",
          "name": "tokenURI",
          "type": "string"
        }
      ],
      "name": "mintPlayer",
      "outputs": [
        {
          "internalType": "uint256",
          "name": "",
          "type": "uint256"
        }
      ],
      "stateMutability": "nonpayable",
      "type": "function"
    },
    {
      "inputs": [],
      "name": "name",
      "outputs": [
        {
          "internalType": "string",
          "name": "",
          "type": "string"
        }
      ],
      "stateMutability": "view",
      "type": "function"
    },
    {
      "inputs": [],
      "name": "owner",
      "outputs": [
        {
          "internalType": "address",
          "name": "",
          "type": "address"
        }
      ],
      "stateMutability": "view",
      "type": "function"
    },
    {
      "inputs": [
        {
          "internalType": "uint256",
          "name": "tokenId",
          "type": "uint256"
        }
      ],
      "name": "ownerOf",
      "outputs": [
        {
          "internalType": "address",
          "name": "",
          "type": "address"
        }
      ],
      "stateMutability": "view",
      "type": "function"
    },
    {
      "inputs": [
        {
          "internalType": "uint256",
          "name": "",
          "type": "uint256"
        }
      ],
      "name": "playerMetadata",
      "outputs": [
        {
          "internalType": "string",
          "name": "name",
          "type": "string"
        },
        {
          "internalType": "string",
          "name": "position",
          "type": "string"
        },
        {
          "internalType": "uint256",
          "name": "jerseyNumber",
          "type": "uint256"
        },
        {
          "internalType": "string",
          "name": "nationality",
          "type": "string"
        },
        {
          "internalType": "uint256",
          "name": "mintedAt",
          "type": "uint256"
        },
        {
          "internalType": "bool",
          "name": "isActive",
          "type": "bool"
        }
      ],
      "stateMutability": "view",
      "type": "function"
    },
    {
      "inputs": [
        {
          "internalType": "address",
          "name": "",
          "type": "address"
        }
      ],
      "name": "playerToToken",
      "outputs": [
        {
          "internalType": "uint256",
          "name": "",
          "type": "uint256"
        }
      ],
      "stateMutability": "view",
      "type": "function"
    },
    {
      "inputs": [
        {
          "internalType": "uint256",
          "name": "tokenId",
          "type": "uint256"
        }
      ],
      "name": "reactivatePlayer",
      "outputs": [],
      "stateMutability": "nonpayable",
      "type": "function"
    },
    {
      "inputs": [],
      "name": "renounceOwnership",
      "outputs": [],
      "stateMutability": "nonpayable",
      "type": "function"
    },
    {
      "inputs": [
        {
          "internalType": "address",
          "name": "from",
          "type": "address"
        },
        {
          "internalType": "address",
          "name": "to",
          "type": "address"
        },
        {
          "internalType": "uint256",
          "name": "tokenId",
          "type": "uint256"
        }
      ],
      "name": "safeTransferFrom",
      "outputs": [],
      "stateMutability": "nonpayable",
      "type": "function"
    },
    {
      "inputs": [
        {
          "internalType": "address",
          "name": "from",
          "type": "address"
        },
        {
          "internalType": "address",
          "name": "to",
          "type": "address"
        },
        {
          "internalType": "uint256",
          "name": "tokenId",
          "type": "uint256"
        },
        {
          "internalType": "bytes",
          "name": "data",
          "type": "bytes"
        }
      ],
      "name": "safeTransferFrom",
      "outputs": [],
      "stateMutability": "nonpayable",
      "type": "function"
    },
    {
      "inputs": [
        {
          "internalType": "address",
          "name": "operator",
          "type": "address"
        },
        {
          "internalType": "bool",
          "name": "approved",
          "type": "bool"
        }
      ],
      "name": "setApprovalForAll",
      "outputs": [],
      "stateMutability": "nonpayable",
      "type": "function"
    },
    {
      "inputs": [
        {
          "internalType": "bytes4",
          "name": "interfaceId",
          "type": "bytes4"
        }
      ],
      "name": "supportsInterface",
      "outputs": [
        {
          "internalType": "bool",
          "name": "",
          "type": "bool"
        }
      ],
      "stateMutability": "view",
      "type": "function"
    },
    {
      "inputs": [],
      "name": "symbol",
      "outputs": [
        {
          "internalType": "string",
          "name": "",
          "type": "string"
        }
      ],
      "stateMutability": "view",
      "type": "function"
    },
    {
      "inputs": [
        {
          "internalType": "uint256",
          "name": "",
          "type": "uint256"
        }
      ],
      "name": "tokenToPlayer",
      "outputs": [
        {
          "internalType": "address",
          "name": "",
          "type": "address"
        }
      ],
      "stateMutability": "view",
      "type": "function"
    },
    {
      "inputs": [
        {
          "internalType": "uint256",
          "name": "tokenId",
          "type": "uint256"
        }
      ],
      "name": "tokenURI",
      "outputs": [
        {
          "internalType": "string",
          "name": "",
          "type": "string"
        }
      ],
      "stateMutability": "view",
      "type": "function"
    },
    {
      "inputs": [],
      "name": "totalPlayers",
      "outputs": [
        {
          "internalType": "uint256",
          "name": "",
          "type": "uint256"
        }
      ],
      "stateMutability": "view",
      "type": "function"
    },
    {
      "inputs": [
        {
          "internalType": "address",
          "name": "from",
          "type": "address"
        },
        {
          "internalType": "address",
          "name": "to",
          "type": "address"
        },
        {
          "internalType": "uint256",
          "name": "tokenId",
          "type": "uint256"
        }
      ],
      "name": "transferFrom",
      "outputs": [],
      "stateMutability": "nonpayable",
      "type": "function"
    },
    {
      "inputs": [
        {
          "internalType": "address",
          "name": "newOwner",
          "type": "address"
        }
      ],
      "name": "transferOwnership",
      "outputs": [],
      "stateMutability": "nonpayable",
      "type": "function"
    },
    {
      "inputs": [
        {
          "internalType": "uint256",
          "name": "tokenId",
          "type": "uint256"
        },
        {
          "internalType": "string",
          "name": "name",
          "type": "string"
        },
        {
          "internalType": "string",
          "name": "position",
          "type": "string"
        },
        {
          "internalType": "uint256",
          "name": "jerseyNumber",
          "type": "uint256"
        },
        {
          "internalType": "string",
          "name": "nationality",
          "type": "string"
        }
      ],
      "name": "updatePlayerMetadata",
      "outputs": [],
      "stateMutability": "nonpayable",
      "type": "function"
    },
    {
      "inputs": [
        {
          "internalType": "uint256",
          "name": "tokenId",
          "type": "uint256"
        },
        {
          "internalType": "string",
          "name": "newTokenURI",
          "type": "string"
        }
      ],
      "name": "updateTokenURI",
      "outputs": [],
      "stateMutability": "nonpayable",
      "type": "function"
    }
  ],
  "bytecode": "0x60806040523480156200001157600080fd5b50336040518060400160405280601181526020017027b832b72632b0b3bab290283630bcb2b960791b8152506040518060400160405280600881526020016727a6282620aca2a960c11b81525081600090816200006f9190620001b9565b5060016200007e8282620001b9565b5050506001600160a01b038116620000b057604051631e4fbdf760e01b81526000600482015260240160405180910390fd5b620000bb81620000c2565b5062000285565b600780546001600160a01b038381166001600160a01b0319831681179093556040519116919082907f8be0079c531659141344cd1fd0a4f28419497f9722a3daafe3b4186f6b6457e090600090a35050565b634e487b7160e01b600052604160045260246000fd5b600181811c908216806200013f57607f821691505b6020821081036200016057634e487b7160e01b600052602260045260246000fd5b50919050565b601f821115620001b457600081815260208120601f850160051c810160208610156200018f5750805b601f850160051c820191505b81811015620001b0578281556001016200019b565b5050505b505050565b81516001600160401b03811115620001d557620001d562000114565b620001ed81620001e684546200012a565b8462000166565b602080601f8311600181146200022557600084156200020c5750858301515b600019600386901b1c1916600185901b178555620001b0565b600085815260208120601f198616915b82811015620002565788860151825594840194600190910190840162000235565b5085821015620002755787850151600019600388901b60f8161c191681555b5050505050600190811b01905550565b61216780620002956000396000f3fe608060405234801561001057600080fd5b50600436106101a95760003560e01c806370a08231116100f9578063c87b56dd11610097578063e985e9c511610071578063e985e9c5146103d5578063ea17532e146103e8578063f2fde38b1461040e578063f60cdcf61461042157600080fd5b8063c87b56dd14610386578063d2acc24314610399578063d4b5eb13146103c257600080fd5b806395d89b41116100d357806395d89b4114610345578063a22cb4651461034d578063b88d4fde14610360578063b9dbea161461037357600080fd5b806370a0823114610319578063715018a61461032c5780638da5cb5b1461033457600080fd5b806323b872dd11610166578063445404ce11610140578063445404ce146102ae57806350842e67146102c15780636352211e146102e65780636f08d5bc146102f957600080fd5b806323b872dd146102515780633a8651b31461026457806342842e0e1461029b57600080fd5b806301ffc9a7146101ae57806306fdde03146101d6578063081812fc146101eb578063095ea7b31461021657806318e97fd11461022b5780631f8a5a9f1461023e575b600080fd5b6101c16101bc3660046119e1565b610429565b60405190151581526020015b60405180910390f35b6101de61043a565b6040516101cd9190611a4e565b6101fe6101f9366004611a61565b6104cc565b6040516001600160a01b0390911681526020016101cd565b610229610224366004611a96565b6104f5565b005b610229610239366004611b6c565b610504565b61022961024c366004611a61565b610550565b61022961025f366004611bb3565b6105a7565b61028d610272366004611bef565b6001600160a01b031660009081526009602052604090205490565b6040519081526020016101cd565b6102296102a9366004611bb3565b610632565b6102296102bc366004611c0a565b610652565b6102d46102cf366004611a61565b61079a565b6040516101cd96959493929190611ca6565b6101fe6102f4366004611a61565b61096a565b61028d610307366004611bef565b60096020526000908152604090205481565b61028d610327366004611bef565b610975565b6102296109bd565b6007546001600160a01b03166101fe565b6101de6109d1565b61022961035b366004611d00565b6109e0565b61022961036e366004611d3c565b6109eb565b610229610381366004611a61565b610a03565b6101de610394366004611a61565b610a57565b6101fe6103a7366004611a61565b600a602052600090815260409020546001600160a01b031681565b61028d6103d0366004611db8565b610a62565b6101c16103e3366004611e7e565b610c70565b6103fb6103f6366004611a61565b610c9e565b6040516101cd9796959493929190611eb1565b61022961041c366004611bef565b610f14565b60085461028d565b600061043482610f52565b92915050565b60606000805461044990611f19565b80601f016020809104026020016040519081016040528092919081815260200182805461047590611f19565b80156104c25780601f10610497576101008083540402835291602001916104c2565b820191906000526020600020905b8154815290600101906020018083116104a557829003601f168201915b5050505050905090565b60006104d782610f77565b506000828152600460205260409020546001600160a01b0316610434565b610500828233610faf565b5050565b61050c610fbc565b600061051783610fe9565b6001600160a01b0316036105465760405162461bcd60e51b815260040161053d90611f53565b60405180910390fd5b6105008282611004565b610558610fbc565b600061056382610fe9565b6001600160a01b0316036105895760405162461bcd60e51b815260040161053d90611f53565b6000908152600b60205260409020600501805460ff19166001179055565b6001600160a01b0382166105d157604051633250574960e11b81526000600482015260240161053d565b60006105de838333611054565b9050836001600160a01b0316816001600160a01b03161461062c576040516364283d7b60e01b81526001600160a01b038086166004830152602482018490528216604482015260640161053d565b50505050565b61064d838383604051806020016040528060008152506109eb565b505050565b3361065c86610fe9565b6001600160a01b0316146106a25760405162461bcd60e51b815260206004820152600d60248201526c2737ba103a34329037bbb732b960991b604482015260640161053d565b6000858152600b602052604090206005015460ff166107035760405162461bcd60e51b815260206004820152601860248201527f506c61796572204e4654206973206e6f74206163746976650000000000000000604482015260640161053d565b6000858152600b6020526040902061071b8582611fc7565b506000858152600b602052604090206001016107378482611fc7565b506000858152600b602052604090206002810183905560030161075a8282611fc7565b50847fcb356ef5c4d71b4386f00d632109cf52893417214283b1ff5366e1b8a0a40fc28560405161078b9190611a4e565b60405180910390a25050505050565b600b602052600090815260409020805481906107b590611f19565b80601f01602080910402602001604051908101604052809291908181526020018280546107e190611f19565b801561082e5780601f106108035761010080835404028352916020019161082e565b820191906000526020600020905b81548152906001019060200180831161081157829003601f168201915b50505050509080600101805461084390611f19565b80601f016020809104026020016040519081016040528092919081815260200182805461086f90611f19565b80156108bc5780601f10610891576101008083540402835291602001916108bc565b820191906000526020600020905b81548152906001019060200180831161089f57829003601f168201915b5050505050908060020154908060030180546108d790611f19565b80601f016020809104026020016040519081016040528092919081815260200182805461090390611f19565b80156109505780601f1061092557610100808354040283529160200191610950565b820191906000526020600020905b81548152906001019060200180831161093357829003601f168201915b50505050600483015460059093015491929160ff16905086565b600061043482610f77565b60006001600160a01b0382166109a1576040516322718ad960e21b81526000600482015260240161053d565b506001600160a01b031660009081526003602052604090205490565b6109c5610fbc565b6109cf6000611116565b565b60606001805461044990611f19565b610500338383611168565b6109f68484846105a7565b61062c3385858585611207565b610a0b610fbc565b6000610a1682610fe9565b6001600160a01b031603610a3c5760405162461bcd60e51b815260040161053d90611f53565b6000908152600b60205260409020600501805460ff19169055565b606061043482611332565b6000610a6c610fbc565b6001600160a01b03871660009081526009602052604090205415610ad25760405162461bcd60e51b815260206004820152601960248201527f506c6179657220616c72656164792068617320616e204e465400000000000000604482015260640161053d565b6000865111610b1a5760405162461bcd60e51b81526020600482015260146024820152734e616d652063616e6e6f7420626520656d70747960601b604482015260640161053d565b600160086000828254610b2d9190612087565b9091555050600854610b3f8882611443565b610b498184611004565b6001600160a01b0388166000818152600960209081526040808320859055848352600a825280832080546001600160a01b031916909417909355825160c0810184528a81528082018a905280840189905260608101889052426080820152600160a0820152848352600b90915291902081518190610bc79082611fc7565b5060208201516001820190610bdc9082611fc7565b506040820151600282015560608201516003820190610bfb9082611fc7565b506080820151600482015560a0909101516005909101805460ff191691151591909117905560405181906001600160a01b038a16907fd638e6f92ec16c0790259233d5dacd11383b19666d58ad5497a4ef1e2b2c1ccc90610c5d908b90611a4e565b60405180910390a3979650505050505050565b6001600160a01b03918216600090815260056020908152604080832093909416825291909152205460ff1690565b60608060008181808080610cb189610fe9565b6001600160a01b031603610cd75760405162461bcd60e51b815260040161053d90611f53565b6000888152600b6020526040808220815160c08101909252805482908290610cfe90611f19565b80601f0160208091040260200160405190810160405280929190818152602001828054610d2a90611f19565b8015610d775780601f10610d4c57610100808354040283529160200191610d77565b820191906000526020600020905b815481529060010190602001808311610d5a57829003601f168201915b50505050508152602001600182018054610d9090611f19565b80601f0160208091040260200160405190810160405280929190818152602001828054610dbc90611f19565b8015610e095780601f10610dde57610100808354040283529160200191610e09565b820191906000526020600020905b815481529060010190602001808311610dec57829003601f168201915b5050505050815260200160028201548152602001600382018054610e2c90611f19565b80601f0160208091040260200160405190810160405280929190818152602001828054610e5890611f19565b8015610ea55780601f10610e7a57610100808354040283529160200191610ea5565b820191906000526020600020905b815481529060010190602001808311610e8857829003601f168201915b50505050508152602001600482015481526020016005820160009054906101000a900460ff1615151515815250509050806000015181602001518260400151836060015184608001518560a00151610efc8f610fe9565b959f949e50929c50909a509850965090945092505050565b610f1c610fbc565b6001600160a01b038116610f4657604051631e4fbdf760e01b81526000600482015260240161053d565b610f4f81611116565b50565b60006001600160e01b03198216632483248360e11b148061043457506104348261145d565b600080610f8383610fe9565b90506001600160a01b03811661043457604051637e27328960e01b81526004810184905260240161053d565b61064d83838360016114ad565b6007546001600160a01b031633146109cf5760405163118cdaa760e01b815233600482015260240161053d565b6000908152600260205260409020546001600160a01b031690565b600082815260066020526040902061101c8282611fc7565b506040518281527ff8e1a15aba9398e019f0b49df1a4fde98ee17ae345cb5f6b5e2c27f5033e8ce79060200160405180910390a15050565b60008061106084610fe9565b9050600061106f8686866115b3565b90506001600160a01b0382161561109a576001600160a01b0382166000908152600960205260408120555b6001600160a01b0386161561110d576001600160a01b0380871660008181526009602090815260408083208a9055898352600a90915280822080546001600160a01b031916841790555188938616917f7ca8422b53f91a3548388e5ce0b4a7b301f6a5304a588d2e1299351b399aeff191a45b95945050505050565b600780546001600160a01b038381166001600160a01b0319831681179093556040519116919082907f8be0079c531659141344cd1fd0a4f28419497f9722a3daafe3b4186f6b6457e090600090a35050565b6001600160a01b03821661119a57604051630b61174360e31b81526001600160a01b038316600482015260240161053d565b6001600160a01b03838116600081815260056020908152604080832094871680845294825291829020805460ff191686151590811790915591519182527f17307eab39ab6107e8899845ad3d59bd9653f200f220920489ca2b5937696c31910160405180910390a3505050565b6001600160a01b0383163b1561132b57604051630a85bd0160e11b81526001600160a01b0384169063150b7a02906112499088908890879087906004016120a8565b6020604051808303816000875af1925050508015611284575060408051601f3d908101601f19168201909252611281918101906120e5565b60015b6112ed573d8080156112b2576040519150601f19603f3d011682016040523d82523d6000602084013e6112b7565b606091505b5080516000036112e557604051633250574960e11b81526001600160a01b038516600482015260240161053d565b805160208201fd5b6001600160e01b03198116630a85bd0160e11b1461132957604051633250574960e11b81526001600160a01b038516600482015260240161053d565b505b5050505050565b606061133d82610f77565b506000828152600660205260408120805461135790611f19565b80601f016020809104026020016040519081016040528092919081815260200182805461138390611f19565b80156113d05780601f106113a5576101008083540402835291602001916113d0565b820191906000526020600020905b8154815290600101906020018083116113b357829003601f168201915b5050505050905060006113ee60408051602081019091526000815290565b90508051600003611400575092915050565b81511561143257808260405160200161141a929190612102565b60405160208183030381529060405292505050919050565b61143b846116a7565b949350505050565b61050082826040518060200160405280600081525061171c565b60006001600160e01b031982166380ac58cd60e01b148061148e57506001600160e01b03198216635b5e139f60e01b145b8061043457506301ffc9a760e01b6001600160e01b0319831614610434565b80806114c157506001600160a01b03821615155b156115835760006114d184610f77565b90506001600160a01b038316158015906114fd5750826001600160a01b0316816001600160a01b031614155b8015611510575061150e8184610c70565b155b156115395760405163a9fbf51f60e01b81526001600160a01b038416600482015260240161053d565b81156115815783856001600160a01b0316826001600160a01b03167f8c5be1e5ebec7d5bd14f71427d1e84f3dd0314c0f7b2291e5b200ac8c7c3b92560405160405180910390a45b505b5050600090815260046020526040902080546001600160a01b0319166001600160a01b0392909216919091179055565b6000806115bf84610fe9565b90506001600160a01b038316156115db576115db818486611734565b6001600160a01b03811615611619576115f86000856000806114ad565b6001600160a01b038116600090815260036020526040902080546000190190555b6001600160a01b03851615611648576001600160a01b0385166000908152600360205260409020805460010190555b60008481526002602052604080822080546001600160a01b0319166001600160a01b0389811691821790925591518793918516917fddf252ad1be2c89b69c2b068fc378daa952ba7f163c4a11628f55a4df523b3ef91a4949350505050565b60606116b282610f77565b5060006116ca60408051602081019091526000815290565b905060008151116116ea5760405180602001604052806000815250611715565b806116f484611798565b604051602001611705929190612102565b6040516020818303038152906040525b9392505050565b611726838361182b565b61064d336000858585611207565b61173f838383611890565b61064d576001600160a01b03831661176d57604051637e27328960e01b81526004810182905260240161053d565b60405163177e802f60e01b81526001600160a01b03831660048201526024810182905260440161053d565b606060006117a5836118f3565b600101905060008167ffffffffffffffff8111156117c5576117c5611ac0565b6040519080825280601f01601f1916602001820160405280156117ef576020820181803683370190505b5090508181016020015b600019016f181899199a1a9b1b9c1cb0b131b232b360811b600a86061a8153600a85049450846117f957509392505050565b6001600160a01b03821661185557604051633250574960e11b81526000600482015260240161053d565b600061186383836000611054565b90506001600160a01b0381161561064d576040516339e3563760e11b81526000600482015260240161053d565b60006001600160a01b0383161580159061143b5750826001600160a01b0316846001600160a01b031614806118ca57506118ca8484610c70565b8061143b5750506000908152600460205260409020546001600160a01b03908116911614919050565b60008072184f03e93ff9f4daa797ed6e38ed64bf6a1f0160401b83106119325772184f03e93ff9f4daa797ed6e38ed64bf6a1f0160401b830492506040015b6d04ee2d6d415b85acef8100000000831061195e576d04ee2d6d415b85acef8100000000830492506020015b662386f26fc10000831061197c57662386f26fc10000830492506010015b6305f5e1008310611994576305f5e100830492506008015b61271083106119a857612710830492506004015b606483106119ba576064830492506002015b600a83106104345760010192915050565b6001600160e01b031981168114610f4f57600080fd5b6000602082840312156119f357600080fd5b8135611715816119cb565b60005b83811015611a19578181015183820152602001611a01565b50506000910152565b60008151808452611a3a8160208601602086016119fe565b601f01601f19169290920160200192915050565b6020815260006117156020830184611a22565b600060208284031215611a7357600080fd5b5035919050565b80356001600160a01b0381168114611a9157600080fd5b919050565b60008060408385031215611aa957600080fd5b611ab283611a7a565b946020939093013593505050565b634e487b7160e01b600052604160045260246000fd5b600067ffffffffffffffff80841115611af157611af1611ac0565b604051601f8501601f19908116603f01168101908282118183101715611b1957611b19611ac0565b81604052809350858152868686011115611b3257600080fd5b858560208301376000602087830101525050509392505050565b600082601f830112611b5d57600080fd5b61171583833560208501611ad6565b60008060408385031215611b7f57600080fd5b82359150602083013567ffffffffffffffff811115611b9d57600080fd5b611ba985828601611b4c565b9150509250929050565b600080600060608486031215611bc857600080fd5b611bd184611a7a565b9250611bdf60208501611a7a565b9150604084013590509250925092565b600060208284031215611c0157600080fd5b61171582611a7a565b600080600080600060a08688031215611c2257600080fd5b85359450602086013567ffffffffffffffff80821115611c4157600080fd5b611c4d89838a01611b4c565b95506040880135915080821115611c6357600080fd5b611c6f89838a01611b4c565b9450606088013593506080880135915080821115611c8c57600080fd5b50611c9988828901611b4c565b9150509295509295909350565b60c081526000611cb960c0830189611a22565b8281036020840152611ccb8189611a22565b90508660408401528281036060840152611ce58187611a22565b6080840195909552505090151560a090910152949350505050565b60008060408385031215611d1357600080fd5b611d1c83611a7a565b915060208301358015158114611d3157600080fd5b809150509250929050565b60008060008060808587031215611d5257600080fd5b611d5b85611a7a565b9350611d6960208601611a7a565b925060408501359150606085013567ffffffffffffffff811115611d8c57600080fd5b8501601f81018713611d9d57600080fd5b611dac87823560208401611ad6565b91505092959194509250565b60008060008060008060c08789031215611dd157600080fd5b611dda87611a7a565b9550602087013567ffffffffffffffff80821115611df757600080fd5b611e038a838b01611b4c565b96506040890135915080821115611e1957600080fd5b611e258a838b01611b4c565b9550606089013594506080890135915080821115611e4257600080fd5b611e4e8a838b01611b4c565b935060a0890135915080821115611e6457600080fd5b50611e7189828a01611b4c565b9150509295509295509295565b60008060408385031215611e9157600080fd5b611e9a83611a7a565b9150611ea860208401611a7a565b90509250929050565b60e081526000611ec460e083018a611a22565b8281036020840152611ed6818a611a22565b90508760408401528281036060840152611ef08188611a22565b6080840196909652505091151560a08301526001600160a01b031660c090910152949350505050565b600181811c90821680611f2d57607f821691505b602082108103611f4d57634e487b7160e01b600052602260045260246000fd5b50919050565b602080825260149082015273151bdad95b88191bd95cc81b9bdd08195e1a5cdd60621b604082015260600190565b601f82111561064d57600081815260208120601f850160051c81016020861015611fa85750805b601f850160051c820191505b8181101561132957828155600101611fb4565b815167ffffffffffffffff811115611fe157611fe1611ac0565b611ff581611fef8454611f19565b84611f81565b602080601f83116001811461202a57600084156120125750858301515b600019600386901b1c1916600185901b178555611329565b600085815260208120601f198616915b828110156120595788860151825594840194600190910190840161203a565b50858210156120775787850151600019600388901b60f8161c191681555b5050505050600190811b01905550565b8082018082111561043457634e487b7160e01b600052601160045260246000fd5b6001600160a01b03858116825284166020820152604081018390526080606082018190526000906120db90830184611a22565b9695505050505050565b6000602082840312156120f757600080fd5b8151611715816119cb565b600083516121148184602088016119fe565b8351908301906121288183602088016119fe565b0194935050505056fea2646970667358221220dcff607d8f14b6b1b9c015cb6ca935a11710f3ea709e4f25ca6996e9535ed0e864736f6c63430008140033",
  "linkReferences": {},
  "deployedLinkReferences": {}
}