{
  "_format": "hh-sol-artifact-1",
  "contractName": "ClubToken",
  "sourceName": "contracts/ClubToken.sol",
  "abi": [
    {
      "inputs": [
        {
          "internalType": "string",
          "name": "_clubName",
          "type": "string"
        },
        {
          "internalType": "string",
          "name": "_tokenSymbol",
          "type": "string"
        },
        {
          "internalType": "uint256",
          "name": "_initialSupply",
          "type": "uint256"
        }
      ],
      "stateMutability": "nonpayable",
      "type": "constructor"
    },
    {
      "inputs": [
        {
          "internalType": "address",
          "name": "spender",
          "type": "address"
        },
        {
          "internalType": "uint256",
          "name": "allowance",
          "type": "uint256"
        },
        {
          "internalType": "uint256",
          "name": "needed",
          "type": "uint256"
        }
      ],
      "name": "ERC20InsufficientAllowance",
      "type": "error"
    },
    {
      "inputs": [
        {
          "internalType": "address",
          "name": "sender",
          "type": "address"
        },
        {
          "internalType": "uint256",
          "name": "balance",
          "type": "uint256"
        },
        {
          "internalType": "uint256",
          "name": "needed",
          "type": "uint256"
        }
      ],
      "name": "ERC20InsufficientBalance",
      "type": "error"
    },
    {
      "inputs": [
        {
          "internalType": "address",
          "name": "approver",
          "type": "address"
        }
      ],
      "name": "ERC20InvalidApprover",
      "type": "error"
    },
    {
      "inputs": [
        {
          "internalType": "address",
          "name": "receiver",
          "type": "address"
        }
      ],
      "name": "ERC20InvalidReceiver",
      "type": "error"
    },
    {
      "inputs": [
        {
          "internalType": "address",
          "name": "sender",
          "type": "address"
        }
      ],
      "name": "ERC20InvalidSender",
      "type": "error"
    },
    {
      "inputs": [
        {
          "internalType": "address",
          "name": "spender",
          "type": "address"
        }
      ],
      "name": "ERC20InvalidSpender",
      "type": "error"
    },
    {
      "inputs": [
        {
          "internalType": "address",
          "name": "owner",
          "type": "address"
        }
      ],
      "name": "OwnableInvalidOwner",
      "type": "error"
    },
    {
      "inputs": [
        {
          "internalType": "address",
          "name": "account",
          "type": "address"
        }
      ],
      "name": "OwnableUnauthorizedAccount",
      "type": "error"
    },
    {
      "inputs": [],
      "name": "ReentrancyGuardReentrantCall",
      "type": "error"
    },
    {
      "anonymous": false,
      "inputs": [
        {
          "indexed": true,
          "internalType": "address",
          "name": "owner",
          "type": "address"
        },
        {
          "indexed": true,
          "internalType": "address",
          "name": "spender",
          "type": "address"
        },
        {
          "indexed": false,
          "internalType": "uint256",
          "name": "value",
          "type": "uint256"
        }
      ],
      "name": "Approval",
      "type": "event"
    },
    {
      "anonymous": false,
      "inputs": [
        {
          "indexed": false,
          "internalType": "string",
          "name": "newName",
          "type": "string"
        }
      ],
      "name": "ClubInfoUpdated",
      "type": "event"
    },
    {
      "anonymous": false,
      "inputs": [
        {
          "indexed": true,
          "internalType": "address",
          "name": "newContract",
          "type": "address"
        }
      ],
      "name": "MigrationEnabled",
      "type": "event"
    },
    {
      "anonymous": false,
      "inputs": [
        {
          "indexed": true,
          "internalType": "address",
          "name": "previousOwner",
          "type": "address"
        },
        {
          "indexed": true,
          "internalType": "address",
          "name": "newOwner",
          "type": "address"
        }
      ],
      "name": "OwnershipTransferred",
      "type": "event"
    },
    {
      "anonymous": false,
      "inputs": [
        {
          "indexed": true,
          "internalType": "address",
          "name": "from",
          "type": "address"
        },
        {
          "indexed": false,
          "internalType": "uint256",
          "name": "amount",
          "type": "uint256"
        }
      ],
      "name": "TokensBurned",
      "type": "event"
    },
    {
      "anonymous": false,
      "inputs": [
        {
          "indexed": true,
          "internalType": "address",
          "name": "holder",
          "type": "address"
        },
        {
          "indexed": false,
          "internalType": "uint256",
          "name": "amount",
          "type": "uint256"
        },
        {
          "indexed": true,
          "internalType": "address",
          "name": "newContract",
          "type": "address"
        }
      ],
      "name": "TokensMigrated",
      "type": "event"
    },
    {
      "anonymous": false,
      "inputs": [
        {
          "indexed": true,
          "internalType": "address",
          "name": "to",
          "type": "address"
        },
        {
          "indexed": false,
          "internalType": "uint256",
          "name": "amount",
          "type": "uint256"
        }
      ],
      "name": "TokensMinted",
      "type": "event"
    },
    {
      "anonymous": false,
      "inputs": [
        {
          "indexed": true,
          "internalType": "address",
          "name": "from",
          "type": "address"
        },
        {
          "indexed": true,
          "internalType": "address",
          "name": "to",
          "type": "address"
        },
        {
          "indexed": false,
          "internalType": "uint256",
          "name": "value",
          "type": "uint256"
        }
      ],
      "name": "Transfer",
      "type": "event"
    },
    {
      "inputs": [],
      "name": "INITIAL_SUPPLY",
      "outputs": [
        {
          "internalType": "uint256",
          "name": "",
          "type": "uint256"
        }
      ],
      "stateMutability": "view",
      "type": "function"
    },
    {
      "inputs": [
        {
          "internalType": "address",
          "name": "owner",
          "type": "address"
        },
        {
          "internalType": "address",
          "name": "spender",
          "type": "address"
        }
      ],
      "name": "allowance",
      "outputs": [
        {
          "internalType": "uint256",
          "name": "",
          "type": "uint256"
        }
      ],
      "stateMutability": "view",
      "type": "function"
    },
    {
      "inputs": [
        {
          "internalType": "address",
          "name": "spender",
          "type": "address"
        },
        {
          "internalType": "uint256",
          "name": "value",
          "type": "uint256"
        }
      ],
      "name": "approve",
      "outputs": [
        {
          "internalType": "bool",
          "name": "",
          "type": "bool"
        }
      ],
      "stateMutability": "nonpayable",
      "type": "function"
    },
    {
      "inputs": [
        {
          "internalType": "address",
          "name": "account",
          "type": "address"
        }
      ],
      "name": "balanceOf",
      "outputs": [
        {
          "internalType": "uint256",
          "name": "",
          "type": "uint256"
        }
      ],
      "stateMutability": "view",
      "type": "function"
    },
    {
      "inputs": [
        {
          "internalType": "uint256",
          "name": "amount",
          "type": "uint256"
        }
      ],
      "name": "burn",
      "outputs": [],
      "stateMutability": "nonpayable",
      "type": "function"
    },
    {
      "inputs": [],
      "name": "clubName",
      "outputs": [
        {
          "internalType": "string",
          "name": "",
          "type": "string"
        }
      ],
      "stateMutability": "view",
      "type": "function"
    },
    {
      "inputs": [],
      "name": "decimals",
      "outputs": [
        {
          "internalType": "uint8",
          "name": "",
          "type": "uint8"
        }
      ],
      "stateMutability": "view",
      "type": "function"
    },
    {
      "inputs": [
        {
          "internalType": "address",
          "name": "_newTokenContract",
          "type": "address"
        }
      ],
      "name": "enableMigration",
      "outputs": [],
      "stateMutability": "nonpayable",
      "type": "function"
    },
    {
      "inputs": [],
      "name": "finalizeMigration",
      "outputs": [],
      "stateMutability": "nonpayable",
      "type": "function"
    },
    {
      "inputs": [],
      "name": "getContractInfo",
      "outputs": [
        {
          "internalType": "string",
          "name": "_clubName",
          "type": "string"
        },
        {
          "internalType": "string",
          "name": "_tokenSymbol",
          "type": "string"
        },
        {
          "internalType": "uint256",
          "name": "_totalSupply",
          "type": "uint256"
        },
        {
          "internalType": "uint256",
          "name": "_maxSupply",
          "type": "uint256"
        },
        {
          "internalType": "bool",
          "name": "_isMigrationEnabled",
          "type": "bool"
        },
        {
          "internalType": "bool",
          "name": "_isMigrated",
          "type": "bool"
        },
        {
          "internalType": "address",
          "name": "_newContract",
          "type": "address"
        }
      ],
      "stateMutability": "view",
      "type": "function"
    },
    {
      "inputs": [
        {
          "internalType": "address",
          "name": "",
          "type": "address"
        }
      ],
      "name": "hasMigrated",
      "outputs": [
        {
          "internalType": "bool",
          "name": "",
          "type": "bool"
        }
      ],
      "stateMutability": "view",
      "type": "function"
    },
    {
      "inputs": [],
      "name": "isMigrated",
      "outputs": [
        {
          "internalType": "bool",
          "name": "",
          "type": "bool"
        }
      ],
      "stateMutability": "view",
      "type": "function"
    },
    {
      "inputs": [],
      "name": "isMigrationEnabled",
      "outputs": [
        {
          "internalType": "bool",
          "name": "",
          "type": "bool"
        }
      ],
      "stateMutability": "view",
      "type": "function"
    },
    {
      "inputs": [],
      "name": "maxSupply",
      "outputs": [
        {
          "internalType": "uint256",
          "name": "",
          "type": "uint256"
        }
      ],
      "stateMutability": "view",
      "type": "function"
    },
    {
      "inputs": [],
      "name": "migrate",
      "outputs": [],
      "stateMutability": "nonpayable",
      "type": "function"
    },
    {
      "inputs": [
        {
          "internalType": "address",
          "name": "to",
          "type": "address"
        },
        {
          "internalType": "uint256",
          "name": "amount",
          "type": "uint256"
        }
      ],
      "name": "mint",
      "outputs": [],
      "stateMutability": "nonpayable",
      "type": "function"
    },
    {
      "inputs": [],
      "name": "name",
      "outputs": [
        {
          "internalType": "string",
          "name": "",
          "type": "string"
        }
      ],
      "stateMutability": "view",
      "type": "function"
    },
    {
      "inputs": [],
      "name": "newTokenContract",
      "outputs": [
        {
          "internalType": "address",
          "name": "",
          "type": "address"
        }
      ],
      "stateMutability": "view",
      "type": "function"
    },
    {
      "inputs": [],
      "name": "owner",
      "outputs": [
        {
          "internalType": "address",
          "name": "",
          "type": "address"
        }
      ],
      "stateMutability": "view",
      "type": "function"
    },
    {
      "inputs": [
        {
          "internalType": "address",
          "name": "holder",
          "type": "address"
        },
        {
          "internalType": "uint256",
          "name": "amount",
          "type": "uint256"
        }
      ],
      "name": "receiveMigration",
      "outputs": [],
      "stateMutability": "nonpayable",
      "type": "function"
    },
    {
      "inputs": [],
      "name": "renounceOwnership",
      "outputs": [],
      "stateMutability": "nonpayable",
      "type": "function"
    },
    {
      "inputs": [],
      "name": "symbol",
      "outputs": [
        {
          "internalType": "string",
          "name": "",
          "type": "string"
        }
      ],
      "stateMutability": "view",
      "type": "function"
    },
    {
      "inputs": [],
      "name": "totalSupply",
      "outputs": [
        {
          "internalType": "uint256",
          "name": "",
          "type": "uint256"
        }
      ],
      "stateMutability": "view",
      "type": "function"
    },
    {
      "inputs": [
        {
          "internalType": "address",
          "name": "to",
          "type": "address"
        },
        {
          "internalType": "uint256",
          "name": "amount",
          "type": "uint256"
        }
      ],
      "name": "transfer",
      "outputs": [
        {
          "internalType": "bool",
          "name": "",
          "type": "bool"
        }
      ],
      "stateMutability": "nonpayable",
      "type": "function"
    },
    {
      "inputs": [
        {
          "internalType": "address",
          "name": "from",
          "type": "address"
        },
        {
          "internalType": "address",
          "name": "to",
          "type": "address"
        },
        {
          "internalType": "uint256",
          "name": "amount",
          "type": "uint256"
        }
      ],
      "name": "transferFrom",
      "outputs": [
        {
          "internalType": "bool",
          "name": "",
          "type": "bool"
        }
      ],
      "stateMutability": "nonpayable",
      "type": "function"
    },
    {
      "inputs": [
        {
          "internalType": "address",
          "name": "newOwner",
          "type": "address"
        }
      ],
      "name": "transferOwnership",
      "outputs": [],
      "stateMutability": "nonpayable",
      "type": "function"
    },
    {
      "inputs": [
        {
          "internalType": "string",
          "name": "newName",
          "type": "string"
        }
      ],
      "name": "updateClubName",
      "outputs": [],
      "stateMutability": "nonpayable",
      "type": "function"
    }
  ],
  "bytecode": "0x60a06040523480156200001157600080fd5b5060405162001dd138038062001dd1833981016040819052620000349162000416565b338383600362000045838262000518565b50600462000054828262000518565b5050506001600160a01b0381166200008757604051631e4fbdf760e01b8152600060048201526024015b60405180910390fd5b62000092816200018e565b5060016006558251620000e85760405162461bcd60e51b815260206004820152601960248201527f436c7562206e616d652063616e6e6f7420626520656d7074790000000000000060448201526064016200007e565b6003825110158015620000fd57506005825111155b6200014b5760405162461bcd60e51b815260206004820152601d60248201527f53796d626f6c206d75737420626520332d35206368617261637465727300000060448201526064016200007e565b600762000159848262000518565b50600862000168838262000518565b506200017681600a620005fa565b608052620001853382620001e0565b50505062000630565b600580546001600160a01b038381166001600160a01b0319831681179093556040519116919082907f8be0079c531659141344cd1fd0a4f28419497f9722a3daafe3b4186f6b6457e090600090a35050565b6001600160a01b0382166200020c5760405163ec442f0560e01b8152600060048201526024016200007e565b6200021a600083836200021e565b5050565b6001600160a01b0383166200024d5780600260008282546200024191906200061a565b90915550620002c19050565b6001600160a01b03831660009081526020819052604090205481811015620002a25760405163391434e360e21b81526001600160a01b038516600482015260248101829052604481018390526064016200007e565b6001600160a01b03841660009081526020819052604090209082900390555b6001600160a01b038216620002df57600280548290039055620002fe565b6001600160a01b03821660009081526020819052604090208054820190555b816001600160a01b0316836001600160a01b03167fddf252ad1be2c89b69c2b068fc378daa952ba7f163c4a11628f55a4df523b3ef836040516200034491815260200190565b60405180910390a3505050565b634e487b7160e01b600052604160045260246000fd5b600082601f8301126200037957600080fd5b81516001600160401b038082111562000396576200039662000351565b604051601f8301601f19908116603f01168101908282118183101715620003c157620003c162000351565b81604052838152602092508683858801011115620003de57600080fd5b600091505b83821015620004025785820183015181830184015290820190620003e3565b600093810190920192909252949350505050565b6000806000606084860312156200042c57600080fd5b83516001600160401b03808211156200044457600080fd5b620004528783880162000367565b945060208601519150808211156200046957600080fd5b50620004788682870162000367565b925050604084015190509250925092565b600181811c908216806200049e57607f821691505b602082108103620004bf57634e487b7160e01b600052602260045260246000fd5b50919050565b601f8211156200051357600081815260208120601f850160051c81016020861015620004ee5750805b601f850160051c820191505b818110156200050f57828155600101620004fa565b5050505b505050565b81516001600160401b0381111562000534576200053462000351565b6200054c8162000545845462000489565b84620004c5565b602080601f8311600181146200058457600084156200056b5750858301515b600019600386901b1c1916600185901b1785556200050f565b600085815260208120601f198616915b82811015620005b55788860151825594840194600190910190840162000594565b5085821015620005d45787850151600019600388901b60f8161c191681555b5050505050600190811b01905550565b634e487b7160e01b600052601160045260246000fd5b8082028115828204841417620006145762000614620005e4565b92915050565b80820180821115620006145762000614620005e4565b6080516117776200065a6000396000818161037d015281816105bf015261072501526117776000f3fe608060405234801561001057600080fd5b50600436106101a95760003560e01c80637cc1f867116100f9578063b06faf6211610097578063d5abeb0111610071578063d5abeb0114610378578063d7625c881461039f578063dd62ed3e146103c2578063f2fde38b146103fb57600080fd5b8063b06faf6214610354578063b78b608714610368578063ce27489d1461037057600080fd5b80639457c1dc116100d35780639457c1dc1461031357806395d89b4114610326578063a9059cbb1461032e578063afd73e141461034157600080fd5b80637cc1f867146102df5780638da5cb5b146102fa5780638fd3ab801461030b57600080fd5b80632ff2e9dc1161016657806340c10f191161014057806340c10f191461028857806342966c681461029b57806370a08231146102ae578063715018a6146102d757600080fd5b80632ff2e9dc14610254578063313ce5671461026557806333f3533b1461027457600080fd5b806306fdde03146101ae57806308c7398b146101cc578063095ea7b3146101f757806318160ddd1461021a57806319bddb341461022c57806323b872dd14610241575b600080fd5b6101b661040e565b6040516101c39190611320565b60405180910390f35b6009546101df906001600160a01b031681565b6040516001600160a01b0390911681526020016101c3565b61020a61020536600461134f565b6104a0565b60405190151581526020016101c3565b6002545b6040519081526020016101c3565b61023f61023a36600461134f565b6104ba565b005b61020a61024f366004611379565b61054b565b61021e69d3c21bcecceda100000081565b604051601281526020016101c3565b60095461020a90600160a01b900460ff1681565b61023f61029636600461134f565b61058b565b61023f6102a93660046113b5565b610686565b61021e6102bc3660046113ce565b6001600160a01b031660009081526020819052604090205490565b61023f6106f2565b6102e7610706565b6040516101c397969594939291906113e9565b6005546001600160a01b03166101df565b61023f610808565b61023f6103213660046113ce565b610b02565b6101b6610c57565b61020a61033c36600461134f565b610c66565b61023f61034f36600461145a565b610ca4565b60095461020a90600160a81b900460ff1681565b61023f610d65565b6101b6610dd3565b61021e7f000000000000000000000000000000000000000000000000000000000000000081565b61020a6103ad3660046113ce565b600a6020526000908152604090205460ff1681565b61021e6103d036600461150b565b6001600160a01b03918216600090815260016020908152604080832093909416825291909152205490565b61023f6104093660046113ce565b610e61565b60606003805461041d9061153e565b80601f01602080910402602001604051908101604052809291908181526020018280546104499061153e565b80156104965780601f1061046b57610100808354040283529160200191610496565b820191906000526020600020905b81548152906001019060200180831161047957829003601f168201915b5050505050905090565b6000336104ae818585610e9f565b60019150505b92915050565b600954600160a81b900460ff16156104ed5760405162461bcd60e51b81526004016104e490611578565b60405180910390fd5b6000811161053d5760405162461bcd60e51b815260206004820152601d60248201527f416d6f756e74206d7573742062652067726561746572207468616e203000000060448201526064016104e4565b6105478282610eb1565b5050565b600954600090600160a81b900460ff16156105785760405162461bcd60e51b81526004016104e4906115a6565b610583848484610ee7565b949350505050565b610593610f0b565b600954600160a81b900460ff16156105bd5760405162461bcd60e51b81526004016104e490611578565b7f0000000000000000000000000000000000000000000000000000000000000000816105e860025490565b6105f291906115f6565b11156106355760405162461bcd60e51b815260206004820152601260248201527145786365656473206d617820737570706c7960701b60448201526064016104e4565b61063f8282610eb1565b816001600160a01b03167f3f2c9d57c068687834f0de942a9babb9e5acab57d516d3480a3c16ee165a42738260405161067a91815260200190565b60405180910390a25050565b600954600160a81b900460ff16156106b05760405162461bcd60e51b81526004016104e490611578565b6106ba3382610f38565b60405181815233907ffd38818f5291bf0bb3a2a48aadc06ba8757865d1dabd804585338aab3009dcb69060200160405180910390a250565b6106fa610f0b565b6107046000610f6e565b565b6060806000806000806000600761071b610c57565b60025460095483547f00000000000000000000000000000000000000000000000000000000000000009160ff600160a01b8204811692600160a81b8304909116916001600160a01b03169087906107719061153e565b80601f016020809104026020016040519081016040528092919081815260200182805461079d9061153e565b80156107ea5780601f106107bf576101008083540402835291602001916107ea565b820191906000526020600020905b8154815290600101906020018083116107cd57829003601f168201915b50505050509650965096509650965096509650965090919293949596565b610810610fc0565b600954600160a01b900460ff166108615760405162461bcd60e51b8152602060048201526015602482015274135a59dc985d1a5bdb881b9bdd08195b98589b1959605a1b60448201526064016104e4565b600954600160a81b900460ff16156108bb5760405162461bcd60e51b815260206004820152601760248201527f436f6e74726163742066756c6c79206d6967726174656400000000000000000060448201526064016104e4565b336000908152600a602052604090205460ff161561090e5760405162461bcd60e51b815260206004820152601060248201526f105b1c9958591e481b5a59dc985d195960821b60448201526064016104e4565b6009546001600160a01b031661095c5760405162461bcd60e51b8152602060048201526013602482015272139bc81b995dc818dbdb9d1c9858dd081cd95d606a1b60448201526064016104e4565b33600090815260208190526040902054806109b05760405162461bcd60e51b81526020600482015260146024820152734e6f20746f6b656e7320746f206d69677261746560601b60448201526064016104e4565b336000818152600a60205260409020805460ff191660011790556109d49082610f38565b600954604051336024820152604481018390526000916001600160a01b03169060640160408051601f198184030181529181526020820180516001600160e01b031663066f76cd60e21b17905251610a2c9190611617565b6000604051808303816000865af19150503d8060008114610a69576040519150601f19603f3d011682016040523d82523d6000602084013e610a6e565b606091505b5050905080610ab25760405162461bcd60e51b815260206004820152601060248201526f135a59dc985d1a5bdb8819985a5b195960821b60448201526064016104e4565b6009546040518381526001600160a01b039091169033907f7233a1b62a893f769611446ea92ec0a613a09519a283893ebc0a09a723af9a0b9060200160405180910390a350506107046001600655565b610b0a610f0b565b6001600160a01b038116610b605760405162461bcd60e51b815260206004820152601c60248201527f496e76616c6964206e657720636f6e747261637420616464726573730000000060448201526064016104e4565b600954600160a01b900460ff1615610bba5760405162461bcd60e51b815260206004820152601960248201527f4d6967726174696f6e20616c726561647920656e61626c65640000000000000060448201526064016104e4565b600954600160a81b900460ff1615610c075760405162461bcd60e51b815260206004820152601060248201526f105b1c9958591e481b5a59dc985d195960821b60448201526064016104e4565b600980546001600160a81b0319166001600160a01b038316908117600160a01b179091556040517ff8cb72b93188da0cf41cc6a23978cb1faee80e70bd3c6bdf0a9301728474544290600090a250565b60606008805461041d9061153e565b600954600090600160a81b900460ff1615610c935760405162461bcd60e51b81526004016104e4906115a6565b610c9d8383610fea565b9392505050565b610cac610f0b565b6000815111610cf45760405162461bcd60e51b81526020600482015260146024820152734e616d652063616e6e6f7420626520656d70747960601b60448201526064016104e4565b600954600160a81b900460ff1615610d1e5760405162461bcd60e51b81526004016104e490611578565b6007610d2a8282611681565b507f4fa4f0e8663f4d09463a9dff0e9314e3475aa89b2e13e6608bc88ae50f9e966581604051610d5a9190611320565b60405180910390a150565b610d6d610f0b565b600954600160a01b900460ff16610dbe5760405162461bcd60e51b8152602060048201526015602482015274135a59dc985d1a5bdb881b9bdd08195b98589b1959605a1b60448201526064016104e4565b6009805460ff60a81b1916600160a81b179055565b60078054610de09061153e565b80601f0160208091040260200160405190810160405280929190818152602001828054610e0c9061153e565b8015610e595780601f10610e2e57610100808354040283529160200191610e59565b820191906000526020600020905b815481529060010190602001808311610e3c57829003601f168201915b505050505081565b610e69610f0b565b6001600160a01b038116610e9357604051631e4fbdf760e01b8152600060048201526024016104e4565b610e9c81610f6e565b50565b610eac8383836001610ff8565b505050565b6001600160a01b038216610edb5760405163ec442f0560e01b8152600060048201526024016104e4565b610547600083836110ce565b600033610ef58582856111f8565b610f00858585611271565b506001949350505050565b6005546001600160a01b031633146107045760405163118cdaa760e01b81523360048201526024016104e4565b6001600160a01b038216610f6257604051634b637e8f60e11b8152600060048201526024016104e4565b610547826000836110ce565b600580546001600160a01b038381166001600160a01b0319831681179093556040519116919082907f8be0079c531659141344cd1fd0a4f28419497f9722a3daafe3b4186f6b6457e090600090a35050565b600260065403610fe357604051633ee5aeb560e01b815260040160405180910390fd5b6002600655565b6000336104ae818585611271565b6001600160a01b0384166110225760405163e602df0560e01b8152600060048201526024016104e4565b6001600160a01b03831661104c57604051634a1406b160e11b8152600060048201526024016104e4565b6001600160a01b03808516600090815260016020908152604080832093871683529290522082905580156110c857826001600160a01b0316846001600160a01b03167f8c5be1e5ebec7d5bd14f71427d1e84f3dd0314c0f7b2291e5b200ac8c7c3b925846040516110bf91815260200190565b60405180910390a35b50505050565b6001600160a01b0383166110f95780600260008282546110ee91906115f6565b9091555061116b9050565b6001600160a01b0383166000908152602081905260409020548181101561114c5760405163391434e360e21b81526001600160a01b038516600482015260248101829052604481018390526064016104e4565b6001600160a01b03841660009081526020819052604090209082900390555b6001600160a01b038216611187576002805482900390556111a6565b6001600160a01b03821660009081526020819052604090208054820190555b816001600160a01b0316836001600160a01b03167fddf252ad1be2c89b69c2b068fc378daa952ba7f163c4a11628f55a4df523b3ef836040516111eb91815260200190565b60405180910390a3505050565b6001600160a01b038381166000908152600160209081526040808320938616835292905220546000198110156110c8578181101561126257604051637dc7a0d960e11b81526001600160a01b038416600482015260248101829052604481018390526064016104e4565b6110c884848484036000610ff8565b6001600160a01b03831661129b57604051634b637e8f60e11b8152600060048201526024016104e4565b6001600160a01b0382166112c55760405163ec442f0560e01b8152600060048201526024016104e4565b610eac8383836110ce565b60005b838110156112eb5781810151838201526020016112d3565b50506000910152565b6000815180845261130c8160208601602086016112d0565b601f01601f19169290920160200192915050565b602081526000610c9d60208301846112f4565b80356001600160a01b038116811461134a57600080fd5b919050565b6000806040838503121561136257600080fd5b61136b83611333565b946020939093013593505050565b60008060006060848603121561138e57600080fd5b61139784611333565b92506113a560208501611333565b9150604084013590509250925092565b6000602082840312156113c757600080fd5b5035919050565b6000602082840312156113e057600080fd5b610c9d82611333565b60e0815260006113fc60e083018a6112f4565b828103602084015261140e818a6112f4565b6040840198909852505060608101949094529115156080840152151560a08301526001600160a01b031660c09091015292915050565b634e487b7160e01b600052604160045260246000fd5b60006020828403121561146c57600080fd5b813567ffffffffffffffff8082111561148457600080fd5b818401915084601f83011261149857600080fd5b8135818111156114aa576114aa611444565b604051601f8201601f19908116603f011681019083821181831017156114d2576114d2611444565b816040528281528760208487010111156114eb57600080fd5b826020860160208301376000928101602001929092525095945050505050565b6000806040838503121561151e57600080fd5b61152783611333565b915061153560208401611333565b90509250929050565b600181811c9082168061155257607f821691505b60208210810361157257634e487b7160e01b600052602260045260246000fd5b50919050565b60208082526014908201527310dbdb9d1c9858dd081a5cc81b5a59dc985d195960621b604082015260600190565b60208082526030908201527f436f6e7472616374206973206d696772617465642c20706c65617365206d696760408201526f7261746520796f757220746f6b656e7360801b606082015260800190565b808201808211156104b457634e487b7160e01b600052601160045260246000fd5b600082516116298184602087016112d0565b9190910192915050565b601f821115610eac57600081815260208120601f850160051c8101602086101561165a5750805b601f850160051c820191505b8181101561167957828155600101611666565b505050505050565b815167ffffffffffffffff81111561169b5761169b611444565b6116af816116a9845461153e565b84611633565b602080601f8311600181146116e457600084156116cc5750858301515b600019600386901b1c1916600185901b178555611679565b600085815260208120601f198616915b82811015611713578886015182559484019460019091019084016116f4565b50858210156117315787850151600019600388901b60f8161c191681555b5050505050600190811b0190555056fea26469706673582212203822ef4102bcf2a4e42f67530da87579264e3fb47ddfff2a4335e79a670c146f64736f6c63430008140033",
  "linkReferences": {},
  "deployedLinkReferences": {}
}