{
  "_format": "hh-sol-artifact-1",
  "contractName": "OpenLeague",
  "sourceName": "contracts/OpenLeague.sol",
  "abi": [
    {
      "inputs": [],
      "stateMutability": "nonpayable",
      "type": "constructor"
    },
    {
      "inputs": [
        {
          "internalType": "address",
          "name": "owner",
          "type": "address"
        }
      ],
      "name": "OwnableInvalidOwner",
      "type": "error"
    },
    {
      "inputs": [
        {
          "internalType": "address",
          "name": "account",
          "type": "address"
        }
      ],
      "name": "OwnableUnauthorizedAccount",
      "type": "error"
    },
    {
      "inputs": [],
      "name": "ReentrancyGuardReentrantCall",
      "type": "error"
    },
    {
      "anonymous": false,
      "inputs": [
        {
          "indexed": true,
          "internalType": "address",
          "name": "from",
          "type": "address"
        },
        {
          "indexed": false,
          "internalType": "uint256",
          "name": "amount",
          "type": "uint256"
        }
      ],
      "name": "CommissionReceived",
      "type": "event"
    },
    {
      "anonymous": false,
      "inputs": [
        {
          "indexed": true,
          "internalType": "address",
          "name": "contractAddress",
          "type": "address"
        }
      ],
      "name": "ContractAuthorized",
      "type": "event"
    },
    {
      "anonymous": false,
      "inputs": [
        {
          "indexed": true,
          "internalType": "address",
          "name": "contractAddress",
          "type": "address"
        }
      ],
      "name": "ContractDeauthorized",
      "type": "event"
    },
    {
      "anonymous": false,
      "inputs": [
        {
          "indexed": true,
          "internalType": "address",
          "name": "from",
          "type": "address"
        },
        {
          "indexed": false,
          "internalType": "uint256",
          "name": "amount",
          "type": "uint256"
        }
      ],
      "name": "DirectDeposit",
      "type": "event"
    },
    {
      "anonymous": false,
      "inputs": [
        {
          "indexed": true,
          "internalType": "address",
          "name": "to",
          "type": "address"
        },
        {
          "indexed": false,
          "internalType": "uint256",
          "name": "amount",
          "type": "uint256"
        }
      ],
      "name": "EmergencyWithdrawal",
      "type": "event"
    },
    {
      "anonymous": false,
      "inputs": [
        {
          "indexed": true,
          "internalType": "address",
          "name": "previousOwner",
          "type": "address"
        },
        {
          "indexed": true,
          "internalType": "address",
          "name": "newOwner",
          "type": "address"
        }
      ],
      "name": "OwnershipTransferred",
      "type": "event"
    },
    {
      "anonymous": false,
      "inputs": [
        {
          "indexed": true,
          "internalType": "address",
          "name": "to",
          "type": "address"
        },
        {
          "indexed": false,
          "internalType": "uint256",
          "name": "amount",
          "type": "uint256"
        }
      ],
      "name": "Transfer",
      "type": "event"
    },
    {
      "anonymous": false,
      "inputs": [
        {
          "indexed": true,
          "internalType": "address",
          "name": "to",
          "type": "address"
        },
        {
          "indexed": false,
          "internalType": "uint256",
          "name": "amount",
          "type": "uint256"
        }
      ],
      "name": "Withdrawal",
      "type": "event"
    },
    {
      "stateMutability": "payable",
      "type": "fallback"
    },
    {
      "inputs": [
        {
          "internalType": "address",
          "name": "contractAddress",
          "type": "address"
        }
      ],
      "name": "authorizeContract",
      "outputs": [],
      "stateMutability": "nonpayable",
      "type": "function"
    },
    {
      "inputs": [
        {
          "internalType": "address",
          "name": "",
          "type": "address"
        }
      ],
      "name": "authorizedContracts",
      "outputs": [
        {
          "internalType": "bool",
          "name": "",
          "type": "bool"
        }
      ],
      "stateMutability": "view",
      "type": "function"
    },
    {
      "inputs": [
        {
          "internalType": "uint256",
          "name": "",
          "type": "uint256"
        }
      ],
      "name": "authorizedContractsList",
      "outputs": [
        {
          "internalType": "address",
          "name": "",
          "type": "address"
        }
      ],
      "stateMutability": "view",
      "type": "function"
    },
    {
      "inputs": [
        {
          "internalType": "address payable[]",
          "name": "recipients",
          "type": "address[]"
        },
        {
          "internalType": "uint256[]",
          "name": "amounts",
          "type": "uint256[]"
        }
      ],
      "name": "batchTransfer",
      "outputs": [],
      "stateMutability": "nonpayable",
      "type": "function"
    },
    {
      "inputs": [
        {
          "internalType": "address",
          "name": "contractAddress",
          "type": "address"
        }
      ],
      "name": "deauthorizeContract",
      "outputs": [],
      "stateMutability": "nonpayable",
      "type": "function"
    },
    {
      "inputs": [],
      "name": "deposit",
      "outputs": [],
      "stateMutability": "payable",
      "type": "function"
    },
    {
      "inputs": [],
      "name": "emergencyWithdraw",
      "outputs": [],
      "stateMutability": "nonpayable",
      "type": "function"
    },
    {
      "inputs": [],
      "name": "getAuthorizedContracts",
      "outputs": [
        {
          "internalType": "address[]",
          "name": "",
          "type": "address[]"
        }
      ],
      "stateMutability": "view",
      "type": "function"
    },
    {
      "inputs": [],
      "name": "getBalance",
      "outputs": [
        {
          "internalType": "uint256",
          "name": "",
          "type": "uint256"
        }
      ],
      "stateMutability": "view",
      "type": "function"
    },
    {
      "inputs": [],
      "name": "getStats",
      "outputs": [
        {
          "internalType": "uint256",
          "name": "balance",
          "type": "uint256"
        },
        {
          "internalType": "uint256",
          "name": "commissions",
          "type": "uint256"
        },
        {
          "internalType": "uint256",
          "name": "withdrawals",
          "type": "uint256"
        },
        {
          "internalType": "uint256",
          "name": "transfers",
          "type": "uint256"
        },
        {
          "internalType": "uint256",
          "name": "authorizedContractsCount",
          "type": "uint256"
        }
      ],
      "stateMutability": "view",
      "type": "function"
    },
    {
      "inputs": [
        {
          "internalType": "address",
          "name": "contractAddress",
          "type": "address"
        }
      ],
      "name": "isContractAuthorized",
      "outputs": [
        {
          "internalType": "bool",
          "name": "",
          "type": "bool"
        }
      ],
      "stateMutability": "view",
      "type": "function"
    },
    {
      "inputs": [],
      "name": "owner",
      "outputs": [
        {
          "internalType": "address",
          "name": "",
          "type": "address"
        }
      ],
      "stateMutability": "view",
      "type": "function"
    },
    {
      "inputs": [],
      "name": "receiveCommission",
      "outputs": [],
      "stateMutability": "payable",
      "type": "function"
    },
    {
      "inputs": [],
      "name": "renounceOwnership",
      "outputs": [],
      "stateMutability": "nonpayable",
      "type": "function"
    },
    {
      "inputs": [],
      "name": "totalBalance",
      "outputs": [
        {
          "internalType": "uint256",
          "name": "",
          "type": "uint256"
        }
      ],
      "stateMutability": "view",
      "type": "function"
    },
    {
      "inputs": [],
      "name": "totalCommissionsReceived",
      "outputs": [
        {
          "internalType": "uint256",
          "name": "",
          "type": "uint256"
        }
      ],
      "stateMutability": "view",
      "type": "function"
    },
    {
      "inputs": [],
      "name": "totalTransfers",
      "outputs": [
        {
          "internalType": "uint256",
          "name": "",
          "type": "uint256"
        }
      ],
      "stateMutability": "view",
      "type": "function"
    },
    {
      "inputs": [],
      "name": "totalWithdrawals",
      "outputs": [
        {
          "internalType": "uint256",
          "name": "",
          "type": "uint256"
        }
      ],
      "stateMutability": "view",
      "type": "function"
    },
    {
      "inputs": [
        {
          "internalType": "address payable",
          "name": "to",
          "type": "address"
        },
        {
          "internalType": "uint256",
          "name": "amount",
          "type": "uint256"
        }
      ],
      "name": "transferFunds",
      "outputs": [],
      "stateMutability": "nonpayable",
      "type": "function"
    },
    {
      "inputs": [
        {
          "internalType": "address",
          "name": "newOwner",
          "type": "address"
        }
      ],
      "name": "transferOwnership",
      "outputs": [],
      "stateMutability": "nonpayable",
      "type": "function"
    },
    {
      "inputs": [
        {
          "internalType": "address payable",
          "name": "to",
          "type": "address"
        },
        {
          "internalType": "uint256",
          "name": "amount",
          "type": "uint256"
        }
      ],
      "name": "withdraw",
      "outputs": [],
      "stateMutability": "nonpayable",
      "type": "function"
    },
    {
      "stateMutability": "payable",
      "type": "receive"
    }
  ],
  "bytecode": "0x608060405234801561001057600080fd5b50338061003757604051631e4fbdf760e01b81526000600482015260240160405180910390fd5b6100408161004f565b5060018055600060025561009f565b600080546001600160a01b038381166001600160a01b0319831681178455604051919092169283917f8be0079c531659141344cd1fd0a4f28419497f9722a3daafe3b4186f6b6457e09190a35050565b611640806100ae6000396000f3fe60806040526004361061012e5760003560e01c80638da5cb5b116100ab578063cf2807d91161006f578063cf2807d9146103ed578063d0e30db01461040f578063d5b9221b14610417578063db2e21bc14610447578063f2fde38b1461045c578063f3fef3a31461047c576101e5565b80638da5cb5b14610321578063990dc9db14610353578063aa76897d14610373578063ad7a672f14610393578063c59d4847146103a9576101e5565b806360464627116100f2578063604646271461029657806367561d93146102ac5780636e861c0e146102cc578063715018a6146102ec57806388d695b214610301576101e5565b80630cce5be6146101f7578063103aeda7146101ff57806312065fe01461024d5780633965798d1461026a5780633bf4772014610280576101e5565b366101e557346002600082825461014591906113e8565b90915550503360009081526006602052604090205460ff16156101b157346003600082825461017491906113e8565b909155505060405134815233907f5aeb9096ee9b4ec83c285588c73d5bc78158447b7ea0b12a0ada3a344c8ff03d906020015b60405180910390a2005b60405134815233907fe7b3b57577ad57e4de60cc81cd73456448c8cfb13bad2904338c9988b274bbae906020016101a7565b005b346002600082825461014591906113e8565b6101e361049c565b34801561020b57600080fd5b5061023861021a366004611416565b6001600160a01b031660009081526006602052604090205460ff1690565b60405190151581526020015b60405180910390f35b34801561025957600080fd5b50475b604051908152602001610244565b34801561027657600080fd5b5061025c60035481565b34801561028c57600080fd5b5061025c60055481565b3480156102a257600080fd5b5061025c60045481565b3480156102b857600080fd5b506101e36102c7366004611416565b6105a3565b3480156102d857600080fd5b506101e36102e7366004611416565b6106f6565b3480156102f857600080fd5b506101e36108c4565b34801561030d57600080fd5b506101e361031c366004611486565b6108d6565b34801561032d57600080fd5b506000546001600160a01b03165b6040516001600160a01b039091168152602001610244565b34801561035f57600080fd5b506101e361036e3660046114f2565b610c6c565b34801561037f57600080fd5b5061033b61038e36600461151e565b610e67565b34801561039f57600080fd5b5061025c60025481565b3480156103b557600080fd5b50600254600354600454600554600754604080519586526020860194909452928401919091526060830152608082015260a001610244565b3480156103f957600080fd5b50610402610e91565b6040516102449190611537565b6101e3610ef3565b34801561042357600080fd5b50610238610432366004611416565b60066020526000908152604090205460ff1681565b34801561045357600080fd5b506101e3610fa2565b34801561046857600080fd5b506101e3610477366004611416565b6110f8565b34801561048857600080fd5b506101e36104973660046114f2565b611136565b600034116104f15760405162461bcd60e51b815260206004820152601d60248201527f416d6f756e74206d7573742062652067726561746572207468616e203000000060448201526064015b60405180910390fd5b346002600082825461050391906113e8565b90915550503360009081526006602052604090205460ff161561056f57346003600082825461053291906113e8565b909155505060405134815233907f5aeb9096ee9b4ec83c285588c73d5bc78158447b7ea0b12a0ada3a344c8ff03d906020015b60405180910390a2565b60405134815233907fe7b3b57577ad57e4de60cc81cd73456448c8cfb13bad2904338c9988b274bbae90602001610565565b565b6105ab61132b565b6001600160a01b0381166106015760405162461bcd60e51b815260206004820152601860248201527f496e76616c696420636f6e74726163742061646472657373000000000000000060448201526064016104e8565b6001600160a01b03811660009081526006602052604090205460ff161561066a5760405162461bcd60e51b815260206004820152601b60248201527f436f6e747261637420616c726561647920617574686f72697a6564000000000060448201526064016104e8565b6001600160a01b038116600081815260066020526040808220805460ff1916600190811790915560078054918201815583527fa66cc928b5edb82af9bd49922954155ab7b0942694bea4ce44661d9a8736c6880180546001600160a01b03191684179055517f8983a1f3c3cb45c24c8226b5b805e3b6eb49686530b808534b2a920129eff6519190a250565b6106fe61132b565b6001600160a01b03811660009081526006602052604090205460ff166107665760405162461bcd60e51b815260206004820152601760248201527f436f6e7472616374206e6f7420617574686f72697a656400000000000000000060448201526064016104e8565b6001600160a01b0381166000908152600660205260408120805460ff191690555b60075481101561088c57816001600160a01b0316600782815481106107ae576107ae611584565b6000918252602090912001546001600160a01b03160361087a57600780546107d89060019061159a565b815481106107e8576107e8611584565b600091825260209091200154600780546001600160a01b03909216918390811061081457610814611584565b9060005260206000200160006101000a8154816001600160a01b0302191690836001600160a01b031602179055506007805480610853576108536115ad565b600082815260209020810160001990810180546001600160a01b031916905501905561088c565b80610884816115c3565b915050610787565b506040516001600160a01b038216907f54142b7cb3ceaa9e564243ce4cc2303723c842a1144192de6b3c594f68b16a9a90600090a250565b6108cc61132b565b6105a16000611358565b6108de61132b565b6108e66113a8565b82811461092e5760405162461bcd60e51b8152602060048201526016602482015275082e4e4c2f2e640d8cadccee8d040dad2e6dac2e8c6d60531b60448201526064016104e8565b8261096a5760405162461bcd60e51b815260206004820152600c60248201526b456d7074792061727261797360a01b60448201526064016104e8565b6000805b828110156109ae5783838281811061098857610988611584565b905060200201358261099a91906113e8565b9150806109a6816115c3565b91505061096e565b508060025410156109d15760405162461bcd60e51b81526004016104e8906115dc565b80600260008282546109e3919061159a565b9250508190555080600560008282546109fc91906113e8565b90915550600090505b84811015610c5b576000868683818110610a2157610a21611584565b9050602002016020810190610a369190611416565b6001600160a01b031603610a8c5760405162461bcd60e51b815260206004820152601960248201527f496e76616c696420726563697069656e7420616464726573730000000000000060448201526064016104e8565b6000848483818110610aa057610aa0611584565b9050602002013511610af45760405162461bcd60e51b815260206004820152601d60248201527f416d6f756e74206d7573742062652067726561746572207468616e203000000060448201526064016104e8565b6000868683818110610b0857610b08611584565b9050602002016020810190610b1d9190611416565b6001600160a01b0316858584818110610b3857610b38611584565b9050602002013560405160006040518083038185875af1925050503d8060008114610b7f576040519150601f19603f3d011682016040523d82523d6000602084013e610b84565b606091505b5050905080610bc75760405162461bcd60e51b815260206004820152600f60248201526e151c985b9cd9995c8819985a5b1959608a1b60448201526064016104e8565b868683818110610bd957610bd9611584565b9050602002016020810190610bee9190611416565b6001600160a01b03167f69ca02dd4edd7bf0a4abb9ed3b7af3f14778db5d61921c7dc7cd545266326de2868685818110610c2a57610c2a611584565b90506020020135604051610c4091815260200190565b60405180910390a25080610c53816115c3565b915050610a05565b5050610c6660018055565b50505050565b610c7461132b565b610c7c6113a8565b6001600160a01b038216610cd25760405162461bcd60e51b815260206004820152601b60248201527f496e76616c69642064657374696e6174696f6e2061646472657373000000000060448201526064016104e8565b60008111610d315760405162461bcd60e51b815260206004820152602660248201527f5472616e7366657220616d6f756e74206d75737420626520677265617465722060448201526507468616e20360d41b60648201526084016104e8565b806002541015610d535760405162461bcd60e51b81526004016104e8906115dc565b8060026000828254610d65919061159a565b925050819055508060056000828254610d7e91906113e8565b90915550506040516000906001600160a01b0384169083908381818185875af1925050503d8060008114610dce576040519150601f19603f3d011682016040523d82523d6000602084013e610dd3565b606091505b5050905080610e165760405162461bcd60e51b815260206004820152600f60248201526e151c985b9cd9995c8819985a5b1959608a1b60448201526064016104e8565b826001600160a01b03167f69ca02dd4edd7bf0a4abb9ed3b7af3f14778db5d61921c7dc7cd545266326de283604051610e5191815260200190565b60405180910390a250610e6360018055565b5050565b60078181548110610e7757600080fd5b6000918252602090912001546001600160a01b0316905081565b60606007805480602002602001604051908101604052809291908181526020018280548015610ee957602002820191906000526020600020905b81546001600160a01b03168152600190910190602001808311610ecb575b5050505050905090565b610efb61132b565b60003411610f595760405162461bcd60e51b815260206004820152602560248201527f4465706f73697420616d6f756e74206d75737420626520677265617465722074604482015264068616e20360dc1b60648201526084016104e8565b3460026000828254610f6b91906113e8565b909155505060405134815233907fe7b3b57577ad57e4de60cc81cd73456448c8cfb13bad2904338c9988b274bbae90602001610565565b610faa61132b565b610fb26113a8565b4780610ff75760405162461bcd60e51b81526020600482015260146024820152734e6f2066756e647320746f20776974686472617760601b60448201526064016104e8565b6000600281905580546040516001600160a01b039091169083908381818185875af1925050503d8060008114611049576040519150601f19603f3d011682016040523d82523d6000602084013e61104e565b606091505b505090508061109f5760405162461bcd60e51b815260206004820152601b60248201527f456d657267656e6379207769746864726177616c206661696c6564000000000060448201526064016104e8565b6000546001600160a01b03166001600160a01b03167f23d6711a1d031134a36921253c75aa59e967d38e369ac625992824315e204f20836040516110e591815260200190565b60405180910390a250506105a160018055565b61110061132b565b6001600160a01b03811661112a57604051631e4fbdf760e01b8152600060048201526024016104e8565b61113381611358565b50565b61113e61132b565b6111466113a8565b6001600160a01b03821661119c5760405162461bcd60e51b815260206004820152601b60248201527f496e76616c69642064657374696e6174696f6e2061646472657373000000000060448201526064016104e8565b600081116111fd5760405162461bcd60e51b815260206004820152602860248201527f5769746864726177616c20616d6f756e74206d75737420626520677265617465604482015267072207468616e20360c41b60648201526084016104e8565b80600254101561121f5760405162461bcd60e51b81526004016104e8906115dc565b8060026000828254611231919061159a565b92505081905550806004600082825461124a91906113e8565b90915550506040516000906001600160a01b0384169083908381818185875af1925050503d806000811461129a576040519150601f19603f3d011682016040523d82523d6000602084013e61129f565b606091505b50509050806112f05760405162461bcd60e51b815260206004820152601a60248201527f5769746864726177616c207472616e73666572206661696c656400000000000060448201526064016104e8565b826001600160a01b03167f7fcf532c15f0a6db0bd6d0e038bea71d30d808c7d98cb3bf7268a95bf5081b6583604051610e5191815260200190565b6000546001600160a01b031633146105a15760405163118cdaa760e01b81523360048201526024016104e8565b600080546001600160a01b038381166001600160a01b0319831681178455604051919092169283917f8be0079c531659141344cd1fd0a4f28419497f9722a3daafe3b4186f6b6457e09190a35050565b6002600154036113cb57604051633ee5aeb560e01b815260040160405180910390fd5b6002600155565b634e487b7160e01b600052601160045260246000fd5b808201808211156113fb576113fb6113d2565b92915050565b6001600160a01b038116811461113357600080fd5b60006020828403121561142857600080fd5b813561143381611401565b9392505050565b60008083601f84011261144c57600080fd5b50813567ffffffffffffffff81111561146457600080fd5b6020830191508360208260051b850101111561147f57600080fd5b9250929050565b6000806000806040858703121561149c57600080fd5b843567ffffffffffffffff808211156114b457600080fd5b6114c08883890161143a565b909650945060208701359150808211156114d957600080fd5b506114e68782880161143a565b95989497509550505050565b6000806040838503121561150557600080fd5b823561151081611401565b946020939093013593505050565b60006020828403121561153057600080fd5b5035919050565b6020808252825182820181905260009190848201906040850190845b818110156115785783516001600160a01b031683529284019291840191600101611553565b50909695505050505050565b634e487b7160e01b600052603260045260246000fd5b818103818111156113fb576113fb6113d2565b634e487b7160e01b600052603160045260246000fd5b6000600182016115d5576115d56113d2565b5060010190565b602080825260149082015273496e73756666696369656e742062616c616e636560601b60408201526060019056fea2646970667358221220604acfb5363137613d0b044421feed3407acbcec84571e8df8bb6219cc80c02464736f6c63430008140033",
  "linkReferences": {},
  "deployedLinkReferences": {}
}