{
  "_format": "hh3-artifact-1",
  "contractName": "OpenLeague",
  "sourceName": "contracts/OpenLeague.sol",
  "abi": [
    {
      "inputs": [],
      "stateMutability": "nonpayable",
      "type": "constructor"
    },
    {
      "inputs": [
        {
          "internalType": "address",
          "name": "owner",
          "type": "address"
        }
      ],
      "name": "OwnableInvalidOwner",
      "type": "error"
    },
    {
      "inputs": [
        {
          "internalType": "address",
          "name": "account",
          "type": "address"
        }
      ],
      "name": "OwnableUnauthorizedAccount",
      "type": "error"
    },
    {
      "inputs": [],
      "name": "ReentrancyGuardReentrantCall",
      "type": "error"
    },
    {
      "anonymous": false,
      "inputs": [
        {
          "indexed": true,
          "internalType": "address",
          "name": "from",
          "type": "address"
        },
        {
          "indexed": false,
          "internalType": "uint256",
          "name": "amount",
          "type": "uint256"
        }
      ],
      "name": "CommissionReceived",
      "type": "event"
    },
    {
      "anonymous": false,
      "inputs": [
        {
          "indexed": true,
          "internalType": "address",
          "name": "contractAddress",
          "type": "address"
        }
      ],
      "name": "ContractAuthorized",
      "type": "event"
    },
    {
      "anonymous": false,
      "inputs": [
        {
          "indexed": true,
          "internalType": "address",
          "name": "contractAddress",
          "type": "address"
        }
      ],
      "name": "ContractDeauthorized",
      "type": "event"
    },
    {
      "anonymous": false,
      "inputs": [
        {
          "indexed": true,
          "internalType": "address",
          "name": "from",
          "type": "address"
        },
        {
          "indexed": false,
          "internalType": "uint256",
          "name": "amount",
          "type": "uint256"
        }
      ],
      "name": "DirectDeposit",
      "type": "event"
    },
    {
      "anonymous": false,
      "inputs": [
        {
          "indexed": true,
          "internalType": "address",
          "name": "to",
          "type": "address"
        },
        {
          "indexed": false,
          "internalType": "uint256",
          "name": "amount",
          "type": "uint256"
        }
      ],
      "name": "EmergencyWithdrawal",
      "type": "event"
    },
    {
      "anonymous": false,
      "inputs": [
        {
          "indexed": true,
          "internalType": "address",
          "name": "previousOwner",
          "type": "address"
        },
        {
          "indexed": true,
          "internalType": "address",
          "name": "newOwner",
          "type": "address"
        }
      ],
      "name": "OwnershipTransferred",
      "type": "event"
    },
    {
      "anonymous": false,
      "inputs": [
        {
          "indexed": true,
          "internalType": "address",
          "name": "to",
          "type": "address"
        },
        {
          "indexed": false,
          "internalType": "uint256",
          "name": "amount",
          "type": "uint256"
        }
      ],
      "name": "Transfer",
      "type": "event"
    },
    {
      "anonymous": false,
      "inputs": [
        {
          "indexed": true,
          "internalType": "address",
          "name": "to",
          "type": "address"
        },
        {
          "indexed": false,
          "internalType": "uint256",
          "name": "amount",
          "type": "uint256"
        }
      ],
      "name": "Withdrawal",
      "type": "event"
    },
    {
      "stateMutability": "payable",
      "type": "fallback"
    },
    {
      "inputs": [
        {
          "internalType": "address",
          "name": "contractAddress",
          "type": "address"
        }
      ],
      "name": "authorizeContract",
      "outputs": [],
      "stateMutability": "nonpayable",
      "type": "function"
    },
    {
      "inputs": [
        {
          "internalType": "address",
          "name": "",
          "type": "address"
        }
      ],
      "name": "authorizedContracts",
      "outputs": [
        {
          "internalType": "bool",
          "name": "",
          "type": "bool"
        }
      ],
      "stateMutability": "view",
      "type": "function"
    },
    {
      "inputs": [
        {
          "internalType": "uint256",
          "name": "",
          "type": "uint256"
        }
      ],
      "name": "authorizedContractsList",
      "outputs": [
        {
          "internalType": "address",
          "name": "",
          "type": "address"
        }
      ],
      "stateMutability": "view",
      "type": "function"
    },
    {
      "inputs": [
        {
          "internalType": "address payable[]",
          "name": "recipients",
          "type": "address[]"
        },
        {
          "internalType": "uint256[]",
          "name": "amounts",
          "type": "uint256[]"
        }
      ],
      "name": "batchTransfer",
      "outputs": [],
      "stateMutability": "nonpayable",
      "type": "function"
    },
    {
      "inputs": [
        {
          "internalType": "address",
          "name": "contractAddress",
          "type": "address"
        }
      ],
      "name": "deauthorizeContract",
      "outputs": [],
      "stateMutability": "nonpayable",
      "type": "function"
    },
    {
      "inputs": [],
      "name": "deposit",
      "outputs": [],
      "stateMutability": "payable",
      "type": "function"
    },
    {
      "inputs": [],
      "name": "emergencyWithdraw",
      "outputs": [],
      "stateMutability": "nonpayable",
      "type": "function"
    },
    {
      "inputs": [],
      "name": "getAuthorizedContracts",
      "outputs": [
        {
          "internalType": "address[]",
          "name": "",
          "type": "address[]"
        }
      ],
      "stateMutability": "view",
      "type": "function"
    },
    {
      "inputs": [],
      "name": "getBalance",
      "outputs": [
        {
          "internalType": "uint256",
          "name": "",
          "type": "uint256"
        }
      ],
      "stateMutability": "view",
      "type": "function"
    },
    {
      "inputs": [],
      "name": "getStats",
      "outputs": [
        {
          "internalType": "uint256",
          "name": "balance",
          "type": "uint256"
        },
        {
          "internalType": "uint256",
          "name": "commissions",
          "type": "uint256"
        },
        {
          "internalType": "uint256",
          "name": "withdrawals",
          "type": "uint256"
        },
        {
          "internalType": "uint256",
          "name": "transfers",
          "type": "uint256"
        },
        {
          "internalType": "uint256",
          "name": "authorizedContractsCount",
          "type": "uint256"
        }
      ],
      "stateMutability": "view",
      "type": "function"
    },
    {
      "inputs": [
        {
          "internalType": "address",
          "name": "contractAddress",
          "type": "address"
        }
      ],
      "name": "isContractAuthorized",
      "outputs": [
        {
          "internalType": "bool",
          "name": "",
          "type": "bool"
        }
      ],
      "stateMutability": "view",
      "type": "function"
    },
    {
      "inputs": [],
      "name": "owner",
      "outputs": [
        {
          "internalType": "address",
          "name": "",
          "type": "address"
        }
      ],
      "stateMutability": "view",
      "type": "function"
    },
    {
      "inputs": [],
      "name": "receiveCommission",
      "outputs": [],
      "stateMutability": "payable",
      "type": "function"
    },
    {
      "inputs": [],
      "name": "renounceOwnership",
      "outputs": [],
      "stateMutability": "nonpayable",
      "type": "function"
    },
    {
      "inputs": [],
      "name": "totalBalance",
      "outputs": [
        {
          "internalType": "uint256",
          "name": "",
          "type": "uint256"
        }
      ],
      "stateMutability": "view",
      "type": "function"
    },
    {
      "inputs": [],
      "name": "totalCommissionsReceived",
      "outputs": [
        {
          "internalType": "uint256",
          "name": "",
          "type": "uint256"
        }
      ],
      "stateMutability": "view",
      "type": "function"
    },
    {
      "inputs": [],
      "name": "totalTransfers",
      "outputs": [
        {
          "internalType": "uint256",
          "name": "",
          "type": "uint256"
        }
      ],
      "stateMutability": "view",
      "type": "function"
    },
    {
      "inputs": [],
      "name": "totalWithdrawals",
      "outputs": [
        {
          "internalType": "uint256",
          "name": "",
          "type": "uint256"
        }
      ],
      "stateMutability": "view",
      "type": "function"
    },
    {
      "inputs": [
        {
          "internalType": "address payable",
          "name": "to",
          "type": "address"
        },
        {
          "internalType": "uint256",
          "name": "amount",
          "type": "uint256"
        }
      ],
      "name": "transferFunds",
      "outputs": [],
      "stateMutability": "nonpayable",
      "type": "function"
    },
    {
      "inputs": [
        {
          "internalType": "address",
          "name": "newOwner",
          "type": "address"
        }
      ],
      "name": "transferOwnership",
      "outputs": [],
      "stateMutability": "nonpayable",
      "type": "function"
    },
    {
      "inputs": [
        {
          "internalType": "address payable",
          "name": "to",
          "type": "address"
        },
        {
          "internalType": "uint256",
          "name": "amount",
          "type": "uint256"
        }
      ],
      "name": "withdraw",
      "outputs": [],
      "stateMutability": "nonpayable",
      "type": "function"
    },
    {
      "stateMutability": "payable",
      "type": "receive"
    }
  ],
  "bytecode": "0x608060405234801561000f575f5ffd5b50335f73ffffffffffffffffffffffffffffffffffffffff168173ffffffffffffffffffffffffffffffffffffffff1603610081575f6040517f1e4fbdf700000000000000000000000000000000000000000000000000000000815260040161007891906101a4565b60405180910390fd5b610090816100a460201b60201c565b50600180819055505f6002819055506101bd565b5f5f5f9054906101000a900473ffffffffffffffffffffffffffffffffffffffff169050815f5f6101000a81548173ffffffffffffffffffffffffffffffffffffffff021916908373ffffffffffffffffffffffffffffffffffffffff1602179055508173ffffffffffffffffffffffffffffffffffffffff168173ffffffffffffffffffffffffffffffffffffffff167f8be0079c531659141344cd1fd0a4f28419497f9722a3daafe3b4186f6b6457e060405160405180910390a35050565b5f73ffffffffffffffffffffffffffffffffffffffff82169050919050565b5f61018e82610165565b9050919050565b61019e81610184565b82525050565b5f6020820190506101b75f830184610195565b92915050565b6127e2806101ca5f395ff3fe60806040526004361061012d575f3560e01c80638da5cb5b116100aa578063cf2807d91161006e578063cf2807d9146105da578063d0e30db014610604578063d5b9221b1461060e578063db2e21bc1461064a578063f2fde38b14610660578063f3fef3a31461068857610255565b80638da5cb5b146104f4578063990dc9db1461051e578063aa76897d14610546578063ad7a672f14610582578063c59d4847146105ac57610255565b806360464627116100f1578063604646271461043c57806367561d93146104665780636e861c0e1461048e578063715018a6146104b657806388d695b2146104cc57610255565b80630cce5be614610378578063103aeda71461038257806312065fe0146103be5780633965798d146103e85780633bf477201461041257610255565b36610255573460025f8282546101439190611b44565b9250508190555060065f3373ffffffffffffffffffffffffffffffffffffffff1673ffffffffffffffffffffffffffffffffffffffff1681526020019081526020015f205f9054906101000a900460ff1615610204573460035f8282546101aa9190611b44565b925050819055503373ffffffffffffffffffffffffffffffffffffffff167f5aeb9096ee9b4ec83c285588c73d5bc78158447b7ea0b12a0ada3a344c8ff03d346040516101f79190611b86565b60405180910390a2610253565b3373ffffffffffffffffffffffffffffffffffffffff167fe7b3b57577ad57e4de60cc81cd73456448c8cfb13bad2904338c9988b274bbae3460405161024a9190611b86565b60405180910390a25b005b3460025f8282546102669190611b44565b9250508190555060065f3373ffffffffffffffffffffffffffffffffffffffff1673ffffffffffffffffffffffffffffffffffffffff1681526020019081526020015f205f9054906101000a900460ff1615610327573460035f8282546102cd9190611b44565b925050819055503373ffffffffffffffffffffffffffffffffffffffff167f5aeb9096ee9b4ec83c285588c73d5bc78158447b7ea0b12a0ada3a344c8ff03d3460405161031a9190611b86565b60405180910390a2610376565b3373ffffffffffffffffffffffffffffffffffffffff167fe7b3b57577ad57e4de60cc81cd73456448c8cfb13bad2904338c9988b274bbae3460405161036d9190611b86565b60405180910390a25b005b6103806106b0565b005b34801561038d575f5ffd5b506103a860048036038101906103a39190611c01565b610815565b6040516103b59190611c46565b60405180910390f35b3480156103c9575f5ffd5b506103d2610867565b6040516103df9190611b86565b60405180910390f35b3480156103f3575f5ffd5b506103fc61086e565b6040516104099190611b86565b60405180910390f35b34801561041d575f5ffd5b50610426610874565b6040516104339190611b86565b60405180910390f35b348015610447575f5ffd5b5061045061087a565b60405161045d9190611b86565b60405180910390f35b348015610471575f5ffd5b5061048c60048036038101906104879190611c01565b610880565b005b348015610499575f5ffd5b506104b460048036038101906104af9190611c01565b610a7b565b005b3480156104c1575f5ffd5b506104ca610d23565b005b3480156104d7575f5ffd5b506104f260048036038101906104ed9190611d15565b610d36565b005b3480156104ff575f5ffd5b50610508611125565b6040516105159190611da2565b60405180910390f35b348015610529575f5ffd5b50610544600480360381019061053f9190611e20565b61114c565b005b348015610551575f5ffd5b5061056c60048036038101906105679190611e5e565b611384565b6040516105799190611da2565b60405180910390f35b34801561058d575f5ffd5b506105966113bf565b6040516105a39190611b86565b60405180910390f35b3480156105b7575f5ffd5b506105c06113c5565b6040516105d1959493929190611e89565b60405180910390f35b3480156105e5575f5ffd5b506105ee6113ed565b6040516105fb9190611f91565b60405180910390f35b61060c611478565b005b348015610619575f5ffd5b50610634600480360381019061062f9190611c01565b61152a565b6040516106419190611c46565b60405180910390f35b348015610655575f5ffd5b5061065e611547565b005b34801561066b575f5ffd5b5061068660048036038101906106819190611c01565b6116b4565b005b348015610693575f5ffd5b506106ae60048036038101906106a99190611e20565b611738565b005b5f34116106f2576040517f08c379a00000000000000000000000000000000000000000000000000000000081526004016106e99061200b565b60405180910390fd5b3460025f8282546107039190611b44565b9250508190555060065f3373ffffffffffffffffffffffffffffffffffffffff1673ffffffffffffffffffffffffffffffffffffffff1681526020019081526020015f205f9054906101000a900460ff16156107c4573460035f82825461076a9190611b44565b925050819055503373ffffffffffffffffffffffffffffffffffffffff167f5aeb9096ee9b4ec83c285588c73d5bc78158447b7ea0b12a0ada3a344c8ff03d346040516107b79190611b86565b60405180910390a2610813565b3373ffffffffffffffffffffffffffffffffffffffff167fe7b3b57577ad57e4de60cc81cd73456448c8cfb13bad2904338c9988b274bbae3460405161080a9190611b86565b60405180910390a25b565b5f60065f8373ffffffffffffffffffffffffffffffffffffffff1673ffffffffffffffffffffffffffffffffffffffff1681526020019081526020015f205f9054906101000a900460ff169050919050565b5f47905090565b60035481565b60055481565b60045481565b610888611970565b5f73ffffffffffffffffffffffffffffffffffffffff168173ffffffffffffffffffffffffffffffffffffffff16036108f6576040517f08c379a00000000000000000000000000000000000000000000000000000000081526004016108ed90612073565b60405180910390fd5b60065f8273ffffffffffffffffffffffffffffffffffffffff1673ffffffffffffffffffffffffffffffffffffffff1681526020019081526020015f205f9054906101000a900460ff1615610980576040517f08c379a0000000000000000000000000000000000000000000000000000000008152600401610977906120db565b60405180910390fd5b600160065f8373ffffffffffffffffffffffffffffffffffffffff1673ffffffffffffffffffffffffffffffffffffffff1681526020019081526020015f205f6101000a81548160ff021916908315150217905550600781908060018154018082558091505060019003905f5260205f20015f9091909190916101000a81548173ffffffffffffffffffffffffffffffffffffffff021916908373ffffffffffffffffffffffffffffffffffffffff1602179055508073ffffffffffffffffffffffffffffffffffffffff167f8983a1f3c3cb45c24c8226b5b805e3b6eb49686530b808534b2a920129eff65160405160405180910390a250565b610a83611970565b60065f8273ffffffffffffffffffffffffffffffffffffffff1673ffffffffffffffffffffffffffffffffffffffff1681526020019081526020015f205f9054906101000a900460ff16610b0c576040517f08c379a0000000000000000000000000000000000000000000000000000000008152600401610b0390612143565b60405180910390fd5b5f60065f8373ffffffffffffffffffffffffffffffffffffffff1673ffffffffffffffffffffffffffffffffffffffff1681526020019081526020015f205f6101000a81548160ff0219169083151502179055505f5f90505b600780549050811015610cdc578173ffffffffffffffffffffffffffffffffffffffff1660078281548110610b9d57610b9c612161565b5b905f5260205f20015f9054906101000a900473ffffffffffffffffffffffffffffffffffffffff1673ffffffffffffffffffffffffffffffffffffffff1603610ccf5760076001600780549050610bf4919061218e565b81548110610c0557610c04612161565b5b905f5260205f20015f9054906101000a900473ffffffffffffffffffffffffffffffffffffffff1660078281548110610c4157610c40612161565b5b905f5260205f20015f6101000a81548173ffffffffffffffffffffffffffffffffffffffff021916908373ffffffffffffffffffffffffffffffffffffffff1602179055506007805480610c9857610c976121c1565b5b600190038181905f5260205f20015f6101000a81549073ffffffffffffffffffffffffffffffffffffffff02191690559055610cdc565b8080600101915050610b65565b508073ffffffffffffffffffffffffffffffffffffffff167f54142b7cb3ceaa9e564243ce4cc2303723c842a1144192de6b3c594f68b16a9a60405160405180910390a250565b610d2b611970565b610d345f6119f7565b565b610d3e611970565b610d46611ab8565b818190508484905014610d8e576040517f08c379a0000000000000000000000000000000000000000000000000000000008152600401610d8590612238565b60405180910390fd5b5f8484905011610dd3576040517f08c379a0000000000000000000000000000000000000000000000000000000008152600401610dca906122a0565b60405180910390fd5b5f5f90505f5f90505b83839050811015610e1b57838382818110610dfa57610df9612161565b5b9050602002013582610e0c9190611b44565b91508080600101915050610ddc565b50806002541015610e61576040517f08c379a0000000000000000000000000000000000000000000000000000000008152600401610e5890612308565b60405180910390fd5b8060025f828254610e72919061218e565b925050819055508060055f828254610e8a9190611b44565b925050819055505f5f90505b85859050811015611115575f73ffffffffffffffffffffffffffffffffffffffff16868683818110610ecb57610eca612161565b5b9050602002016020810190610ee09190612326565b73ffffffffffffffffffffffffffffffffffffffff1603610f36576040517f08c379a0000000000000000000000000000000000000000000000000000000008152600401610f2d9061239b565b60405180910390fd5b5f848483818110610f4a57610f49612161565b5b9050602002013511610f91576040517f08c379a0000000000000000000000000000000000000000000000000000000008152600401610f889061200b565b60405180910390fd5b5f868683818110610fa557610fa4612161565b5b9050602002016020810190610fba9190612326565b73ffffffffffffffffffffffffffffffffffffffff16858584818110610fe357610fe2612161565b5b90506020020135604051610ff6906123e6565b5f6040518083038185875af1925050503d805f8114611030576040519150601f19603f3d011682016040523d82523d5f602084013e611035565b606091505b5050905080611079576040517f08c379a000000000000000000000000000000000000000000000000000000000815260040161107090612444565b60405180910390fd5b86868381811061108c5761108b612161565b5b90506020020160208101906110a19190612326565b73ffffffffffffffffffffffffffffffffffffffff167f69ca02dd4edd7bf0a4abb9ed3b7af3f14778db5d61921c7dc7cd545266326de28686858181106110eb576110ea612161565b5b905060200201356040516110ff9190611b86565b60405180910390a2508080600101915050610e96565b505061111f611afe565b50505050565b5f5f5f9054906101000a900473ffffffffffffffffffffffffffffffffffffffff16905090565b611154611970565b61115c611ab8565b5f73ffffffffffffffffffffffffffffffffffffffff168273ffffffffffffffffffffffffffffffffffffffff16036111ca576040517f08c379a00000000000000000000000000000000000000000000000000000000081526004016111c1906124ac565b60405180910390fd5b5f811161120c576040517f08c379a00000000000000000000000000000000000000000000000000000000081526004016112039061253a565b60405180910390fd5b806002541015611251576040517f08c379a000000000000000000000000000000000000000000000000000000000815260040161124890612308565b60405180910390fd5b8060025f828254611262919061218e565b925050819055508060055f82825461127a9190611b44565b925050819055505f8273ffffffffffffffffffffffffffffffffffffffff16826040516112a6906123e6565b5f6040518083038185875af1925050503d805f81146112e0576040519150601f19603f3d011682016040523d82523d5f602084013e6112e5565b606091505b5050905080611329576040517f08c379a000000000000000000000000000000000000000000000000000000000815260040161132090612444565b60405180910390fd5b8273ffffffffffffffffffffffffffffffffffffffff167f69ca02dd4edd7bf0a4abb9ed3b7af3f14778db5d61921c7dc7cd545266326de28360405161136f9190611b86565b60405180910390a250611380611afe565b5050565b60078181548110611393575f80fd5b905f5260205f20015f915054906101000a900473ffffffffffffffffffffffffffffffffffffffff1681565b60025481565b5f5f5f5f5f600254600354600454600554600780549050945094509450945094509091929394565b6060600780548060200260200160405190810160405280929190818152602001828054801561146e57602002820191905f5260205f20905b815f9054906101000a900473ffffffffffffffffffffffffffffffffffffffff1673ffffffffffffffffffffffffffffffffffffffff1681526020019060010190808311611425575b5050505050905090565b611480611970565b5f34116114c2576040517f08c379a00000000000000000000000000000000000000000000000000000000081526004016114b9906125c8565b60405180910390fd5b3460025f8282546114d39190611b44565b925050819055503373ffffffffffffffffffffffffffffffffffffffff167fe7b3b57577ad57e4de60cc81cd73456448c8cfb13bad2904338c9988b274bbae346040516115209190611b86565b60405180910390a2565b6006602052805f5260405f205f915054906101000a900460ff1681565b61154f611970565b611557611ab8565b5f4790505f811161159d576040517f08c379a000000000000000000000000000000000000000000000000000000000815260040161159490612630565b60405180910390fd5b5f6002819055505f6115ad611125565b73ffffffffffffffffffffffffffffffffffffffff16826040516115d0906123e6565b5f6040518083038185875af1925050503d805f811461160a576040519150601f19603f3d011682016040523d82523d5f602084013e61160f565b606091505b5050905080611653576040517f08c379a000000000000000000000000000000000000000000000000000000000815260040161164a90612698565b60405180910390fd5b61165b611125565b73ffffffffffffffffffffffffffffffffffffffff167f23d6711a1d031134a36921253c75aa59e967d38e369ac625992824315e204f20836040516116a09190611b86565b60405180910390a250506116b2611afe565b565b6116bc611970565b5f73ffffffffffffffffffffffffffffffffffffffff168173ffffffffffffffffffffffffffffffffffffffff160361172c575f6040517f1e4fbdf70000000000000000000000000000000000000000000000000000000081526004016117239190611da2565b60405180910390fd5b611735816119f7565b50565b611740611970565b611748611ab8565b5f73ffffffffffffffffffffffffffffffffffffffff168273ffffffffffffffffffffffffffffffffffffffff16036117b6576040517f08c379a00000000000000000000000000000000000000000000000000000000081526004016117ad906124ac565b60405180910390fd5b5f81116117f8576040517f08c379a00000000000000000000000000000000000000000000000000000000081526004016117ef90612726565b60405180910390fd5b80600254101561183d576040517f08c379a000000000000000000000000000000000000000000000000000000000815260040161183490612308565b60405180910390fd5b8060025f82825461184e919061218e565b925050819055508060045f8282546118669190611b44565b925050819055505f8273ffffffffffffffffffffffffffffffffffffffff1682604051611892906123e6565b5f6040518083038185875af1925050503d805f81146118cc576040519150601f19603f3d011682016040523d82523d5f602084013e6118d1565b606091505b5050905080611915576040517f08c379a000000000000000000000000000000000000000000000000000000000815260040161190c9061278e565b60405180910390fd5b8273ffffffffffffffffffffffffffffffffffffffff167f7fcf532c15f0a6db0bd6d0e038bea71d30d808c7d98cb3bf7268a95bf5081b658360405161195b9190611b86565b60405180910390a25061196c611afe565b5050565b611978611b07565b73ffffffffffffffffffffffffffffffffffffffff16611996611125565b73ffffffffffffffffffffffffffffffffffffffff16146119f5576119b9611b07565b6040517f118cdaa70000000000000000000000000000000000000000000000000000000081526004016119ec9190611da2565b60405180910390fd5b565b5f5f5f9054906101000a900473ffffffffffffffffffffffffffffffffffffffff169050815f5f6101000a81548173ffffffffffffffffffffffffffffffffffffffff021916908373ffffffffffffffffffffffffffffffffffffffff1602179055508173ffffffffffffffffffffffffffffffffffffffff168173ffffffffffffffffffffffffffffffffffffffff167f8be0079c531659141344cd1fd0a4f28419497f9722a3daafe3b4186f6b6457e060405160405180910390a35050565b600260015403611af4576040517f3ee5aeb500000000000000000000000000000000000000000000000000000000815260040160405180910390fd5b6002600181905550565b60018081905550565b5f33905090565b5f819050919050565b7f4e487b71000000000000000000000000000000000000000000000000000000005f52601160045260245ffd5b5f611b4e82611b0e565b9150611b5983611b0e565b9250828201905080821115611b7157611b70611b17565b5b92915050565b611b8081611b0e565b82525050565b5f602082019050611b995f830184611b77565b92915050565b5f5ffd5b5f5ffd5b5f73ffffffffffffffffffffffffffffffffffffffff82169050919050565b5f611bd082611ba7565b9050919050565b611be081611bc6565b8114611bea575f5ffd5b50565b5f81359050611bfb81611bd7565b92915050565b5f60208284031215611c1657611c15611b9f565b5b5f611c2384828501611bed565b91505092915050565b5f8115159050919050565b611c4081611c2c565b82525050565b5f602082019050611c595f830184611c37565b92915050565b5f5ffd5b5f5ffd5b5f5ffd5b5f5f83601f840112611c8057611c7f611c5f565b5b8235905067ffffffffffffffff811115611c9d57611c9c611c63565b5b602083019150836020820283011115611cb957611cb8611c67565b5b9250929050565b5f5f83601f840112611cd557611cd4611c5f565b5b8235905067ffffffffffffffff811115611cf257611cf1611c63565b5b602083019150836020820283011115611d0e57611d0d611c67565b5b9250929050565b5f5f5f5f60408587031215611d2d57611d2c611b9f565b5b5f85013567ffffffffffffffff811115611d4a57611d49611ba3565b5b611d5687828801611c6b565b9450945050602085013567ffffffffffffffff811115611d7957611d78611ba3565b5b611d8587828801611cc0565b925092505092959194509250565b611d9c81611bc6565b82525050565b5f602082019050611db55f830184611d93565b92915050565b5f611dc582611ba7565b9050919050565b611dd581611dbb565b8114611ddf575f5ffd5b50565b5f81359050611df081611dcc565b92915050565b611dff81611b0e565b8114611e09575f5ffd5b50565b5f81359050611e1a81611df6565b92915050565b5f5f60408385031215611e3657611e35611b9f565b5b5f611e4385828601611de2565b9250506020611e5485828601611e0c565b9150509250929050565b5f60208284031215611e7357611e72611b9f565b5b5f611e8084828501611e0c565b91505092915050565b5f60a082019050611e9c5f830188611b77565b611ea96020830187611b77565b611eb66040830186611b77565b611ec36060830185611b77565b611ed06080830184611b77565b9695505050505050565b5f81519050919050565b5f82825260208201905092915050565b5f819050602082019050919050565b611f0c81611bc6565b82525050565b5f611f1d8383611f03565b60208301905092915050565b5f602082019050919050565b5f611f3f82611eda565b611f498185611ee4565b9350611f5483611ef4565b805f5b83811015611f84578151611f6b8882611f12565b9750611f7683611f29565b925050600181019050611f57565b5085935050505092915050565b5f6020820190508181035f830152611fa98184611f35565b905092915050565b5f82825260208201905092915050565b7f416d6f756e74206d7573742062652067726561746572207468616e20300000005f82015250565b5f611ff5601d83611fb1565b915061200082611fc1565b602082019050919050565b5f6020820190508181035f83015261202281611fe9565b9050919050565b7f496e76616c696420636f6e7472616374206164647265737300000000000000005f82015250565b5f61205d601883611fb1565b915061206882612029565b602082019050919050565b5f6020820190508181035f83015261208a81612051565b9050919050565b7f436f6e747261637420616c726561647920617574686f72697a656400000000005f82015250565b5f6120c5601b83611fb1565b91506120d082612091565b602082019050919050565b5f6020820190508181035f8301526120f2816120b9565b9050919050565b7f436f6e7472616374206e6f7420617574686f72697a65640000000000000000005f82015250565b5f61212d601783611fb1565b9150612138826120f9565b602082019050919050565b5f6020820190508181035f83015261215a81612121565b9050919050565b7f4e487b71000000000000000000000000000000000000000000000000000000005f52603260045260245ffd5b5f61219882611b0e565b91506121a383611b0e565b92508282039050818111156121bb576121ba611b17565b5b92915050565b7f4e487b71000000000000000000000000000000000000000000000000000000005f52603160045260245ffd5b7f417272617973206c656e677468206d69736d61746368000000000000000000005f82015250565b5f612222601683611fb1565b915061222d826121ee565b602082019050919050565b5f6020820190508181035f83015261224f81612216565b9050919050565b7f456d7074792061727261797300000000000000000000000000000000000000005f82015250565b5f61228a600c83611fb1565b915061229582612256565b602082019050919050565b5f6020820190508181035f8301526122b78161227e565b9050919050565b7f496e73756666696369656e742062616c616e63650000000000000000000000005f82015250565b5f6122f2601483611fb1565b91506122fd826122be565b602082019050919050565b5f6020820190508181035f83015261231f816122e6565b9050919050565b5f6020828403121561233b5761233a611b9f565b5b5f61234884828501611de2565b91505092915050565b7f496e76616c696420726563697069656e742061646472657373000000000000005f82015250565b5f612385601983611fb1565b915061239082612351565b602082019050919050565b5f6020820190508181035f8301526123b281612379565b9050919050565b5f81905092915050565b50565b5f6123d15f836123b9565b91506123dc826123c3565b5f82019050919050565b5f6123f0826123c6565b9150819050919050565b7f5472616e73666572206661696c656400000000000000000000000000000000005f82015250565b5f61242e600f83611fb1565b9150612439826123fa565b602082019050919050565b5f6020820190508181035f83015261245b81612422565b9050919050565b7f496e76616c69642064657374696e6174696f6e206164647265737300000000005f82015250565b5f612496601b83611fb1565b91506124a182612462565b602082019050919050565b5f6020820190508181035f8301526124c38161248a565b9050919050565b7f5472616e7366657220616d6f756e74206d7573742062652067726561746572205f8201527f7468616e20300000000000000000000000000000000000000000000000000000602082015250565b5f612524602683611fb1565b915061252f826124ca565b604082019050919050565b5f6020820190508181035f83015261255181612518565b9050919050565b7f4465706f73697420616d6f756e74206d757374206265206772656174657220745f8201527f68616e2030000000000000000000000000000000000000000000000000000000602082015250565b5f6125b2602583611fb1565b91506125bd82612558565b604082019050919050565b5f6020820190508181035f8301526125df816125a6565b9050919050565b7f4e6f2066756e647320746f2077697468647261770000000000000000000000005f82015250565b5f61261a601483611fb1565b9150612625826125e6565b602082019050919050565b5f6020820190508181035f8301526126478161260e565b9050919050565b7f456d657267656e6379207769746864726177616c206661696c656400000000005f82015250565b5f612682601b83611fb1565b915061268d8261264e565b602082019050919050565b5f6020820190508181035f8301526126af81612676565b9050919050565b7f5769746864726177616c20616d6f756e74206d757374206265206772656174655f8201527f72207468616e2030000000000000000000000000000000000000000000000000602082015250565b5f612710602883611fb1565b915061271b826126b6565b604082019050919050565b5f6020820190508181035f83015261273d81612704565b9050919050565b7f5769746864726177616c207472616e73666572206661696c65640000000000005f82015250565b5f612778601a83611fb1565b915061278382612744565b602082019050919050565b5f6020820190508181035f8301526127a58161276c565b905091905056fea2646970667358221220f48207704157542635ca178097e76fb519cef484088973e5fb1a34ea14766af064736f6c634300081c0033",
  "linkReferences": {},
  "deployedLinkReferences": {},
  "immutableReferences": {},
  "inputSourceName": "project/contracts/OpenLeague.sol",
  "buildInfoId": "solc-0_8_28-cf97f9beb1a969274bc172a0c1bcb8c53d6b601c"
}