{
  "_format": "hh3-artifact-1",
  "contractName": "OpenLeagueInversionPool",
  "sourceName": "contracts/OpenLeagueInversionPool.sol",
  "abi": [
    {
      "inputs": [
        {
          "internalType": "address",
          "name": "_openLeagueContract",
          "type": "address"
        }
      ],
      "stateMutability": "nonpayable",
      "type": "constructor"
    },
    {
      "inputs": [
        {
          "internalType": "address",
          "name": "owner",
          "type": "address"
        }
      ],
      "name": "OwnableInvalidOwner",
      "type": "error"
    },
    {
      "inputs": [
        {
          "internalType": "address",
          "name": "account",
          "type": "address"
        }
      ],
      "name": "OwnableUnauthorizedAccount",
      "type": "error"
    },
    {
      "inputs": [],
      "name": "ReentrancyGuardReentrantCall",
      "type": "error"
    },
    {
      "anonymous": false,
      "inputs": [
        {
          "indexed": true,
          "internalType": "uint256",
          "name": "couponId",
          "type": "uint256"
        },
        {
          "indexed": true,
          "internalType": "uint256",
          "name": "investmentId",
          "type": "uint256"
        },
        {
          "indexed": true,
          "internalType": "address",
          "name": "player",
          "type": "address"
        },
        {
          "indexed": false,
          "internalType": "uint256",
          "name": "amount",
          "type": "uint256"
        },
        {
          "indexed": false,
          "internalType": "string",
          "name": "purpose",
          "type": "string"
        },
        {
          "indexed": false,
          "internalType": "string",
          "name": "arkaCdnHash",
          "type": "string"
        },
        {
          "indexed": false,
          "internalType": "uint256",
          "name": "expiresAt",
          "type": "uint256"
        }
      ],
      "name": "CouponIssued",
      "type": "event"
    },
    {
      "anonymous": false,
      "inputs": [
        {
          "indexed": true,
          "internalType": "uint256",
          "name": "couponId",
          "type": "uint256"
        },
        {
          "indexed": true,
          "internalType": "address",
          "name": "player",
          "type": "address"
        },
        {
          "indexed": true,
          "internalType": "address",
          "name": "partner",
          "type": "address"
        }
      ],
      "name": "CouponRedeemed",
      "type": "event"
    },
    {
      "anonymous": false,
      "inputs": [
        {
          "indexed": true,
          "internalType": "uint256",
          "name": "investmentId",
          "type": "uint256"
        },
        {
          "indexed": true,
          "internalType": "address",
          "name": "recipient",
          "type": "address"
        },
        {
          "indexed": false,
          "internalType": "uint256",
          "name": "amount",
          "type": "uint256"
        }
      ],
      "name": "DirectDistribution",
      "type": "event"
    },
    {
      "anonymous": false,
      "inputs": [
        {
          "indexed": true,
          "internalType": "address",
          "name": "to",
          "type": "address"
        },
        {
          "indexed": false,
          "internalType": "uint256",
          "name": "amount",
          "type": "uint256"
        }
      ],
      "name": "EmergencyWithdrawal",
      "type": "event"
    },
    {
      "anonymous": false,
      "inputs": [
        {
          "indexed": true,
          "internalType": "uint256",
          "name": "investmentId",
          "type": "uint256"
        },
        {
          "indexed": true,
          "internalType": "address",
          "name": "investor",
          "type": "address"
        },
        {
          "indexed": false,
          "internalType": "uint256",
          "name": "amount",
          "type": "uint256"
        },
        {
          "indexed": false,
          "internalType": "uint256",
          "name": "amountAfterCommission",
          "type": "uint256"
        },
        {
          "indexed": false,
          "internalType": "string",
          "name": "purpose",
          "type": "string"
        },
        {
          "indexed": false,
          "internalType": "address[]",
          "name": "targetPlayers",
          "type": "address[]"
        }
      ],
      "name": "InvestmentReceived",
      "type": "event"
    },
    {
      "anonymous": false,
      "inputs": [
        {
          "indexed": true,
          "internalType": "address",
          "name": "newContract",
          "type": "address"
        }
      ],
      "name": "OpenLeagueContractUpdated",
      "type": "event"
    },
    {
      "anonymous": false,
      "inputs": [
        {
          "indexed": false,
          "internalType": "uint256",
          "name": "amount",
          "type": "uint256"
        }
      ],
      "name": "OpenLeagueDeposit",
      "type": "event"
    },
    {
      "anonymous": false,
      "inputs": [
        {
          "indexed": true,
          "internalType": "address",
          "name": "previousOwner",
          "type": "address"
        },
        {
          "indexed": true,
          "internalType": "address",
          "name": "newOwner",
          "type": "address"
        }
      ],
      "name": "OwnershipTransferred",
      "type": "event"
    },
    {
      "anonymous": false,
      "inputs": [
        {
          "indexed": true,
          "internalType": "address",
          "name": "to",
          "type": "address"
        },
        {
          "indexed": false,
          "internalType": "uint256",
          "name": "amount",
          "type": "uint256"
        }
      ],
      "name": "Withdrawal",
      "type": "event"
    },
    {
      "stateMutability": "payable",
      "type": "fallback"
    },
    {
      "inputs": [],
      "name": "COMMISSION_PERCENTAGE",
      "outputs": [
        {
          "internalType": "uint256",
          "name": "",
          "type": "uint256"
        }
      ],
      "stateMutability": "view",
      "type": "function"
    },
    {
      "inputs": [],
      "name": "COUPON_VALIDITY_DAYS",
      "outputs": [
        {
          "internalType": "uint256",
          "name": "",
          "type": "uint256"
        }
      ],
      "stateMutability": "view",
      "type": "function"
    },
    {
      "inputs": [
        {
          "internalType": "string",
          "name": "",
          "type": "string"
        }
      ],
      "name": "couponHashToId",
      "outputs": [
        {
          "internalType": "uint256",
          "name": "",
          "type": "uint256"
        }
      ],
      "stateMutability": "view",
      "type": "function"
    },
    {
      "inputs": [
        {
          "internalType": "uint256",
          "name": "",
          "type": "uint256"
        }
      ],
      "name": "coupons",
      "outputs": [
        {
          "internalType": "uint256",
          "name": "investmentId",
          "type": "uint256"
        },
        {
          "internalType": "address",
          "name": "player",
          "type": "address"
        },
        {
          "internalType": "uint256",
          "name": "amount",
          "type": "uint256"
        },
        {
          "internalType": "string",
          "name": "purpose",
          "type": "string"
        },
        {
          "internalType": "uint256",
          "name": "createdAt",
          "type": "uint256"
        },
        {
          "internalType": "uint256",
          "name": "expiresAt",
          "type": "uint256"
        },
        {
          "internalType": "bool",
          "name": "redeemed",
          "type": "bool"
        },
        {
          "internalType": "string",
          "name": "arkaCdnHash",
          "type": "string"
        }
      ],
      "stateMutability": "view",
      "type": "function"
    },
    {
      "inputs": [
        {
          "internalType": "uint256",
          "name": "investmentId",
          "type": "uint256"
        },
        {
          "internalType": "address payable",
          "name": "recipient",
          "type": "address"
        },
        {
          "internalType": "uint256",
          "name": "amount",
          "type": "uint256"
        }
      ],
      "name": "directDistribution",
      "outputs": [],
      "stateMutability": "nonpayable",
      "type": "function"
    },
    {
      "inputs": [],
      "name": "emergencyWithdraw",
      "outputs": [],
      "stateMutability": "nonpayable",
      "type": "function"
    },
    {
      "inputs": [],
      "name": "getContractBalance",
      "outputs": [
        {
          "internalType": "uint256",
          "name": "",
          "type": "uint256"
        }
      ],
      "stateMutability": "view",
      "type": "function"
    },
    {
      "inputs": [
        {
          "internalType": "uint256",
          "name": "couponId",
          "type": "uint256"
        }
      ],
      "name": "getCoupon",
      "outputs": [
        {
          "internalType": "uint256",
          "name": "investmentId",
          "type": "uint256"
        },
        {
          "internalType": "address",
          "name": "player",
          "type": "address"
        },
        {
          "internalType": "uint256",
          "name": "amount",
          "type": "uint256"
        },
        {
          "internalType": "string",
          "name": "purpose",
          "type": "string"
        },
        {
          "internalType": "uint256",
          "name": "createdAt",
          "type": "uint256"
        },
        {
          "internalType": "uint256",
          "name": "expiresAt",
          "type": "uint256"
        },
        {
          "internalType": "bool",
          "name": "redeemed",
          "type": "bool"
        },
        {
          "internalType": "string",
          "name": "arkaCdnHash",
          "type": "string"
        }
      ],
      "stateMutability": "view",
      "type": "function"
    },
    {
      "inputs": [
        {
          "internalType": "string",
          "name": "arkaCdnHash",
          "type": "string"
        }
      ],
      "name": "getCouponByHash",
      "outputs": [
        {
          "internalType": "uint256",
          "name": "",
          "type": "uint256"
        }
      ],
      "stateMutability": "view",
      "type": "function"
    },
    {
      "inputs": [
        {
          "internalType": "uint256",
          "name": "investmentId",
          "type": "uint256"
        }
      ],
      "name": "getInvestment",
      "outputs": [
        {
          "internalType": "address",
          "name": "investor",
          "type": "address"
        },
        {
          "internalType": "uint256",
          "name": "amount",
          "type": "uint256"
        },
        {
          "internalType": "uint256",
          "name": "amountAfterCommission",
          "type": "uint256"
        },
        {
          "internalType": "string",
          "name": "purpose",
          "type": "string"
        },
        {
          "internalType": "address[]",
          "name": "targetPlayers",
          "type": "address[]"
        },
        {
          "internalType": "uint256",
          "name": "timestamp",
          "type": "uint256"
        },
        {
          "internalType": "bool",
          "name": "distributed",
          "type": "bool"
        }
      ],
      "stateMutability": "view",
      "type": "function"
    },
    {
      "inputs": [
        {
          "internalType": "address",
          "name": "investor",
          "type": "address"
        }
      ],
      "name": "getInvestorInvestments",
      "outputs": [
        {
          "internalType": "uint256[]",
          "name": "",
          "type": "uint256[]"
        }
      ],
      "stateMutability": "view",
      "type": "function"
    },
    {
      "inputs": [
        {
          "internalType": "address",
          "name": "player",
          "type": "address"
        }
      ],
      "name": "getPlayerCoupons",
      "outputs": [
        {
          "internalType": "uint256[]",
          "name": "",
          "type": "uint256[]"
        }
      ],
      "stateMutability": "view",
      "type": "function"
    },
    {
      "inputs": [],
      "name": "getTotalCoupons",
      "outputs": [
        {
          "internalType": "uint256",
          "name": "",
          "type": "uint256"
        }
      ],
      "stateMutability": "view",
      "type": "function"
    },
    {
      "inputs": [],
      "name": "getTotalInvestments",
      "outputs": [
        {
          "internalType": "uint256",
          "name": "",
          "type": "uint256"
        }
      ],
      "stateMutability": "view",
      "type": "function"
    },
    {
      "inputs": [
        {
          "internalType": "uint256",
          "name": "",
          "type": "uint256"
        }
      ],
      "name": "investments",
      "outputs": [
        {
          "internalType": "address",
          "name": "investor",
          "type": "address"
        },
        {
          "internalType": "uint256",
          "name": "amount",
          "type": "uint256"
        },
        {
          "internalType": "uint256",
          "name": "amountAfterCommission",
          "type": "uint256"
        },
        {
          "internalType": "string",
          "name": "purpose",
          "type": "string"
        },
        {
          "internalType": "uint256",
          "name": "timestamp",
          "type": "uint256"
        },
        {
          "internalType": "bool",
          "name": "distributed",
          "type": "bool"
        }
      ],
      "stateMutability": "view",
      "type": "function"
    },
    {
      "inputs": [
        {
          "internalType": "string",
          "name": "purpose",
          "type": "string"
        },
        {
          "internalType": "address[]",
          "name": "targetPlayers",
          "type": "address[]"
        }
      ],
      "name": "investorDeposit",
      "outputs": [],
      "stateMutability": "payable",
      "type": "function"
    },
    {
      "inputs": [
        {
          "internalType": "address",
          "name": "",
          "type": "address"
        },
        {
          "internalType": "uint256",
          "name": "",
          "type": "uint256"
        }
      ],
      "name": "investorInvestments",
      "outputs": [
        {
          "internalType": "uint256",
          "name": "",
          "type": "uint256"
        }
      ],
      "stateMutability": "view",
      "type": "function"
    },
    {
      "inputs": [
        {
          "internalType": "uint256",
          "name": "investmentId",
          "type": "uint256"
        },
        {
          "internalType": "address",
          "name": "player",
          "type": "address"
        },
        {
          "internalType": "uint256",
          "name": "amount",
          "type": "uint256"
        },
        {
          "internalType": "string",
          "name": "arkaCdnHash",
          "type": "string"
        }
      ],
      "name": "issueCoupon",
      "outputs": [],
      "stateMutability": "nonpayable",
      "type": "function"
    },
    {
      "inputs": [
        {
          "internalType": "uint256",
          "name": "investmentId",
          "type": "uint256"
        }
      ],
      "name": "markInvestmentAsDistributed",
      "outputs": [],
      "stateMutability": "nonpayable",
      "type": "function"
    },
    {
      "inputs": [],
      "name": "openLeagueContract",
      "outputs": [
        {
          "internalType": "address",
          "name": "",
          "type": "address"
        }
      ],
      "stateMutability": "view",
      "type": "function"
    },
    {
      "inputs": [],
      "name": "openLeagueDeposit",
      "outputs": [],
      "stateMutability": "payable",
      "type": "function"
    },
    {
      "inputs": [],
      "name": "owner",
      "outputs": [
        {
          "internalType": "address",
          "name": "",
          "type": "address"
        }
      ],
      "stateMutability": "view",
      "type": "function"
    },
    {
      "inputs": [
        {
          "internalType": "address",
          "name": "",
          "type": "address"
        },
        {
          "internalType": "uint256",
          "name": "",
          "type": "uint256"
        }
      ],
      "name": "playerCoupons",
      "outputs": [
        {
          "internalType": "uint256",
          "name": "",
          "type": "uint256"
        }
      ],
      "stateMutability": "view",
      "type": "function"
    },
    {
      "inputs": [
        {
          "internalType": "uint256",
          "name": "couponId",
          "type": "uint256"
        },
        {
          "internalType": "address payable",
          "name": "partner",
          "type": "address"
        }
      ],
      "name": "redeemCoupon",
      "outputs": [],
      "stateMutability": "nonpayable",
      "type": "function"
    },
    {
      "inputs": [],
      "name": "renounceOwnership",
      "outputs": [],
      "stateMutability": "nonpayable",
      "type": "function"
    },
    {
      "inputs": [],
      "name": "totalCommissionsPaid",
      "outputs": [
        {
          "internalType": "uint256",
          "name": "",
          "type": "uint256"
        }
      ],
      "stateMutability": "view",
      "type": "function"
    },
    {
      "inputs": [],
      "name": "totalDistributed",
      "outputs": [
        {
          "internalType": "uint256",
          "name": "",
          "type": "uint256"
        }
      ],
      "stateMutability": "view",
      "type": "function"
    },
    {
      "inputs": [],
      "name": "totalInvestorContributions",
      "outputs": [
        {
          "internalType": "uint256",
          "name": "",
          "type": "uint256"
        }
      ],
      "stateMutability": "view",
      "type": "function"
    },
    {
      "inputs": [],
      "name": "totalPoolBalance",
      "outputs": [
        {
          "internalType": "uint256",
          "name": "",
          "type": "uint256"
        }
      ],
      "stateMutability": "view",
      "type": "function"
    },
    {
      "inputs": [
        {
          "internalType": "address payable",
          "name": "to",
          "type": "address"
        },
        {
          "internalType": "uint256",
          "name": "amount",
          "type": "uint256"
        }
      ],
      "name": "transferFunds",
      "outputs": [],
      "stateMutability": "nonpayable",
      "type": "function"
    },
    {
      "inputs": [
        {
          "internalType": "address",
          "name": "newOwner",
          "type": "address"
        }
      ],
      "name": "transferOwnership",
      "outputs": [],
      "stateMutability": "nonpayable",
      "type": "function"
    },
    {
      "inputs": [
        {
          "internalType": "address",
          "name": "_newContract",
          "type": "address"
        }
      ],
      "name": "updateOpenLeagueContract",
      "outputs": [],
      "stateMutability": "nonpayable",
      "type": "function"
    },
    {
      "inputs": [
        {
          "internalType": "address payable",
          "name": "to",
          "type": "address"
        },
        {
          "internalType": "uint256",
          "name": "amount",
          "type": "uint256"
        }
      ],
      "name": "withdraw",
      "outputs": [],
      "stateMutability": "nonpayable",
      "type": "function"
    },
    {
      "stateMutability": "payable",
      "type": "receive"
    }
  ],
  "bytecode": "0x608060405234801561000f575f5ffd5b50604051614d8c380380614d8c8339818101604052810190610031919061028c565b335f73ffffffffffffffffffffffffffffffffffffffff168173ffffffffffffffffffffffffffffffffffffffff16036100a2575f6040517f1e4fbdf700000000000000000000000000000000000000000000000000000000815260040161009991906102c6565b60405180910390fd5b6100b18161016d60201b60201c565b50600180819055505f73ffffffffffffffffffffffffffffffffffffffff168173ffffffffffffffffffffffffffffffffffffffff1603610127576040517f08c379a000000000000000000000000000000000000000000000000000000000815260040161011e9061035f565b60405180910390fd5b8060025f6101000a81548173ffffffffffffffffffffffffffffffffffffffff021916908373ffffffffffffffffffffffffffffffffffffffff1602179055505061037d565b5f5f5f9054906101000a900473ffffffffffffffffffffffffffffffffffffffff169050815f5f6101000a81548173ffffffffffffffffffffffffffffffffffffffff021916908373ffffffffffffffffffffffffffffffffffffffff1602179055508173ffffffffffffffffffffffffffffffffffffffff168173ffffffffffffffffffffffffffffffffffffffff167f8be0079c531659141344cd1fd0a4f28419497f9722a3daafe3b4186f6b6457e060405160405180910390a35050565b5f5ffd5b5f73ffffffffffffffffffffffffffffffffffffffff82169050919050565b5f61025b82610232565b9050919050565b61026b81610251565b8114610275575f5ffd5b50565b5f8151905061028681610262565b92915050565b5f602082840312156102a1576102a061022e565b5b5f6102ae84828501610278565b91505092915050565b6102c081610251565b82525050565b5f6020820190506102d95f8301846102b7565b92915050565b5f82825260208201905092915050565b7f496e76616c6964204f70656e204c656167756520636f6e7472616374206164645f8201527f7265737300000000000000000000000000000000000000000000000000000000602082015250565b5f6103496024836102df565b9150610354826102ef565b604082019050919050565b5f6020820190508181035f8301526103768161033d565b9050919050565b614a028061038a5f395ff3fe6080604052600436106101f1575f3560e01c8063936e31691161010c578063e18099a81161009f578063f2fde38b1161006e578063f2fde38b1461085c578063f365423c14610884578063f3fef3a3146108c0578063f9a026aa146108e8578063fd345c8a14610912576102bc565b8063e18099a8146107a6578063eef90b62146107ce578063efca2eed1461080a578063f2db853814610834576102bc565b8063ba95a30a116100db578063ba95a30a14610716578063c6d83fcf1461073e578063d78cd17d14610768578063db2e21bc14610790576102bc565b8063936e316914610665578063959a469d146106a8578063990dc9db146106d2578063ad02f45b146106fa576102bc565b80634ddd1aa111610184578063715018a611610153578063715018a6146105bf57806373670e45146105d55780637b65ee3f146105ff5780638da5cb5b1461063b576102bc565b80634ddd1aa1146105175780635026d63e146105415780635a4961b51461056b5780636f9fb98a14610595576102bc565b806322ae634f116101c057806322ae634f1461044c57806330828e921461048e5780633fd3dd39146104d15780634c431f00146104db576102bc565b806302c579221461038257806308dfdd1c146103be5780631bf1de9b146103fa5780631dc8d99914610424576102bc565b366102bc576101fe610953565b73ffffffffffffffffffffffffffffffffffffffff163373ffffffffffffffffffffffffffffffffffffffff161461026b576040517f08c379a000000000000000000000000000000000000000000000000000000000815260040161026290612ef1565b60405180910390fd5b3460085f82825461027c9190612f45565b925050819055507f09d8c8990366c8d0777e447a8a9407951ccda1637409250b1cff0311af737562346040516102b29190612f87565b60405180910390a1005b6102c4610953565b73ffffffffffffffffffffffffffffffffffffffff163373ffffffffffffffffffffffffffffffffffffffff1614610331576040517f08c379a000000000000000000000000000000000000000000000000000000000815260040161032890612ef1565b60405180910390fd5b3460085f8282546103429190612f45565b925050819055507f09d8c8990366c8d0777e447a8a9407951ccda1637409250b1cff0311af737562346040516103789190612f87565b60405180910390a1005b34801561038d575f5ffd5b506103a860048036038101906103a391906130ed565b61097a565b6040516103b59190612f87565b60405180910390f35b3480156103c9575f5ffd5b506103e460048036038101906103df91906130ed565b6109a7565b6040516103f19190612f87565b60405180910390f35b348015610405575f5ffd5b5061040e610a21565b60405161041b9190612f87565b60405180910390f35b34801561042f575f5ffd5b5061044a600480360381019061044591906131b8565b610a26565b005b348015610457575f5ffd5b50610472600480360381019061046d9190613238565b611057565b6040516104859796959493929190613393565b60405180910390f35b348015610499575f5ffd5b506104b460048036038101906104af9190613238565b6112b7565b6040516104c898979695949392919061340e565b60405180910390f35b6104d9611441565b005b3480156104e6575f5ffd5b5061050160048036038101906104fc9190613498565b6114dc565b60405161050e919061357a565b60405180910390f35b348015610522575f5ffd5b5061052b61156f565b6040516105389190612f87565b60405180910390f35b34801561054c575f5ffd5b5061055561157b565b6040516105629190612f87565b60405180910390f35b348015610576575f5ffd5b5061057f611581565b60405161058c9190612f87565b60405180910390f35b3480156105a0575f5ffd5b506105a9611586565b6040516105b69190612f87565b60405180910390f35b3480156105ca575f5ffd5b506105d361158d565b005b3480156105e0575f5ffd5b506105e96115a0565b6040516105f6919061359a565b60405180910390f35b34801561060a575f5ffd5b5061062560048036038101906106209190613498565b6115c5565b604051610632919061357a565b60405180910390f35b348015610646575f5ffd5b5061064f610953565b60405161065c919061359a565b60405180910390f35b348015610670575f5ffd5b5061068b60048036038101906106869190613238565b611658565b60405161069f98979695949392919061340e565b60405180910390f35b3480156106b3575f5ffd5b506106bc6118d1565b6040516106c99190612f87565b60405180910390f35b3480156106dd575f5ffd5b506106f860048036038101906106f391906135ee565b6118d7565b005b610714600480360381019061070f91906136f0565b611af7565b005b348015610721575f5ffd5b5061073c60048036038101906107379190613766565b611f0c565b005b348015610749575f5ffd5b50610752612202565b60405161075f9190612f87565b60405180910390f35b348015610773575f5ffd5b5061078e60048036038101906107899190613238565b612208565b005b34801561079b575f5ffd5b506107a4612295565b005b3480156107b1575f5ffd5b506107cc60048036038101906107c791906137b6565b612402565b005b3480156107d9575f5ffd5b506107f460048036038101906107ef91906137f4565b612757565b6040516108019190612f87565b60405180910390f35b348015610815575f5ffd5b5061081e612782565b60405161082b9190612f87565b60405180910390f35b34801561083f575f5ffd5b5061085a60048036038101906108559190613498565b612788565b005b348015610867575f5ffd5b50610882600480360381019061087d9190613498565b612884565b005b34801561088f575f5ffd5b506108aa60048036038101906108a591906137f4565b612908565b6040516108b79190612f87565b60405180910390f35b3480156108cb575f5ffd5b506108e660048036038101906108e191906135ee565b612933565b005b3480156108f3575f5ffd5b506108fc612b53565b6040516109099190612f87565b60405180910390f35b34801561091d575f5ffd5b5061093860048036038101906109339190613238565b612b5f565b60405161094a96959493929190613832565b60405180910390f35b5f5f5f9054906101000a900473ffffffffffffffffffffffffffffffffffffffff16905090565b6007818051602081018201805184825260208301602085012081835280955050505050505f915090505481565b5f5f6007836040516109b991906138d2565b90815260200160405180910390205490505f8111610a0c576040517f08c379a0000000000000000000000000000000000000000000000000000000008152600401610a0390613932565b60405180910390fd5b600181610a199190613950565b915050919050565b600381565b610a2e612c57565b610a36612cde565b6003805490508410610a7d576040517f08c379a0000000000000000000000000000000000000000000000000000000008152600401610a74906139cd565b60405180910390fd5b5f73ffffffffffffffffffffffffffffffffffffffff168373ffffffffffffffffffffffffffffffffffffffff1603610aeb576040517f08c379a0000000000000000000000000000000000000000000000000000000008152600401610ae290613a35565b60405180910390fd5b5f8211610b2d576040517f08c379a0000000000000000000000000000000000000000000000000000000008152600401610b2490613a9d565b60405180910390fd5b5f815111610b70576040517f08c379a0000000000000000000000000000000000000000000000000000000008152600401610b6790613b05565b60405180910390fd5b5f600782604051610b8191906138d2565b90815260200160405180910390205414610bd0576040517f08c379a0000000000000000000000000000000000000000000000000000000008152600401610bc790613b6d565b60405180910390fd5b5f60038581548110610be557610be4613b8b565b5b905f5260205f2090600702019050806006015f9054906101000a900460ff1615610c44576040517f08c379a0000000000000000000000000000000000000000000000000000000008152600401610c3b90613c02565b60405180910390fd5b5f5f90505f5f90505b8260040180549050811015610ce2578573ffffffffffffffffffffffffffffffffffffffff16836004018281548110610c8957610c88613b8b565b5b905f5260205f20015f9054906101000a900473ffffffffffffffffffffffffffffffffffffffff1673ffffffffffffffffffffffffffffffffffffffff1603610cd55760019150610ce2565b8080600101915050610c4d565b5080610d23576040517f08c379a0000000000000000000000000000000000000000000000000000000008152600401610d1a90613c90565b60405180910390fd5b836008541015610d68576040517f08c379a0000000000000000000000000000000000000000000000000000000008152600401610d5f90613cf8565b60405180910390fd5b5f6040518061010001604052808881526020018773ffffffffffffffffffffffffffffffffffffffff168152602001868152602001846003018054610dac90613d43565b80601f0160208091040260200160405190810160405280929190818152602001828054610dd890613d43565b8015610e235780601f10610dfa57610100808354040283529160200191610e23565b820191905f5260205f20905b815481529060010190602001808311610e0657829003601f168201915b5050505050815260200142815260200162015180601e610e439190613d73565b42610e4e9190612f45565b81526020015f15158152602001858152509050600581908060018154018082558091505060019003905f5260205f2090600802015f909190919091505f820151815f01556020820151816001015f6101000a81548173ffffffffffffffffffffffffffffffffffffffff021916908373ffffffffffffffffffffffffffffffffffffffff160217905550604082015181600201556060820151816003019081610ef79190613f54565b506080820151816004015560a0820151816005015560c0820151816006015f6101000a81548160ff02191690831515021790555060e0820151816007019081610f409190613f54565b5050505f6001600580549050610f569190613950565b905060065f8873ffffffffffffffffffffffffffffffffffffffff1673ffffffffffffffffffffffffffffffffffffffff1681526020019081526020015f2081908060018154018082558091505060019003905f5260205f20015f9091909190915055600181610fc69190612f45565b600786604051610fd691906138d2565b9081526020016040518091039020819055508673ffffffffffffffffffffffffffffffffffffffff1688827f46f1ff0d466a2d4aac01eafd89fbdf918d646d3f2c01aaf430be881d68b7500a89886003018a8860a0015160405161103d94939291906140a4565b60405180910390a450505050611051612d24565b50505050565b5f5f5f6060805f5f60038054905088106110a6576040517f08c379a000000000000000000000000000000000000000000000000000000000815260040161109d906139cd565b60405180910390fd5b5f600389815481106110bb576110ba613b8b565b5b905f5260205f2090600702016040518060e00160405290815f82015f9054906101000a900473ffffffffffffffffffffffffffffffffffffffff1673ffffffffffffffffffffffffffffffffffffffff1673ffffffffffffffffffffffffffffffffffffffff168152602001600182015481526020016002820154815260200160038201805461114a90613d43565b80601f016020809104026020016040519081016040528092919081815260200182805461117690613d43565b80156111c15780601f10611198576101008083540402835291602001916111c1565b820191905f5260205f20905b8154815290600101906020018083116111a457829003601f168201915b505050505081526020016004820180548060200260200160405190810160405280929190818152602001828054801561124c57602002820191905f5260205f20905b815f9054906101000a900473ffffffffffffffffffffffffffffffffffffffff1673ffffffffffffffffffffffffffffffffffffffff1681526020019060010190808311611203575b5050505050815260200160058201548152602001600682015f9054906101000a900460ff1615151515815250509050805f015181602001518260400151836060015184608001518560a001518660c00151975097509750975097509750975050919395979092949650565b600581815481106112c6575f80fd5b905f5260205f2090600802015f91509050805f015490806001015f9054906101000a900473ffffffffffffffffffffffffffffffffffffffff169080600201549080600301805461131690613d43565b80601f016020809104026020016040519081016040528092919081815260200182805461134290613d43565b801561138d5780601f106113645761010080835404028352916020019161138d565b820191905f5260205f20905b81548152906001019060200180831161137057829003601f168201915b505050505090806004015490806005015490806006015f9054906101000a900460ff16908060070180546113c090613d43565b80601f01602080910402602001604051908101604052809291908181526020018280546113ec90613d43565b80156114375780601f1061140e57610100808354040283529160200191611437565b820191905f5260205f20905b81548152906001019060200180831161141a57829003601f168201915b5050505050905088565b611449612c57565b5f341161148b576040517f08c379a000000000000000000000000000000000000000000000000000000000815260040161148290614165565b60405180910390fd5b3460085f82825461149c9190612f45565b925050819055507f09d8c8990366c8d0777e447a8a9407951ccda1637409250b1cff0311af737562346040516114d29190612f87565b60405180910390a1565b606060045f8373ffffffffffffffffffffffffffffffffffffffff1673ffffffffffffffffffffffffffffffffffffffff1681526020019081526020015f2080548060200260200160405190810160405280929190818152602001828054801561156357602002820191905f5260205f20905b81548152602001906001019080831161154f575b50505050509050919050565b5f600580549050905090565b60085481565b601e81565b5f47905090565b611595612c57565b61159e5f612d2d565b565b60025f9054906101000a900473ffffffffffffffffffffffffffffffffffffffff1681565b606060065f8373ffffffffffffffffffffffffffffffffffffffff1673ffffffffffffffffffffffffffffffffffffffff1681526020019081526020015f2080548060200260200160405190810160405280929190818152602001828054801561164c57602002820191905f5260205f20905b815481526020019060010190808311611638575b50505050509050919050565b5f5f5f60605f5f5f606060058054905089106116a9576040517f08c379a00000000000000000000000000000000000000000000000000000000081526004016116a0906141cd565b60405180910390fd5b5f60058a815481106116be576116bd613b8b565b5b905f5260205f209060080201604051806101000160405290815f8201548152602001600182015f9054906101000a900473ffffffffffffffffffffffffffffffffffffffff1673ffffffffffffffffffffffffffffffffffffffff1673ffffffffffffffffffffffffffffffffffffffff1681526020016002820154815260200160038201805461174e90613d43565b80601f016020809104026020016040519081016040528092919081815260200182805461177a90613d43565b80156117c55780601f1061179c576101008083540402835291602001916117c5565b820191905f5260205f20905b8154815290600101906020018083116117a857829003601f168201915b505050505081526020016004820154815260200160058201548152602001600682015f9054906101000a900460ff1615151515815260200160078201805461180c90613d43565b80601f016020809104026020016040519081016040528092919081815260200182805461183890613d43565b80156118835780601f1061185a57610100808354040283529160200191611883565b820191905f5260205f20905b81548152906001019060200180831161186657829003601f168201915b5050505050815250509050805f015181602001518260400151836060015184608001518560a001518660c001518760e001519850985098509850985098509850985050919395975091939597565b60095481565b6118df612c57565b6118e7612cde565b5f73ffffffffffffffffffffffffffffffffffffffff168273ffffffffffffffffffffffffffffffffffffffff1603611955576040517f08c379a000000000000000000000000000000000000000000000000000000000815260040161194c90614235565b60405180910390fd5b5f8111611997576040517f08c379a000000000000000000000000000000000000000000000000000000000815260040161198e906142c3565b60405180910390fd5b8060085410156119dc576040517f08c379a00000000000000000000000000000000000000000000000000000000081526004016119d390613cf8565b60405180910390fd5b8060085f8282546119ed9190613950565b925050819055505f8273ffffffffffffffffffffffffffffffffffffffff1682604051611a199061430e565b5f6040518083038185875af1925050503d805f8114611a53576040519150601f19603f3d011682016040523d82523d5f602084013e611a58565b606091505b5050905080611a9c576040517f08c379a0000000000000000000000000000000000000000000000000000000008152600401611a939061436c565b60405180910390fd5b8273ffffffffffffffffffffffffffffffffffffffff167f7fcf532c15f0a6db0bd6d0e038bea71d30d808c7d98cb3bf7268a95bf5081b6583604051611ae29190612f87565b60405180910390a250611af3612d24565b5050565b611aff612cde565b5f3411611b41576040517f08c379a0000000000000000000000000000000000000000000000000000000008152600401611b3890614165565b60405180910390fd5b5f825111611b84576040517f08c379a0000000000000000000000000000000000000000000000000000000008152600401611b7b906143d4565b60405180910390fd5b5f815111611bc7576040517f08c379a0000000000000000000000000000000000000000000000000000000008152600401611bbe90614462565b60405180910390fd5b5f6064600334611bd79190613d73565b611be191906144ad565b90505f8134611bf09190613950565b90505f60025f9054906101000a900473ffffffffffffffffffffffffffffffffffffffff1673ffffffffffffffffffffffffffffffffffffffff1683604051611c389061430e565b5f6040518083038185875af1925050503d805f8114611c72576040519150601f19603f3d011682016040523d82523d5f602084013e611c77565b606091505b5050905080611cbb576040517f08c379a0000000000000000000000000000000000000000000000000000000008152600401611cb290614527565b60405180910390fd5b5f6040518060e001604052803373ffffffffffffffffffffffffffffffffffffffff1681526020013481526020018481526020018781526020018681526020014281526020015f15158152509050600381908060018154018082558091505060019003905f5260205f2090600702015f909190919091505f820151815f015f6101000a81548173ffffffffffffffffffffffffffffffffffffffff021916908373ffffffffffffffffffffffffffffffffffffffff16021790555060208201518160010155604082015181600201556060820151816003019081611d9f9190613f54565b506080820151816004019080519060200190611dbc929190612df5565b5060a0820151816005015560c0820151816006015f6101000a81548160ff02191690831515021790555050505f6001600380549050611dfb9190613950565b905060045f3373ffffffffffffffffffffffffffffffffffffffff1673ffffffffffffffffffffffffffffffffffffffff1681526020019081526020015f2081908060018154018082558091505060019003905f5260205f20015f90919091909150558360085f828254611e6f9190612f45565b925050819055503460095f828254611e879190612f45565b9250508190555084600a5f828254611e9f9190612f45565b925050819055503373ffffffffffffffffffffffffffffffffffffffff16817fbc106f05260392076422a37cbd6b67632aafbd1911dcc9211ca37ff093e8e1de34878b8b604051611ef39493929190614545565b60405180910390a35050505050611f08612d24565b5050565b611f14612c57565b611f1c612cde565b6003805490508310611f63576040517f08c379a0000000000000000000000000000000000000000000000000000000008152600401611f5a906139cd565b60405180910390fd5b5f73ffffffffffffffffffffffffffffffffffffffff168273ffffffffffffffffffffffffffffffffffffffff1603611fd1576040517f08c379a0000000000000000000000000000000000000000000000000000000008152600401611fc8906145e0565b60405180910390fd5b5f8111612013576040517f08c379a000000000000000000000000000000000000000000000000000000000815260040161200a90613a9d565b60405180910390fd5b806008541015612058576040517f08c379a000000000000000000000000000000000000000000000000000000000815260040161204f90613cf8565b60405180910390fd5b5f6003848154811061206d5761206c613b8b565b5b905f5260205f2090600702019050806006015f9054906101000a900460ff16156120cc576040517f08c379a00000000000000000000000000000000000000000000000000000000081526004016120c390613c02565b60405180910390fd5b8160085f8282546120dd9190613950565b9250508190555081600b5f8282546120f59190612f45565b925050819055505f8373ffffffffffffffffffffffffffffffffffffffff16836040516121219061430e565b5f6040518083038185875af1925050503d805f811461215b576040519150601f19603f3d011682016040523d82523d5f602084013e612160565b606091505b50509050806121a4576040517f08c379a000000000000000000000000000000000000000000000000000000000815260040161219b9061436c565b60405180910390fd5b8373ffffffffffffffffffffffffffffffffffffffff16857f057b6ff3dc3e66741a5d27756bb88779102e314f1076c68c45c2489dae329b35856040516121eb9190612f87565b60405180910390a350506121fd612d24565b505050565b600a5481565b612210612c57565b6003805490508110612257576040517f08c379a000000000000000000000000000000000000000000000000000000000815260040161224e906139cd565b60405180910390fd5b60016003828154811061226d5761226c613b8b565b5b905f5260205f2090600702016006015f6101000a81548160ff02191690831515021790555050565b61229d612c57565b6122a5612cde565b5f4790505f81116122eb576040517f08c379a00000000000000000000000000000000000000000000000000000000081526004016122e290614648565b60405180910390fd5b5f6008819055505f6122fb610953565b73ffffffffffffffffffffffffffffffffffffffff168260405161231e9061430e565b5f6040518083038185875af1925050503d805f8114612358576040519150601f19603f3d011682016040523d82523d5f602084013e61235d565b606091505b50509050806123a1576040517f08c379a0000000000000000000000000000000000000000000000000000000008152600401612398906146b0565b60405180910390fd5b6123a9610953565b73ffffffffffffffffffffffffffffffffffffffff167f23d6711a1d031134a36921253c75aa59e967d38e369ac625992824315e204f20836040516123ee9190612f87565b60405180910390a25050612400612d24565b565b61240a612c57565b612412612cde565b6005805490508210612459576040517f08c379a0000000000000000000000000000000000000000000000000000000008152600401612450906141cd565b60405180910390fd5b5f73ffffffffffffffffffffffffffffffffffffffff168173ffffffffffffffffffffffffffffffffffffffff16036124c7576040517f08c379a00000000000000000000000000000000000000000000000000000000081526004016124be90614718565b60405180910390fd5b5f600583815481106124dc576124db613b8b565b5b905f5260205f2090600802019050806006015f9054906101000a900460ff161561253b576040517f08c379a000000000000000000000000000000000000000000000000000000000815260040161253290614780565b60405180910390fd5b8060050154421115612582576040517f08c379a0000000000000000000000000000000000000000000000000000000008152600401612579906147e8565b60405180910390fd5b806002015460085410156125cb576040517f08c379a00000000000000000000000000000000000000000000000000000000081526004016125c290613cf8565b60405180910390fd5b6001816006015f6101000a81548160ff021916908315150217905550806002015460085f8282546125fc9190613950565b925050819055508060020154600b5f8282546126189190612f45565b925050819055505f8273ffffffffffffffffffffffffffffffffffffffff1682600201546040516126489061430e565b5f6040518083038185875af1925050503d805f8114612682576040519150601f19603f3d011682016040523d82523d5f602084013e612687565b606091505b50509050806126cb576040517f08c379a00000000000000000000000000000000000000000000000000000000081526004016126c290614850565b60405180910390fd5b8273ffffffffffffffffffffffffffffffffffffffff16826001015f9054906101000a900473ffffffffffffffffffffffffffffffffffffffff1673ffffffffffffffffffffffffffffffffffffffff16857fab802fc016628db46010e3603dd25b4cb8df2fe75e6487eeddd03d82b8952b1060405160405180910390a45050612753612d24565b5050565b6004602052815f5260405f208181548110612770575f80fd5b905f5260205f20015f91509150505481565b600b5481565b612790612c57565b5f73ffffffffffffffffffffffffffffffffffffffff168173ffffffffffffffffffffffffffffffffffffffff16036127fe576040517f08c379a00000000000000000000000000000000000000000000000000000000081526004016127f5906148b8565b60405180910390fd5b8060025f6101000a81548173ffffffffffffffffffffffffffffffffffffffff021916908373ffffffffffffffffffffffffffffffffffffffff1602179055508073ffffffffffffffffffffffffffffffffffffffff167fb625f0db29320b3a07ae0dda5342bdc2dc4f4055c2d74506be9d81adfe71fbb960405160405180910390a250565b61288c612c57565b5f73ffffffffffffffffffffffffffffffffffffffff168173ffffffffffffffffffffffffffffffffffffffff16036128fc575f6040517f1e4fbdf70000000000000000000000000000000000000000000000000000000081526004016128f3919061359a565b60405180910390fd5b61290581612d2d565b50565b6006602052815f5260405f208181548110612921575f80fd5b905f5260205f20015f91509150505481565b61293b612c57565b612943612cde565b5f73ffffffffffffffffffffffffffffffffffffffff168273ffffffffffffffffffffffffffffffffffffffff16036129b1576040517f08c379a00000000000000000000000000000000000000000000000000000000081526004016129a890614235565b60405180910390fd5b5f81116129f3576040517f08c379a00000000000000000000000000000000000000000000000000000000081526004016129ea90614946565b60405180910390fd5b806008541015612a38576040517f08c379a0000000000000000000000000000000000000000000000000000000008152600401612a2f90613cf8565b60405180910390fd5b8060085f828254612a499190613950565b925050819055505f8273ffffffffffffffffffffffffffffffffffffffff1682604051612a759061430e565b5f6040518083038185875af1925050503d805f8114612aaf576040519150601f19603f3d011682016040523d82523d5f602084013e612ab4565b606091505b5050905080612af8576040517f08c379a0000000000000000000000000000000000000000000000000000000008152600401612aef906149ae565b60405180910390fd5b8273ffffffffffffffffffffffffffffffffffffffff167f7fcf532c15f0a6db0bd6d0e038bea71d30d808c7d98cb3bf7268a95bf5081b6583604051612b3e9190612f87565b60405180910390a250612b4f612d24565b5050565b5f600380549050905090565b60038181548110612b6e575f80fd5b905f5260205f2090600702015f91509050805f015f9054906101000a900473ffffffffffffffffffffffffffffffffffffffff1690806001015490806002015490806003018054612bbe90613d43565b80601f0160208091040260200160405190810160405280929190818152602001828054612bea90613d43565b8015612c355780601f10612c0c57610100808354040283529160200191612c35565b820191905f5260205f20905b815481529060010190602001808311612c1857829003601f168201915b505050505090806005015490806006015f9054906101000a900460ff16905086565b612c5f612dee565b73ffffffffffffffffffffffffffffffffffffffff16612c7d610953565b73ffffffffffffffffffffffffffffffffffffffff1614612cdc57612ca0612dee565b6040517f118cdaa7000000000000000000000000000000000000000000000000000000008152600401612cd3919061359a565b60405180910390fd5b565b600260015403612d1a576040517f3ee5aeb500000000000000000000000000000000000000000000000000000000815260040160405180910390fd5b6002600181905550565b60018081905550565b5f5f5f9054906101000a900473ffffffffffffffffffffffffffffffffffffffff169050815f5f6101000a81548173ffffffffffffffffffffffffffffffffffffffff021916908373ffffffffffffffffffffffffffffffffffffffff1602179055508173ffffffffffffffffffffffffffffffffffffffff168173ffffffffffffffffffffffffffffffffffffffff167f8be0079c531659141344cd1fd0a4f28419497f9722a3daafe3b4186f6b6457e060405160405180910390a35050565b5f33905090565b828054828255905f5260205f20908101928215612e6b579160200282015b82811115612e6a578251825f6101000a81548173ffffffffffffffffffffffffffffffffffffffff021916908373ffffffffffffffffffffffffffffffffffffffff16021790555091602001919060010190612e13565b5b509050612e789190612e7c565b5090565b5b80821115612e93575f815f905550600101612e7d565b5090565b5f82825260208201905092915050565b7f4f6e6c79206f776e65722063616e2073656e6420455448206469726563746c795f82015250565b5f612edb602083612e97565b9150612ee682612ea7565b602082019050919050565b5f6020820190508181035f830152612f0881612ecf565b9050919050565b5f819050919050565b7f4e487b71000000000000000000000000000000000000000000000000000000005f52601160045260245ffd5b5f612f4f82612f0f565b9150612f5a83612f0f565b9250828201905080821115612f7257612f71612f18565b5b92915050565b612f8181612f0f565b82525050565b5f602082019050612f9a5f830184612f78565b92915050565b5f604051905090565b5f5ffd5b5f5ffd5b5f5ffd5b5f5ffd5b5f601f19601f8301169050919050565b7f4e487b71000000000000000000000000000000000000000000000000000000005f52604160045260245ffd5b612fff82612fb9565b810181811067ffffffffffffffff8211171561301e5761301d612fc9565b5b80604052505050565b5f613030612fa0565b905061303c8282612ff6565b919050565b5f67ffffffffffffffff82111561305b5761305a612fc9565b5b61306482612fb9565b9050602081019050919050565b828183375f83830152505050565b5f61309161308c84613041565b613027565b9050828152602081018484840111156130ad576130ac612fb5565b5b6130b8848285613071565b509392505050565b5f82601f8301126130d4576130d3612fb1565b5b81356130e484826020860161307f565b91505092915050565b5f6020828403121561310257613101612fa9565b5b5f82013567ffffffffffffffff81111561311f5761311e612fad565b5b61312b848285016130c0565b91505092915050565b61313d81612f0f565b8114613147575f5ffd5b50565b5f8135905061315881613134565b92915050565b5f73ffffffffffffffffffffffffffffffffffffffff82169050919050565b5f6131878261315e565b9050919050565b6131978161317d565b81146131a1575f5ffd5b50565b5f813590506131b28161318e565b92915050565b5f5f5f5f608085870312156131d0576131cf612fa9565b5b5f6131dd8782880161314a565b94505060206131ee878288016131a4565b93505060406131ff8782880161314a565b925050606085013567ffffffffffffffff8111156132205761321f612fad565b5b61322c878288016130c0565b91505092959194509250565b5f6020828403121561324d5761324c612fa9565b5b5f61325a8482850161314a565b91505092915050565b61326c8161317d565b82525050565b5f81519050919050565b8281835e5f83830152505050565b5f61329482613272565b61329e8185612e97565b93506132ae81856020860161327c565b6132b781612fb9565b840191505092915050565b5f81519050919050565b5f82825260208201905092915050565b5f819050602082019050919050565b6132f48161317d565b82525050565b5f61330583836132eb565b60208301905092915050565b5f602082019050919050565b5f613327826132c2565b61333181856132cc565b935061333c836132dc565b805f5b8381101561336c57815161335388826132fa565b975061335e83613311565b92505060018101905061333f565b5085935050505092915050565b5f8115159050919050565b61338d81613379565b82525050565b5f60e0820190506133a65f83018a613263565b6133b36020830189612f78565b6133c06040830188612f78565b81810360608301526133d2818761328a565b905081810360808301526133e6818661331d565b90506133f560a0830185612f78565b61340260c0830184613384565b98975050505050505050565b5f610100820190506134225f83018b612f78565b61342f602083018a613263565b61343c6040830189612f78565b818103606083015261344e818861328a565b905061345d6080830187612f78565b61346a60a0830186612f78565b61347760c0830185613384565b81810360e0830152613489818461328a565b90509998505050505050505050565b5f602082840312156134ad576134ac612fa9565b5b5f6134ba848285016131a4565b91505092915050565b5f81519050919050565b5f82825260208201905092915050565b5f819050602082019050919050565b6134f581612f0f565b82525050565b5f61350683836134ec565b60208301905092915050565b5f602082019050919050565b5f613528826134c3565b61353281856134cd565b935061353d836134dd565b805f5b8381101561356d57815161355488826134fb565b975061355f83613512565b925050600181019050613540565b5085935050505092915050565b5f6020820190508181035f830152613592818461351e565b905092915050565b5f6020820190506135ad5f830184613263565b92915050565b5f6135bd8261315e565b9050919050565b6135cd816135b3565b81146135d7575f5ffd5b50565b5f813590506135e8816135c4565b92915050565b5f5f6040838503121561360457613603612fa9565b5b5f613611858286016135da565b92505060206136228582860161314a565b9150509250929050565b5f67ffffffffffffffff82111561364657613645612fc9565b5b602082029050602081019050919050565b5f5ffd5b5f61366d6136688461362c565b613027565b905080838252602082019050602084028301858111156136905761368f613657565b5b835b818110156136b957806136a588826131a4565b845260208401935050602081019050613692565b5050509392505050565b5f82601f8301126136d7576136d6612fb1565b5b81356136e784826020860161365b565b91505092915050565b5f5f6040838503121561370657613705612fa9565b5b5f83013567ffffffffffffffff81111561372357613722612fad565b5b61372f858286016130c0565b925050602083013567ffffffffffffffff8111156137505761374f612fad565b5b61375c858286016136c3565b9150509250929050565b5f5f5f6060848603121561377d5761377c612fa9565b5b5f61378a8682870161314a565b935050602061379b868287016135da565b92505060406137ac8682870161314a565b9150509250925092565b5f5f604083850312156137cc576137cb612fa9565b5b5f6137d98582860161314a565b92505060206137ea858286016135da565b9150509250929050565b5f5f6040838503121561380a57613809612fa9565b5b5f613817858286016131a4565b92505060206138288582860161314a565b9150509250929050565b5f60c0820190506138455f830189613263565b6138526020830188612f78565b61385f6040830187612f78565b8181036060830152613871818661328a565b90506138806080830185612f78565b61388d60a0830184613384565b979650505050505050565b5f81905092915050565b5f6138ac82613272565b6138b68185613898565b93506138c681856020860161327c565b80840191505092915050565b5f6138dd82846138a2565b915081905092915050565b7f436f75706f6e206e6f7420666f756e64000000000000000000000000000000005f82015250565b5f61391c601083612e97565b9150613927826138e8565b602082019050919050565b5f6020820190508181035f83015261394981613910565b9050919050565b5f61395a82612f0f565b915061396583612f0f565b925082820390508181111561397d5761397c612f18565b5b92915050565b7f496e76616c696420696e766573746d656e7420494400000000000000000000005f82015250565b5f6139b7601583612e97565b91506139c282613983565b602082019050919050565b5f6020820190508181035f8301526139e4816139ab565b9050919050565b7f496e76616c696420706c617965722061646472657373000000000000000000005f82015250565b5f613a1f601683612e97565b9150613a2a826139eb565b602082019050919050565b5f6020820190508181035f830152613a4c81613a13565b9050919050565b7f416d6f756e74206d7573742062652067726561746572207468616e20300000005f82015250565b5f613a87601d83612e97565b9150613a9282613a53565b602082019050919050565b5f6020820190508181035f830152613ab481613a7b565b9050919050565b7f41726b612043444e20686173682063616e6e6f7420626520656d7074790000005f82015250565b5f613aef601d83612e97565b9150613afa82613abb565b602082019050919050565b5f6020820190508181035f830152613b1c81613ae3565b9050919050565b7f436f75706f6e206861736820616c7265616479206578697374730000000000005f82015250565b5f613b57601a83612e97565b9150613b6282613b23565b602082019050919050565b5f6020820190508181035f830152613b8481613b4b565b9050919050565b7f4e487b71000000000000000000000000000000000000000000000000000000005f52603260045260245ffd5b7f496e766573746d656e7420616c726561647920646973747269627574656400005f82015250565b5f613bec601e83612e97565b9150613bf782613bb8565b602082019050919050565b5f6020820190508181035f830152613c1981613be0565b9050919050565b7f506c61796572206e6f7420696e2074617267657420706c6179657273206c69735f8201527f7400000000000000000000000000000000000000000000000000000000000000602082015250565b5f613c7a602183612e97565b9150613c8582613c20565b604082019050919050565b5f6020820190508181035f830152613ca781613c6e565b9050919050565b7f496e73756666696369656e7420706f6f6c2062616c616e6365000000000000005f82015250565b5f613ce2601983612e97565b9150613ced82613cae565b602082019050919050565b5f6020820190508181035f830152613d0f81613cd6565b9050919050565b7f4e487b71000000000000000000000000000000000000000000000000000000005f52602260045260245ffd5b5f6002820490506001821680613d5a57607f821691505b602082108103613d6d57613d6c613d16565b5b50919050565b5f613d7d82612f0f565b9150613d8883612f0f565b9250828202613d9681612f0f565b91508282048414831517613dad57613dac612f18565b5b5092915050565b5f819050815f5260205f209050919050565b5f6020601f8301049050919050565b5f82821b905092915050565b5f60088302613e107fffffffffffffffffffffffffffffffffffffffffffffffffffffffffffffffff82613dd5565b613e1a8683613dd5565b95508019841693508086168417925050509392505050565b5f819050919050565b5f613e55613e50613e4b84612f0f565b613e32565b612f0f565b9050919050565b5f819050919050565b613e6e83613e3b565b613e82613e7a82613e5c565b848454613de1565b825550505050565b5f5f905090565b613e99613e8a565b613ea4818484613e65565b505050565b5b81811015613ec757613ebc5f82613e91565b600181019050613eaa565b5050565b601f821115613f0c57613edd81613db4565b613ee684613dc6565b81016020851015613ef5578190505b613f09613f0185613dc6565b830182613ea9565b50505b505050565b5f82821c905092915050565b5f613f2c5f1984600802613f11565b1980831691505092915050565b5f613f448383613f1d565b9150826002028217905092915050565b613f5d82613272565b67ffffffffffffffff811115613f7657613f75612fc9565b5b613f808254613d43565b613f8b828285613ecb565b5f60209050601f831160018114613fbc575f8415613faa578287015190505b613fb48582613f39565b86555061401b565b601f198416613fca86613db4565b5f5b82811015613ff157848901518255600182019150602085019450602081019050613fcc565b8683101561400e578489015161400a601f891682613f1d565b8355505b6001600288020188555050505b505050505050565b5f815461402f81613d43565b6140398186612e97565b9450600182165f811461405357600181146140695761409b565b60ff19831686528115156020028601935061409b565b61407285613db4565b5f5b8381101561409357815481890152600182019150602081019050614074565b808801955050505b50505092915050565b5f6080820190506140b75f830187612f78565b81810360208301526140c98186614023565b905081810360408301526140dd818561328a565b90506140ec6060830184612f78565b95945050505050565b7f4465706f73697420616d6f756e74206d757374206265206772656174657220745f8201527f68616e2030000000000000000000000000000000000000000000000000000000602082015250565b5f61414f602583612e97565b915061415a826140f5565b604082019050919050565b5f6020820190508181035f83015261417c81614143565b9050919050565b7f496e76616c696420636f75706f6e2049440000000000000000000000000000005f82015250565b5f6141b7601183612e97565b91506141c282614183565b602082019050919050565b5f6020820190508181035f8301526141e4816141ab565b9050919050565b7f496e76616c69642064657374696e6174696f6e206164647265737300000000005f82015250565b5f61421f601b83612e97565b915061422a826141eb565b602082019050919050565b5f6020820190508181035f83015261424c81614213565b9050919050565b7f5472616e7366657220616d6f756e74206d7573742062652067726561746572205f8201527f7468616e20300000000000000000000000000000000000000000000000000000602082015250565b5f6142ad602683612e97565b91506142b882614253565b604082019050919050565b5f6020820190508181035f8301526142da816142a1565b9050919050565b5f81905092915050565b50565b5f6142f95f836142e1565b9150614304826142eb565b5f82019050919050565b5f614318826142ee565b9150819050919050565b7f5472616e73666572206661696c656400000000000000000000000000000000005f82015250565b5f614356600f83612e97565b915061436182614322565b602082019050919050565b5f6020820190508181035f8301526143838161434a565b9050919050565b7f507572706f73652063616e6e6f7420626520656d7074790000000000000000005f82015250565b5f6143be601783612e97565b91506143c98261438a565b602082019050919050565b5f6020820190508181035f8301526143eb816143b2565b9050919050565b7f4d7573742073706563696679206174206c65617374206f6e65207461726765745f8201527f20706c6179657200000000000000000000000000000000000000000000000000602082015250565b5f61444c602783612e97565b9150614457826143f2565b604082019050919050565b5f6020820190508181035f83015261447981614440565b9050919050565b7f4e487b71000000000000000000000000000000000000000000000000000000005f52601260045260245ffd5b5f6144b782612f0f565b91506144c283612f0f565b9250826144d2576144d1614480565b5b828204905092915050565b7f436f6d6d697373696f6e207472616e73666572206661696c65640000000000005f82015250565b5f614511601a83612e97565b915061451c826144dd565b602082019050919050565b5f6020820190508181035f83015261453e81614505565b9050919050565b5f6080820190506145585f830187612f78565b6145656020830186612f78565b8181036040830152614577818561328a565b9050818103606083015261458b818461331d565b905095945050505050565b7f496e76616c696420726563697069656e742061646472657373000000000000005f82015250565b5f6145ca601983612e97565b91506145d582614596565b602082019050919050565b5f6020820190508181035f8301526145f7816145be565b9050919050565b7f4e6f2066756e647320746f2077697468647261770000000000000000000000005f82015250565b5f614632601483612e97565b915061463d826145fe565b602082019050919050565b5f6020820190508181035f83015261465f81614626565b9050919050565b7f456d657267656e6379207769746864726177616c206661696c656400000000005f82015250565b5f61469a601b83612e97565b91506146a582614666565b602082019050919050565b5f6020820190508181035f8301526146c78161468e565b9050919050565b7f496e76616c696420706172746e657220616464726573730000000000000000005f82015250565b5f614702601783612e97565b915061470d826146ce565b602082019050919050565b5f6020820190508181035f83015261472f816146f6565b9050919050565b7f436f75706f6e20616c72656164792072656465656d65640000000000000000005f82015250565b5f61476a601783612e97565b915061477582614736565b602082019050919050565b5f6020820190508181035f8301526147978161475e565b9050919050565b7f436f75706f6e20657870697265640000000000000000000000000000000000005f82015250565b5f6147d2600e83612e97565b91506147dd8261479e565b602082019050919050565b5f6020820190508181035f8301526147ff816147c6565b9050919050565b7f5472616e7366657220746f20706172746e6572206661696c65640000000000005f82015250565b5f61483a601a83612e97565b915061484582614806565b602082019050919050565b5f6020820190508181035f8301526148678161482e565b9050919050565b7f496e76616c696420636f6e7472616374206164647265737300000000000000005f82015250565b5f6148a2601883612e97565b91506148ad8261486e565b602082019050919050565b5f6020820190508181035f8301526148cf81614896565b9050919050565b7f5769746864726177616c20616d6f756e74206d757374206265206772656174655f8201527f72207468616e2030000000000000000000000000000000000000000000000000602082015250565b5f614930602883612e97565b915061493b826148d6565b604082019050919050565b5f6020820190508181035f83015261495d81614924565b9050919050565b7f5769746864726177616c207472616e73666572206661696c65640000000000005f82015250565b5f614998601a83612e97565b91506149a382614964565b602082019050919050565b5f6020820190508181035f8301526149c58161498c565b905091905056fea2646970667358221220bf19eb70630087367f21710a53a8a79df5528da041ecc8ae822c1c22d2e2f71f64736f6c634300081c0033",
  "linkReferences": {},
  "deployedLinkReferences": {},
  "immutableReferences": {},
  "inputSourceName": "project/contracts/OpenLeagueInversionPool.sol",
  "buildInfoId": "solc-0_8_28-cf97f9beb1a969274bc172a0c1bcb8c53d6b601c"
}