{
  "_format": "hh-sol-artifact-1",
  "contractName": "OpenLeagueInversionPool",
  "sourceName": "contracts/OpenLeagueInversionPool.sol",
  "abi": [
    {
      "inputs": [
        {
          "internalType": "address",
          "name": "_openLeagueContract",
          "type": "address"
        }
      ],
      "stateMutability": "nonpayable",
      "type": "constructor"
    },
    {
      "inputs": [
        {
          "internalType": "address",
          "name": "owner",
          "type": "address"
        }
      ],
      "name": "OwnableInvalidOwner",
      "type": "error"
    },
    {
      "inputs": [
        {
          "internalType": "address",
          "name": "account",
          "type": "address"
        }
      ],
      "name": "OwnableUnauthorizedAccount",
      "type": "error"
    },
    {
      "inputs": [],
      "name": "ReentrancyGuardReentrantCall",
      "type": "error"
    },
    {
      "anonymous": false,
      "inputs": [
        {
          "indexed": true,
          "internalType": "uint256",
          "name": "couponId",
          "type": "uint256"
        },
        {
          "indexed": true,
          "internalType": "uint256",
          "name": "investmentId",
          "type": "uint256"
        },
        {
          "indexed": true,
          "internalType": "address",
          "name": "player",
          "type": "address"
        },
        {
          "indexed": false,
          "internalType": "uint256",
          "name": "amount",
          "type": "uint256"
        },
        {
          "indexed": false,
          "internalType": "string",
          "name": "purpose",
          "type": "string"
        },
        {
          "indexed": false,
          "internalType": "string",
          "name": "arkaCdnHash",
          "type": "string"
        },
        {
          "indexed": false,
          "internalType": "uint256",
          "name": "expiresAt",
          "type": "uint256"
        }
      ],
      "name": "CouponIssued",
      "type": "event"
    },
    {
      "anonymous": false,
      "inputs": [
        {
          "indexed": true,
          "internalType": "uint256",
          "name": "couponId",
          "type": "uint256"
        },
        {
          "indexed": true,
          "internalType": "address",
          "name": "player",
          "type": "address"
        },
        {
          "indexed": true,
          "internalType": "address",
          "name": "partner",
          "type": "address"
        }
      ],
      "name": "CouponRedeemed",
      "type": "event"
    },
    {
      "anonymous": false,
      "inputs": [
        {
          "indexed": true,
          "internalType": "uint256",
          "name": "investmentId",
          "type": "uint256"
        },
        {
          "indexed": true,
          "internalType": "address",
          "name": "recipient",
          "type": "address"
        },
        {
          "indexed": false,
          "internalType": "uint256",
          "name": "amount",
          "type": "uint256"
        }
      ],
      "name": "DirectDistribution",
      "type": "event"
    },
    {
      "anonymous": false,
      "inputs": [
        {
          "indexed": true,
          "internalType": "address",
          "name": "to",
          "type": "address"
        },
        {
          "indexed": false,
          "internalType": "uint256",
          "name": "amount",
          "type": "uint256"
        }
      ],
      "name": "EmergencyWithdrawal",
      "type": "event"
    },
    {
      "anonymous": false,
      "inputs": [
        {
          "indexed": true,
          "internalType": "uint256",
          "name": "investmentId",
          "type": "uint256"
        },
        {
          "indexed": true,
          "internalType": "address",
          "name": "investor",
          "type": "address"
        },
        {
          "indexed": false,
          "internalType": "uint256",
          "name": "amount",
          "type": "uint256"
        },
        {
          "indexed": false,
          "internalType": "uint256",
          "name": "amountAfterCommission",
          "type": "uint256"
        },
        {
          "indexed": false,
          "internalType": "string",
          "name": "purpose",
          "type": "string"
        },
        {
          "indexed": false,
          "internalType": "address[]",
          "name": "targetPlayers",
          "type": "address[]"
        }
      ],
      "name": "InvestmentReceived",
      "type": "event"
    },
    {
      "anonymous": false,
      "inputs": [
        {
          "indexed": true,
          "internalType": "address",
          "name": "newContract",
          "type": "address"
        }
      ],
      "name": "OpenLeagueContractUpdated",
      "type": "event"
    },
    {
      "anonymous": false,
      "inputs": [
        {
          "indexed": false,
          "internalType": "uint256",
          "name": "amount",
          "type": "uint256"
        }
      ],
      "name": "OpenLeagueDeposit",
      "type": "event"
    },
    {
      "anonymous": false,
      "inputs": [
        {
          "indexed": true,
          "internalType": "address",
          "name": "previousOwner",
          "type": "address"
        },
        {
          "indexed": true,
          "internalType": "address",
          "name": "newOwner",
          "type": "address"
        }
      ],
      "name": "OwnershipTransferred",
      "type": "event"
    },
    {
      "anonymous": false,
      "inputs": [
        {
          "indexed": true,
          "internalType": "address",
          "name": "to",
          "type": "address"
        },
        {
          "indexed": false,
          "internalType": "uint256",
          "name": "amount",
          "type": "uint256"
        }
      ],
      "name": "Withdrawal",
      "type": "event"
    },
    {
      "stateMutability": "payable",
      "type": "fallback"
    },
    {
      "inputs": [],
      "name": "COMMISSION_PERCENTAGE",
      "outputs": [
        {
          "internalType": "uint256",
          "name": "",
          "type": "uint256"
        }
      ],
      "stateMutability": "view",
      "type": "function"
    },
    {
      "inputs": [],
      "name": "COUPON_VALIDITY_DAYS",
      "outputs": [
        {
          "internalType": "uint256",
          "name": "",
          "type": "uint256"
        }
      ],
      "stateMutability": "view",
      "type": "function"
    },
    {
      "inputs": [
        {
          "internalType": "string",
          "name": "",
          "type": "string"
        }
      ],
      "name": "couponHashToId",
      "outputs": [
        {
          "internalType": "uint256",
          "name": "",
          "type": "uint256"
        }
      ],
      "stateMutability": "view",
      "type": "function"
    },
    {
      "inputs": [
        {
          "internalType": "uint256",
          "name": "",
          "type": "uint256"
        }
      ],
      "name": "coupons",
      "outputs": [
        {
          "internalType": "uint256",
          "name": "investmentId",
          "type": "uint256"
        },
        {
          "internalType": "address",
          "name": "player",
          "type": "address"
        },
        {
          "internalType": "uint256",
          "name": "amount",
          "type": "uint256"
        },
        {
          "internalType": "string",
          "name": "purpose",
          "type": "string"
        },
        {
          "internalType": "uint256",
          "name": "createdAt",
          "type": "uint256"
        },
        {
          "internalType": "uint256",
          "name": "expiresAt",
          "type": "uint256"
        },
        {
          "internalType": "bool",
          "name": "redeemed",
          "type": "bool"
        },
        {
          "internalType": "string",
          "name": "arkaCdnHash",
          "type": "string"
        }
      ],
      "stateMutability": "view",
      "type": "function"
    },
    {
      "inputs": [
        {
          "internalType": "uint256",
          "name": "investmentId",
          "type": "uint256"
        },
        {
          "internalType": "address payable",
          "name": "recipient",
          "type": "address"
        },
        {
          "internalType": "uint256",
          "name": "amount",
          "type": "uint256"
        }
      ],
      "name": "directDistribution",
      "outputs": [],
      "stateMutability": "nonpayable",
      "type": "function"
    },
    {
      "inputs": [],
      "name": "emergencyWithdraw",
      "outputs": [],
      "stateMutability": "nonpayable",
      "type": "function"
    },
    {
      "inputs": [],
      "name": "getContractBalance",
      "outputs": [
        {
          "internalType": "uint256",
          "name": "",
          "type": "uint256"
        }
      ],
      "stateMutability": "view",
      "type": "function"
    },
    {
      "inputs": [
        {
          "internalType": "uint256",
          "name": "couponId",
          "type": "uint256"
        }
      ],
      "name": "getCoupon",
      "outputs": [
        {
          "internalType": "uint256",
          "name": "investmentId",
          "type": "uint256"
        },
        {
          "internalType": "address",
          "name": "player",
          "type": "address"
        },
        {
          "internalType": "uint256",
          "name": "amount",
          "type": "uint256"
        },
        {
          "internalType": "string",
          "name": "purpose",
          "type": "string"
        },
        {
          "internalType": "uint256",
          "name": "createdAt",
          "type": "uint256"
        },
        {
          "internalType": "uint256",
          "name": "expiresAt",
          "type": "uint256"
        },
        {
          "internalType": "bool",
          "name": "redeemed",
          "type": "bool"
        },
        {
          "internalType": "string",
          "name": "arkaCdnHash",
          "type": "string"
        }
      ],
      "stateMutability": "view",
      "type": "function"
    },
    {
      "inputs": [
        {
          "internalType": "string",
          "name": "arkaCdnHash",
          "type": "string"
        }
      ],
      "name": "getCouponByHash",
      "outputs": [
        {
          "internalType": "uint256",
          "name": "",
          "type": "uint256"
        }
      ],
      "stateMutability": "view",
      "type": "function"
    },
    {
      "inputs": [
        {
          "internalType": "uint256",
          "name": "investmentId",
          "type": "uint256"
        }
      ],
      "name": "getInvestment",
      "outputs": [
        {
          "internalType": "address",
          "name": "investor",
          "type": "address"
        },
        {
          "internalType": "uint256",
          "name": "amount",
          "type": "uint256"
        },
        {
          "internalType": "uint256",
          "name": "amountAfterCommission",
          "type": "uint256"
        },
        {
          "internalType": "string",
          "name": "purpose",
          "type": "string"
        },
        {
          "internalType": "address[]",
          "name": "targetPlayers",
          "type": "address[]"
        },
        {
          "internalType": "uint256",
          "name": "timestamp",
          "type": "uint256"
        },
        {
          "internalType": "bool",
          "name": "distributed",
          "type": "bool"
        }
      ],
      "stateMutability": "view",
      "type": "function"
    },
    {
      "inputs": [
        {
          "internalType": "address",
          "name": "investor",
          "type": "address"
        }
      ],
      "name": "getInvestorInvestments",
      "outputs": [
        {
          "internalType": "uint256[]",
          "name": "",
          "type": "uint256[]"
        }
      ],
      "stateMutability": "view",
      "type": "function"
    },
    {
      "inputs": [
        {
          "internalType": "address",
          "name": "player",
          "type": "address"
        }
      ],
      "name": "getPlayerCoupons",
      "outputs": [
        {
          "internalType": "uint256[]",
          "name": "",
          "type": "uint256[]"
        }
      ],
      "stateMutability": "view",
      "type": "function"
    },
    {
      "inputs": [],
      "name": "getTotalCoupons",
      "outputs": [
        {
          "internalType": "uint256",
          "name": "",
          "type": "uint256"
        }
      ],
      "stateMutability": "view",
      "type": "function"
    },
    {
      "inputs": [],
      "name": "getTotalInvestments",
      "outputs": [
        {
          "internalType": "uint256",
          "name": "",
          "type": "uint256"
        }
      ],
      "stateMutability": "view",
      "type": "function"
    },
    {
      "inputs": [
        {
          "internalType": "uint256",
          "name": "",
          "type": "uint256"
        }
      ],
      "name": "investments",
      "outputs": [
        {
          "internalType": "address",
          "name": "investor",
          "type": "address"
        },
        {
          "internalType": "uint256",
          "name": "amount",
          "type": "uint256"
        },
        {
          "internalType": "uint256",
          "name": "amountAfterCommission",
          "type": "uint256"
        },
        {
          "internalType": "string",
          "name": "purpose",
          "type": "string"
        },
        {
          "internalType": "uint256",
          "name": "timestamp",
          "type": "uint256"
        },
        {
          "internalType": "bool",
          "name": "distributed",
          "type": "bool"
        }
      ],
      "stateMutability": "view",
      "type": "function"
    },
    {
      "inputs": [
        {
          "internalType": "string",
          "name": "purpose",
          "type": "string"
        },
        {
          "internalType": "address[]",
          "name": "targetPlayers",
          "type": "address[]"
        }
      ],
      "name": "investorDeposit",
      "outputs": [],
      "stateMutability": "payable",
      "type": "function"
    },
    {
      "inputs": [
        {
          "internalType": "address",
          "name": "",
          "type": "address"
        },
        {
          "internalType": "uint256",
          "name": "",
          "type": "uint256"
        }
      ],
      "name": "investorInvestments",
      "outputs": [
        {
          "internalType": "uint256",
          "name": "",
          "type": "uint256"
        }
      ],
      "stateMutability": "view",
      "type": "function"
    },
    {
      "inputs": [
        {
          "internalType": "uint256",
          "name": "investmentId",
          "type": "uint256"
        },
        {
          "internalType": "address",
          "name": "player",
          "type": "address"
        },
        {
          "internalType": "uint256",
          "name": "amount",
          "type": "uint256"
        },
        {
          "internalType": "string",
          "name": "arkaCdnHash",
          "type": "string"
        }
      ],
      "name": "issueCoupon",
      "outputs": [],
      "stateMutability": "nonpayable",
      "type": "function"
    },
    {
      "inputs": [
        {
          "internalType": "uint256",
          "name": "investmentId",
          "type": "uint256"
        }
      ],
      "name": "markInvestmentAsDistributed",
      "outputs": [],
      "stateMutability": "nonpayable",
      "type": "function"
    },
    {
      "inputs": [],
      "name": "openLeagueContract",
      "outputs": [
        {
          "internalType": "address",
          "name": "",
          "type": "address"
        }
      ],
      "stateMutability": "view",
      "type": "function"
    },
    {
      "inputs": [],
      "name": "openLeagueDeposit",
      "outputs": [],
      "stateMutability": "payable",
      "type": "function"
    },
    {
      "inputs": [],
      "name": "owner",
      "outputs": [
        {
          "internalType": "address",
          "name": "",
          "type": "address"
        }
      ],
      "stateMutability": "view",
      "type": "function"
    },
    {
      "inputs": [
        {
          "internalType": "address",
          "name": "",
          "type": "address"
        },
        {
          "internalType": "uint256",
          "name": "",
          "type": "uint256"
        }
      ],
      "name": "playerCoupons",
      "outputs": [
        {
          "internalType": "uint256",
          "name": "",
          "type": "uint256"
        }
      ],
      "stateMutability": "view",
      "type": "function"
    },
    {
      "inputs": [
        {
          "internalType": "uint256",
          "name": "couponId",
          "type": "uint256"
        },
        {
          "internalType": "address payable",
          "name": "partner",
          "type": "address"
        }
      ],
      "name": "redeemCoupon",
      "outputs": [],
      "stateMutability": "nonpayable",
      "type": "function"
    },
    {
      "inputs": [],
      "name": "renounceOwnership",
      "outputs": [],
      "stateMutability": "nonpayable",
      "type": "function"
    },
    {
      "inputs": [],
      "name": "totalCommissionsPaid",
      "outputs": [
        {
          "internalType": "uint256",
          "name": "",
          "type": "uint256"
        }
      ],
      "stateMutability": "view",
      "type": "function"
    },
    {
      "inputs": [],
      "name": "totalDistributed",
      "outputs": [
        {
          "internalType": "uint256",
          "name": "",
          "type": "uint256"
        }
      ],
      "stateMutability": "view",
      "type": "function"
    },
    {
      "inputs": [],
      "name": "totalInvestorContributions",
      "outputs": [
        {
          "internalType": "uint256",
          "name": "",
          "type": "uint256"
        }
      ],
      "stateMutability": "view",
      "type": "function"
    },
    {
      "inputs": [],
      "name": "totalPoolBalance",
      "outputs": [
        {
          "internalType": "uint256",
          "name": "",
          "type": "uint256"
        }
      ],
      "stateMutability": "view",
      "type": "function"
    },
    {
      "inputs": [
        {
          "internalType": "address payable",
          "name": "to",
          "type": "address"
        },
        {
          "internalType": "uint256",
          "name": "amount",
          "type": "uint256"
        }
      ],
      "name": "transferFunds",
      "outputs": [],
      "stateMutability": "nonpayable",
      "type": "function"
    },
    {
      "inputs": [
        {
          "internalType": "address",
          "name": "newOwner",
          "type": "address"
        }
      ],
      "name": "transferOwnership",
      "outputs": [],
      "stateMutability": "nonpayable",
      "type": "function"
    },
    {
      "inputs": [
        {
          "internalType": "address",
          "name": "_newContract",
          "type": "address"
        }
      ],
      "name": "updateOpenLeagueContract",
      "outputs": [],
      "stateMutability": "nonpayable",
      "type": "function"
    },
    {
      "inputs": [
        {
          "internalType": "address payable",
          "name": "to",
          "type": "address"
        },
        {
          "internalType": "uint256",
          "name": "amount",
          "type": "uint256"
        }
      ],
      "name": "withdraw",
      "outputs": [],
      "stateMutability": "nonpayable",
      "type": "function"
    },
    {
      "stateMutability": "payable",
      "type": "receive"
    }
  ],
  "bytecode": "0x60806040523480156200001157600080fd5b506040516200301338038062003013833981016040819052620000349162000146565b33806200005c57604051631e4fbdf760e01b8152600060048201526024015b60405180910390fd5b6200006781620000f6565b50600180556001600160a01b038116620000d05760405162461bcd60e51b8152602060048201526024808201527f496e76616c6964204f70656e204c656167756520636f6e7472616374206164646044820152637265737360e01b606482015260840162000053565b600280546001600160a01b0319166001600160a01b039290921691909117905562000178565b600080546001600160a01b038381166001600160a01b0319831681178455604051919092169283917f8be0079c531659141344cd1fd0a4f28419497f9722a3daafe3b4186f6b6457e09190a35050565b6000602082840312156200015957600080fd5b81516001600160a01b03811681146200017157600080fd5b9392505050565b612e8b80620001886000396000f3fe6080604052600436106101f25760003560e01c8063936e31691161010d578063e18099a8116100a0578063f2fde38b1161006f578063f2fde38b1461062c578063f365423c1461064c578063f3fef3a31461066c578063f9a026aa1461068c578063fd345c8a146106a1576102b5565b8063e18099a8146105b6578063eef90b62146105d6578063efca2eed146105f6578063f2db85381461060c576102b5565b8063ba95a30a116100dc578063ba95a30a1461054b578063c6d83fcf1461056b578063d78cd17d14610581578063db2e21bc146105a1576102b5565b8063936e3169146104e2578063959a469d14610502578063990dc9db14610518578063ad02f45b14610538576102b5565b80634ddd1aa111610185578063715018a611610154578063715018a61461045757806373670e451461046c5780637b65ee3f146104a45780638da5cb5b146104c4576102b5565b80634ddd1aa1146104045780635026d63e146104195780635a4961b51461042f5780636f9fb98a14610444576102b5565b806322ae634f116101c157806322ae634f1461036857806330828e921461039b5780633fd3dd39146103cf5780634c431f00146103d7576102b5565b806302c57922146102c657806308dfdd1c146103115780631bf1de9b146103315780631dc8d99914610346576102b5565b366102b5576000546001600160a01b03165b6001600160a01b0316336001600160a01b0316146102695760405162461bcd60e51b815260206004820181905260248201527f4f6e6c79206f776e65722063616e2073656e6420455448206469726563746c7960448201526064015b60405180910390fd5b346008600082825461027b91906125d9565b90915550506040513481527f09d8c8990366c8d0777e447a8a9407951ccda1637409250b1cff0311af7375629060200160405180910390a1005b6000546001600160a01b0316610204565b3480156102d257600080fd5b506102fe6102e13660046126a9565b805160208183018101805160078252928201919093012091525481565b6040519081526020015b60405180910390f35b34801561031d57600080fd5b506102fe61032c3660046126a9565b6106d3565b34801561033d57600080fd5b506102fe600381565b34801561035257600080fd5b506103666103613660046126fb565b61074c565b005b34801561037457600080fd5b5061038861038336600461275e565b610d1a565b604051610308979695949392919061280b565b3480156103a757600080fd5b506103bb6103b636600461275e565b610f02565b604051610308989796959493929190612866565b61036661107d565b3480156103e357600080fd5b506103f76103f23660046128cf565b6110f1565b60405161030891906128ec565b34801561041057600080fd5b506005546102fe565b34801561042557600080fd5b506102fe60085481565b34801561043b57600080fd5b506102fe601e81565b34801561045057600080fd5b50476102fe565b34801561046357600080fd5b5061036661115d565b34801561047857600080fd5b5060025461048c906001600160a01b031681565b6040516001600160a01b039091168152602001610308565b3480156104b057600080fd5b506103f76104bf3660046128cf565b611171565b3480156104d057600080fd5b506000546001600160a01b031661048c565b3480156104ee57600080fd5b506103bb6104fd36600461275e565b6111db565b34801561050e57600080fd5b506102fe60095481565b34801561052457600080fd5b50610366610533366004612930565b611434565b61036661054636600461295c565b611616565b34801561055757600080fd5b50610366610566366004612a32565b6119df565b34801561057757600080fd5b506102fe600a5481565b34801561058d57600080fd5b5061036661059c36600461275e565b611c6c565b3480156105ad57600080fd5b50610366611ccf565b3480156105c257600080fd5b506103666105d1366004612a6a565b611e25565b3480156105e257600080fd5b506102fe6105f1366004612930565b6120ec565b34801561060257600080fd5b506102fe600b5481565b34801561061857600080fd5b506103666106273660046128cf565b61211d565b34801561063857600080fd5b506103666106473660046128cf565b6121c5565b34801561065857600080fd5b506102fe610667366004612930565b612203565b34801561067857600080fd5b50610366610687366004612930565b61221f565b34801561069857600080fd5b506003546102fe565b3480156106ad57600080fd5b506106c16106bc36600461275e565b6123c0565b60405161030896959493929190612a9a565b6000806007836040516106e69190612ae1565b90815260200160405180910390205490506000811161073a5760405162461bcd60e51b815260206004820152601060248201526f10dbdd5c1bdb881b9bdd08199bdd5b9960821b6044820152606401610260565b610745600182612afd565b9392505050565b6107546124a2565b61075c6124cf565b600354841061077d5760405162461bcd60e51b815260040161026090612b10565b6001600160a01b0383166107cc5760405162461bcd60e51b8152602060048201526016602482015275496e76616c696420706c61796572206164647265737360501b6044820152606401610260565b6000821161081c5760405162461bcd60e51b815260206004820152601d60248201527f416d6f756e74206d7573742062652067726561746572207468616e20300000006044820152606401610260565b600081511161086d5760405162461bcd60e51b815260206004820152601d60248201527f41726b612043444e20686173682063616e6e6f7420626520656d7074790000006044820152606401610260565b60078160405161087d9190612ae1565b9081526020016040518091039020546000146108db5760405162461bcd60e51b815260206004820152601a60248201527f436f75706f6e206861736820616c7265616479206578697374730000000000006044820152606401610260565b6000600385815481106108f0576108f0612b3f565b60009182526020909120600790910201600681015490915060ff16156109585760405162461bcd60e51b815260206004820152601e60248201527f496e766573746d656e7420616c726561647920646973747269627574656400006044820152606401610260565b6000805b60048301548110156109bc57856001600160a01b031683600401828154811061098757610987612b3f565b6000918252602090912001546001600160a01b0316036109aa57600191506109bc565b806109b481612b55565b91505061095c565b5080610a145760405162461bcd60e51b815260206004820152602160248201527f506c61796572206e6f7420696e2074617267657420706c6179657273206c69736044820152601d60fa1b6064820152608401610260565b836008541015610a365760405162461bcd60e51b815260040161026090612b6e565b6000604051806101000160405280888152602001876001600160a01b03168152602001868152602001846003018054610a6e90612ba5565b80601f0160208091040260200160405190810160405280929190818152602001828054610a9a90612ba5565b8015610ae75780601f10610abc57610100808354040283529160200191610ae7565b820191906000526020600020905b815481529060010190602001808311610aca57829003601f168201915b5050509183525050426020820152604001610b06601e62015180612bdf565b610b1090426125d9565b815260006020808301829052604092830188905260058054600181018255925283517f036b6384b5eca791c62761152d0c79bb0604c104a5fb6f4eb0703f3154bb3db06008909302928301908155908401517f036b6384b5eca791c62761152d0c79bb0604c104a5fb6f4eb0703f3154bb3db1830180546001600160a01b0319166001600160a01b03909216919091179055918301517f036b6384b5eca791c62761152d0c79bb0604c104a5fb6f4eb0703f3154bb3db2820155606083015192935083927f036b6384b5eca791c62761152d0c79bb0604c104a5fb6f4eb0703f3154bb3db390910190610c039082612c44565b506080820151600482015560a0820151600582015560c082015160068201805460ff191691151591909117905560e08201516007820190610c449082612c44565b505060055460009150610c5990600190612afd565b6001600160a01b038816600090815260066020908152604082208054600181810183559184529190922001829055909150610c959082906125d9565b600786604051610ca59190612ae1565b908152602001604051809103902081905550866001600160a01b031688827f46f1ff0d466a2d4aac01eafd89fbdf918d646d3f2c01aaf430be881d68b7500a89886003018a8860a00151604051610cff9493929190612d04565b60405180910390a450505050610d1460018055565b50505050565b60008060006060806000806003805490508810610d495760405162461bcd60e51b815260040161026090612b10565b600060038981548110610d5e57610d5e612b3f565b90600052602060002090600702016040518060e00160405290816000820160009054906101000a90046001600160a01b03166001600160a01b03166001600160a01b031681526020016001820154815260200160028201548152602001600382018054610dca90612ba5565b80601f0160208091040260200160405190810160405280929190818152602001828054610df690612ba5565b8015610e435780601f10610e1857610100808354040283529160200191610e43565b820191906000526020600020905b815481529060010190602001808311610e2657829003601f168201915b5050505050815260200160048201805480602002602001604051908101604052809291908181526020018280548015610ea557602002820191906000526020600020905b81546001600160a01b03168152600190910190602001808311610e87575b5050509183525050600582015460208083019190915260069092015460ff161515604091820152825191830151908301516060840151608085015160a086015160c090960151949f939e50919c509a509850919650945092505050565b60058181548110610f1257600080fd5b600091825260209091206008909102018054600182015460028301546003840180549395506001600160a01b03909216939092909190610f5190612ba5565b80601f0160208091040260200160405190810160405280929190818152602001828054610f7d90612ba5565b8015610fca5780601f10610f9f57610100808354040283529160200191610fca565b820191906000526020600020905b815481529060010190602001808311610fad57829003601f168201915b5050506004840154600585015460068601546007870180549697939692955060ff909116935090610ffa90612ba5565b80601f016020809104026020016040519081016040528092919081815260200182805461102690612ba5565b80156110735780601f1061104857610100808354040283529160200191611073565b820191906000526020600020905b81548152906001019060200180831161105657829003601f168201915b5050505050905088565b6110856124a2565b600034116110a55760405162461bcd60e51b815260040161026090612db2565b34600860008282546110b791906125d9565b90915550506040513481527f09d8c8990366c8d0777e447a8a9407951ccda1637409250b1cff0311af7375629060200160405180910390a1565b6001600160a01b03811660009081526004602090815260409182902080548351818402810184019094528084526060939283018282801561115157602002820191906000526020600020905b81548152602001906001019080831161113d575b50505050509050919050565b6111656124a2565b61116f60006124f9565b565b6001600160a01b038116600090815260066020908152604091829020805483518184028101840190945280845260609392830182828015611151576020028201919060005260206000209081548152602001906001019080831161113d5750505050509050919050565b600080600060606000806000606060058054905089106112315760405162461bcd60e51b8152602060048201526011602482015270125b9d985b1a590818dbdd5c1bdb881251607a1b6044820152606401610260565b600060058a8154811061124657611246612b3f565b906000526020600020906008020160405180610100016040529081600082015481526020016001820160009054906101000a90046001600160a01b03166001600160a01b03166001600160a01b03168152602001600282015481526020016003820180546112b390612ba5565b80601f01602080910402602001604051908101604052809291908181526020018280546112df90612ba5565b801561132c5780601f106113015761010080835404028352916020019161132c565b820191906000526020600020905b81548152906001019060200180831161130f57829003601f168201915b50505091835250506004820154602082015260058201546040820152600682015460ff161515606082015260078201805460809092019161136c90612ba5565b80601f016020809104026020016040519081016040528092919081815260200182805461139890612ba5565b80156113e55780601f106113ba576101008083540402835291602001916113e5565b820191906000526020600020905b8154815290600101906020018083116113c857829003601f168201915b5050505050815250509050806000015181602001518260400151836060015184608001518560a001518660c001518760e001519850985098509850985098509850985050919395975091939597565b61143c6124a2565b6114446124cf565b6001600160a01b03821661149a5760405162461bcd60e51b815260206004820152601b60248201527f496e76616c69642064657374696e6174696f6e206164647265737300000000006044820152606401610260565b600081116114f95760405162461bcd60e51b815260206004820152602660248201527f5472616e7366657220616d6f756e74206d75737420626520677265617465722060448201526507468616e20360d41b6064820152608401610260565b80600854101561151b5760405162461bcd60e51b815260040161026090612b6e565b806008600082825461152d9190612afd565b90915550506040516000906001600160a01b0384169083908381818185875af1925050503d806000811461157d576040519150601f19603f3d011682016040523d82523d6000602084013e611582565b606091505b50509050806115c55760405162461bcd60e51b815260206004820152600f60248201526e151c985b9cd9995c8819985a5b1959608a1b6044820152606401610260565b826001600160a01b03167f7fcf532c15f0a6db0bd6d0e038bea71d30d808c7d98cb3bf7268a95bf5081b658360405161160091815260200190565b60405180910390a25061161260018055565b5050565b61161e6124cf565b6000341161163e5760405162461bcd60e51b815260040161026090612db2565b600082511161168f5760405162461bcd60e51b815260206004820152601760248201527f507572706f73652063616e6e6f7420626520656d7074790000000000000000006044820152606401610260565b60008151116116f05760405162461bcd60e51b815260206004820152602760248201527f4d7573742073706563696679206174206c65617374206f6e652074617267657460448201526610383630bcb2b960c91b6064820152608401610260565b600060646116ff600334612bdf565b6117099190612df7565b905060006117178234612afd565b6002546040519192506000916001600160a01b039091169084908381818185875af1925050503d8060008114611769576040519150601f19603f3d011682016040523d82523d6000602084013e61176e565b606091505b50509050806117bf5760405162461bcd60e51b815260206004820152601a60248201527f436f6d6d697373696f6e207472616e73666572206661696c65640000000000006044820152606401610260565b6040805160e081018252338152346020820190815291810184815260608201888152608083018890524260a0840152600060c0840181905260038054600181018255915283517fc2575a0e9e593c00f959f8c92f12db2869c3395a3b0502d05e2516446f71f85b600790920291820180546001600160a01b0319166001600160a01b0390921691909117815594517fc2575a0e9e593c00f959f8c92f12db2869c3395a3b0502d05e2516446f71f85c82015591517fc2575a0e9e593c00f959f8c92f12db2869c3395a3b0502d05e2516446f71f85d830155519192839290917fc2575a0e9e593c00f959f8c92f12db2869c3395a3b0502d05e2516446f71f85e01906118cb9082612c44565b50608082015180516118e7916004840191602090910190612549565b5060a0820151600582015560c0909101516006909101805460ff191691151591909117905560035460009061191e90600190612afd565b33600090815260046020908152604082208054600181018255908352908220018290556008805492935086929091906119589084906125d9565b92505081905550346009600082825461197191906125d9565b9250508190555084600a600082825461198a91906125d9565b9091555050604051339082907fbc106f05260392076422a37cbd6b67632aafbd1911dcc9211ca37ff093e8e1de906119c990349089908d908d90612e19565b60405180910390a3505050505061161260018055565b6119e76124a2565b6119ef6124cf565b6003548310611a105760405162461bcd60e51b815260040161026090612b10565b6001600160a01b038216611a665760405162461bcd60e51b815260206004820152601960248201527f496e76616c696420726563697069656e742061646472657373000000000000006044820152606401610260565b60008111611ab65760405162461bcd60e51b815260206004820152601d60248201527f416d6f756e74206d7573742062652067726561746572207468616e20300000006044820152606401610260565b806008541015611ad85760405162461bcd60e51b815260040161026090612b6e565b600060038481548110611aed57611aed612b3f565b60009182526020909120600790910201600681015490915060ff1615611b555760405162461bcd60e51b815260206004820152601e60248201527f496e766573746d656e7420616c726561647920646973747269627574656400006044820152606401610260565b8160086000828254611b679190612afd565b9250508190555081600b6000828254611b8091906125d9565b90915550506040516000906001600160a01b0385169084908381818185875af1925050503d8060008114611bd0576040519150601f19603f3d011682016040523d82523d6000602084013e611bd5565b606091505b5050905080611c185760405162461bcd60e51b815260206004820152600f60248201526e151c985b9cd9995c8819985a5b1959608a1b6044820152606401610260565b836001600160a01b0316857f057b6ff3dc3e66741a5d27756bb88779102e314f1076c68c45c2489dae329b3585604051611c5491815260200190565b60405180910390a35050611c6760018055565b505050565b611c746124a2565b6003548110611c955760405162461bcd60e51b815260040161026090612b10565b600160038281548110611caa57611caa612b3f565b60009182526020909120600790910201600601805460ff191691151591909117905550565b611cd76124a2565b611cdf6124cf565b4780611d245760405162461bcd60e51b81526020600482015260146024820152734e6f2066756e647320746f20776974686472617760601b6044820152606401610260565b6000600881905580546040516001600160a01b039091169083908381818185875af1925050503d8060008114611d76576040519150601f19603f3d011682016040523d82523d6000602084013e611d7b565b606091505b5050905080611dcc5760405162461bcd60e51b815260206004820152601b60248201527f456d657267656e6379207769746864726177616c206661696c656400000000006044820152606401610260565b6000546001600160a01b03166001600160a01b03167f23d6711a1d031134a36921253c75aa59e967d38e369ac625992824315e204f2083604051611e1291815260200190565b60405180910390a2505061116f60018055565b611e2d6124a2565b611e356124cf565b6005548210611e7a5760405162461bcd60e51b8152602060048201526011602482015270125b9d985b1a590818dbdd5c1bdb881251607a1b6044820152606401610260565b6001600160a01b038116611ed05760405162461bcd60e51b815260206004820152601760248201527f496e76616c696420706172746e657220616464726573730000000000000000006044820152606401610260565b600060058381548110611ee557611ee5612b3f565b60009182526020909120600890910201600681015490915060ff1615611f4d5760405162461bcd60e51b815260206004820152601760248201527f436f75706f6e20616c72656164792072656465656d65640000000000000000006044820152606401610260565b8060050154421115611f925760405162461bcd60e51b815260206004820152600e60248201526d10dbdd5c1bdb88195e1c1a5c995960921b6044820152606401610260565b80600201546008541015611fb85760405162461bcd60e51b815260040161026090612b6e565b60068101805460ff19166001179055600281015460088054600090611fde908490612afd565b90915550506002810154600b8054600090611ffa9084906125d9565b909155505060028101546040516000916001600160a01b038516918381818185875af1925050503d806000811461204d576040519150601f19603f3d011682016040523d82523d6000602084013e612052565b606091505b50509050806120a35760405162461bcd60e51b815260206004820152601a60248201527f5472616e7366657220746f20706172746e6572206661696c65640000000000006044820152606401610260565b60018201546040516001600160a01b0380861692169086907fab802fc016628db46010e3603dd25b4cb8df2fe75e6487eeddd03d82b8952b1090600090a4505061161260018055565b6004602052816000526040600020818154811061210857600080fd5b90600052602060002001600091509150505481565b6121256124a2565b6001600160a01b03811661217b5760405162461bcd60e51b815260206004820152601860248201527f496e76616c696420636f6e7472616374206164647265737300000000000000006044820152606401610260565b600280546001600160a01b0319166001600160a01b0383169081179091556040517fb625f0db29320b3a07ae0dda5342bdc2dc4f4055c2d74506be9d81adfe71fbb990600090a250565b6121cd6124a2565b6001600160a01b0381166121f757604051631e4fbdf760e01b815260006004820152602401610260565b612200816124f9565b50565b6006602052816000526040600020818154811061210857600080fd5b6122276124a2565b61222f6124cf565b6001600160a01b0382166122855760405162461bcd60e51b815260206004820152601b60248201527f496e76616c69642064657374696e6174696f6e206164647265737300000000006044820152606401610260565b600081116122e65760405162461bcd60e51b815260206004820152602860248201527f5769746864726177616c20616d6f756e74206d75737420626520677265617465604482015267072207468616e20360c41b6064820152608401610260565b8060085410156123085760405162461bcd60e51b815260040161026090612b6e565b806008600082825461231a9190612afd565b90915550506040516000906001600160a01b0384169083908381818185875af1925050503d806000811461236a576040519150601f19603f3d011682016040523d82523d6000602084013e61236f565b606091505b50509050806115c55760405162461bcd60e51b815260206004820152601a60248201527f5769746864726177616c207472616e73666572206661696c65640000000000006044820152606401610260565b600381815481106123d057600080fd5b600091825260209091206007909102018054600182015460028301546003840180546001600160a01b0390941695509193909290919061240f90612ba5565b80601f016020809104026020016040519081016040528092919081815260200182805461243b90612ba5565b80156124885780601f1061245d57610100808354040283529160200191612488565b820191906000526020600020905b81548152906001019060200180831161246b57829003601f168201915b50505050600583015460069093015491929160ff16905086565b6000546001600160a01b0316331461116f5760405163118cdaa760e01b8152336004820152602401610260565b6002600154036124f257604051633ee5aeb560e01b815260040160405180910390fd5b6002600155565b600080546001600160a01b038381166001600160a01b0319831681178455604051919092169283917f8be0079c531659141344cd1fd0a4f28419497f9722a3daafe3b4186f6b6457e09190a35050565b82805482825590600052602060002090810192821561259e579160200282015b8281111561259e57825182546001600160a01b0319166001600160a01b03909116178255602090920191600190910190612569565b506125aa9291506125ae565b5090565b5b808211156125aa57600081556001016125af565b634e487b7160e01b600052601160045260246000fd5b808201808211156125ec576125ec6125c3565b92915050565b634e487b7160e01b600052604160045260246000fd5b604051601f8201601f1916810167ffffffffffffffff81118282101715612631576126316125f2565b604052919050565b600082601f83011261264a57600080fd5b813567ffffffffffffffff811115612664576126646125f2565b612677601f8201601f1916602001612608565b81815284602083860101111561268c57600080fd5b816020850160208301376000918101602001919091529392505050565b6000602082840312156126bb57600080fd5b813567ffffffffffffffff8111156126d257600080fd5b6126de84828501612639565b949350505050565b6001600160a01b038116811461220057600080fd5b6000806000806080858703121561271157600080fd5b843593506020850135612723816126e6565b925060408501359150606085013567ffffffffffffffff81111561274657600080fd5b61275287828801612639565b91505092959194509250565b60006020828403121561277057600080fd5b5035919050565b60005b8381101561279257818101518382015260200161277a565b50506000910152565b600081518084526127b3816020860160208601612777565b601f01601f19169290920160200192915050565b600081518084526020808501945080840160005b838110156128005781516001600160a01b0316875295820195908201906001016127db565b509495945050505050565b60018060a01b038816815286602082015285604082015260e06060820152600061283860e083018761279b565b828103608084015261284a81876127c7565b60a0840195909552505090151560c09091015295945050505050565b8881526001600160a01b038816602082015260408101879052610100606082018190526000906128988382018961279b565b90508660808401528560a084015284151560c084015282810360e08401526128c0818561279b565b9b9a5050505050505050505050565b6000602082840312156128e157600080fd5b8135610745816126e6565b6020808252825182820181905260009190848201906040850190845b8181101561292457835183529284019291840191600101612908565b50909695505050505050565b6000806040838503121561294357600080fd5b823561294e816126e6565b946020939093013593505050565b6000806040838503121561296f57600080fd5b823567ffffffffffffffff8082111561298757600080fd5b61299386838701612639565b93506020915081850135818111156129aa57600080fd5b8501601f810187136129bb57600080fd5b8035828111156129cd576129cd6125f2565b8060051b92506129de848401612608565b81815292820184019284810190898511156129f857600080fd5b928501925b84841015612a225783359250612a12836126e6565b82825292850192908501906129fd565b8096505050505050509250929050565b600080600060608486031215612a4757600080fd5b833592506020840135612a59816126e6565b929592945050506040919091013590565b60008060408385031215612a7d57600080fd5b823591506020830135612a8f816126e6565b809150509250929050565b60018060a01b038716815285602082015284604082015260c060608201526000612ac760c083018661279b565b60808301949094525090151560a090910152949350505050565b60008251612af3818460208701612777565b9190910192915050565b818103818111156125ec576125ec6125c3565b602080825260159082015274125b9d985b1a59081a5b9d995cdd1b595b9d081251605a1b604082015260600190565b634e487b7160e01b600052603260045260246000fd5b600060018201612b6757612b676125c3565b5060010190565b60208082526019908201527f496e73756666696369656e7420706f6f6c2062616c616e636500000000000000604082015260600190565b600181811c90821680612bb957607f821691505b602082108103612bd957634e487b7160e01b600052602260045260246000fd5b50919050565b80820281158282048414176125ec576125ec6125c3565b601f821115611c6757600081815260208120601f850160051c81016020861015612c1d5750805b601f850160051c820191505b81811015612c3c57828155600101612c29565b505050505050565b815167ffffffffffffffff811115612c5e57612c5e6125f2565b612c7281612c6c8454612ba5565b84612bf6565b602080601f831160018114612ca75760008415612c8f5750858301515b600019600386901b1c1916600185901b178555612c3c565b600085815260208120601f198616915b82811015612cd657888601518255948401946001909101908401612cb7565b5085821015612cf45787850151600019600388901b60f8161c191681555b5050505050600190811b01905550565b8481526000602060808184015260008654612d1e81612ba5565b80608087015260a0600180841660008114612d405760018114612d5a57612d88565b60ff1985168984015283151560051b890183019550612d88565b8b6000528660002060005b85811015612d805781548b8201860152908301908801612d65565b8a0184019650505b50505050508381036040850152612d9f818761279b565b9250505082606083015295945050505050565b60208082526025908201527f4465706f73697420616d6f756e74206d75737420626520677265617465722074604082015264068616e20360dc1b606082015260800190565b600082612e1457634e487b7160e01b600052601260045260246000fd5b500490565b848152836020820152608060408201526000612e38608083018561279b565b8281036060840152612e4a81856127c7565b97965050505050505056fea2646970667358221220f7d3643a36c3c438afa590d7b83aafa28985d363fc77dc1047ab1338f38ab13e64736f6c63430008140033",
  "linkReferences": {},
  "deployedLinkReferences": {}
}