{
  "_format": "hh3-artifact-1",
  "contractName": "OpenLeagueCup",
  "sourceName": "contracts/OpenLeagueCup.sol",
  "abi": [
    {
      "inputs": [],
      "stateMutability": "nonpayable",
      "type": "constructor"
    },
    {
      "inputs": [
        {
          "internalType": "address",
          "name": "owner",
          "type": "address"
        }
      ],
      "name": "OwnableInvalidOwner",
      "type": "error"
    },
    {
      "inputs": [
        {
          "internalType": "address",
          "name": "account",
          "type": "address"
        }
      ],
      "name": "OwnableUnauthorizedAccount",
      "type": "error"
    },
    {
      "inputs": [],
      "name": "ReentrancyGuardReentrantCall",
      "type": "error"
    },
    {
      "anonymous": false,
      "inputs": [
        {
          "indexed": false,
          "internalType": "string",
          "name": "cupName",
          "type": "string"
        },
        {
          "indexed": false,
          "internalType": "uint256",
          "name": "startDate",
          "type": "uint256"
        },
        {
          "indexed": false,
          "internalType": "uint256",
          "name": "endDate",
          "type": "uint256"
        }
      ],
      "name": "CupCreated",
      "type": "event"
    },
    {
      "anonymous": false,
      "inputs": [
        {
          "indexed": false,
          "internalType": "string",
          "name": "cupName",
          "type": "string"
        },
        {
          "indexed": false,
          "internalType": "uint256",
          "name": "totalPrizePool",
          "type": "uint256"
        }
      ],
      "name": "CupEnded",
      "type": "event"
    },
    {
      "anonymous": false,
      "inputs": [
        {
          "indexed": true,
          "internalType": "address",
          "name": "to",
          "type": "address"
        },
        {
          "indexed": false,
          "internalType": "uint256",
          "name": "amount",
          "type": "uint256"
        }
      ],
      "name": "EmergencyWithdrawal",
      "type": "event"
    },
    {
      "anonymous": false,
      "inputs": [
        {
          "indexed": true,
          "internalType": "address",
          "name": "previousOwner",
          "type": "address"
        },
        {
          "indexed": true,
          "internalType": "address",
          "name": "newOwner",
          "type": "address"
        }
      ],
      "name": "OwnershipTransferred",
      "type": "event"
    },
    {
      "anonymous": false,
      "inputs": [
        {
          "indexed": true,
          "internalType": "address",
          "name": "winner",
          "type": "address"
        },
        {
          "indexed": false,
          "internalType": "uint256",
          "name": "position",
          "type": "uint256"
        },
        {
          "indexed": false,
          "internalType": "uint256",
          "name": "amount",
          "type": "uint256"
        },
        {
          "indexed": false,
          "internalType": "string",
          "name": "cupName",
          "type": "string"
        }
      ],
      "name": "PrizePaid",
      "type": "event"
    },
    {
      "anonymous": false,
      "inputs": [
        {
          "indexed": true,
          "internalType": "address",
          "name": "contributor",
          "type": "address"
        },
        {
          "indexed": false,
          "internalType": "uint256",
          "name": "amount",
          "type": "uint256"
        }
      ],
      "name": "PublicContribution",
      "type": "event"
    },
    {
      "anonymous": false,
      "inputs": [
        {
          "indexed": true,
          "internalType": "address",
          "name": "sponsor",
          "type": "address"
        },
        {
          "indexed": false,
          "internalType": "string",
          "name": "sponsorName",
          "type": "string"
        },
        {
          "indexed": false,
          "internalType": "uint256",
          "name": "amount",
          "type": "uint256"
        }
      ],
      "name": "SponsorContribution",
      "type": "event"
    },
    {
      "anonymous": false,
      "inputs": [
        {
          "indexed": true,
          "internalType": "address",
          "name": "to",
          "type": "address"
        },
        {
          "indexed": false,
          "internalType": "uint256",
          "name": "amount",
          "type": "uint256"
        }
      ],
      "name": "Withdrawal",
      "type": "event"
    },
    {
      "stateMutability": "payable",
      "type": "fallback"
    },
    {
      "inputs": [
        {
          "internalType": "address payable[]",
          "name": "_winners",
          "type": "address[]"
        },
        {
          "internalType": "uint256[]",
          "name": "positions",
          "type": "uint256[]"
        },
        {
          "internalType": "uint256[]",
          "name": "amounts",
          "type": "uint256[]"
        }
      ],
      "name": "batchPayPrizes",
      "outputs": [],
      "stateMutability": "nonpayable",
      "type": "function"
    },
    {
      "inputs": [
        {
          "internalType": "string",
          "name": "_cupName",
          "type": "string"
        },
        {
          "internalType": "uint256",
          "name": "_startDate",
          "type": "uint256"
        },
        {
          "internalType": "uint256",
          "name": "_endDate",
          "type": "uint256"
        }
      ],
      "name": "createCup",
      "outputs": [],
      "stateMutability": "nonpayable",
      "type": "function"
    },
    {
      "inputs": [],
      "name": "currentCupEndDate",
      "outputs": [
        {
          "internalType": "uint256",
          "name": "",
          "type": "uint256"
        }
      ],
      "stateMutability": "view",
      "type": "function"
    },
    {
      "inputs": [],
      "name": "currentCupName",
      "outputs": [
        {
          "internalType": "string",
          "name": "",
          "type": "string"
        }
      ],
      "stateMutability": "view",
      "type": "function"
    },
    {
      "inputs": [],
      "name": "currentCupStartDate",
      "outputs": [
        {
          "internalType": "uint256",
          "name": "",
          "type": "uint256"
        }
      ],
      "stateMutability": "view",
      "type": "function"
    },
    {
      "inputs": [],
      "name": "emergencyWithdraw",
      "outputs": [],
      "stateMutability": "nonpayable",
      "type": "function"
    },
    {
      "inputs": [],
      "name": "endCup",
      "outputs": [],
      "stateMutability": "nonpayable",
      "type": "function"
    },
    {
      "inputs": [],
      "name": "getAllSponsors",
      "outputs": [
        {
          "internalType": "address[]",
          "name": "",
          "type": "address[]"
        }
      ],
      "stateMutability": "view",
      "type": "function"
    },
    {
      "inputs": [],
      "name": "getContractBalance",
      "outputs": [
        {
          "internalType": "uint256",
          "name": "",
          "type": "uint256"
        }
      ],
      "stateMutability": "view",
      "type": "function"
    },
    {
      "inputs": [],
      "name": "getCupStats",
      "outputs": [
        {
          "internalType": "string",
          "name": "cupName",
          "type": "string"
        },
        {
          "internalType": "uint256",
          "name": "startDate",
          "type": "uint256"
        },
        {
          "internalType": "uint256",
          "name": "endDate",
          "type": "uint256"
        },
        {
          "internalType": "bool",
          "name": "active",
          "type": "bool"
        },
        {
          "internalType": "uint256",
          "name": "prizePool",
          "type": "uint256"
        },
        {
          "internalType": "uint256",
          "name": "sponsorsContributions",
          "type": "uint256"
        },
        {
          "internalType": "uint256",
          "name": "publicContributions",
          "type": "uint256"
        },
        {
          "internalType": "uint256",
          "name": "prizesPaid",
          "type": "uint256"
        }
      ],
      "stateMutability": "view",
      "type": "function"
    },
    {
      "inputs": [
        {
          "internalType": "address",
          "name": "player",
          "type": "address"
        }
      ],
      "name": "getPlayerWinnings",
      "outputs": [
        {
          "internalType": "uint256[]",
          "name": "",
          "type": "uint256[]"
        }
      ],
      "stateMutability": "view",
      "type": "function"
    },
    {
      "inputs": [
        {
          "internalType": "address",
          "name": "contributor",
          "type": "address"
        }
      ],
      "name": "getPublicContribution",
      "outputs": [
        {
          "internalType": "uint256",
          "name": "",
          "type": "uint256"
        }
      ],
      "stateMutability": "view",
      "type": "function"
    },
    {
      "inputs": [
        {
          "internalType": "address",
          "name": "sponsorAddress",
          "type": "address"
        }
      ],
      "name": "getSponsorInfo",
      "outputs": [
        {
          "internalType": "string",
          "name": "name",
          "type": "string"
        },
        {
          "internalType": "uint256",
          "name": "totalContributed",
          "type": "uint256"
        },
        {
          "internalType": "uint256",
          "name": "contributionCount",
          "type": "uint256"
        },
        {
          "internalType": "bool",
          "name": "isActive",
          "type": "bool"
        }
      ],
      "stateMutability": "view",
      "type": "function"
    },
    {
      "inputs": [],
      "name": "getTotalPublicContributors",
      "outputs": [
        {
          "internalType": "uint256",
          "name": "",
          "type": "uint256"
        }
      ],
      "stateMutability": "view",
      "type": "function"
    },
    {
      "inputs": [],
      "name": "getTotalSponsors",
      "outputs": [
        {
          "internalType": "uint256",
          "name": "",
          "type": "uint256"
        }
      ],
      "stateMutability": "view",
      "type": "function"
    },
    {
      "inputs": [],
      "name": "getTotalWinners",
      "outputs": [
        {
          "internalType": "uint256",
          "name": "",
          "type": "uint256"
        }
      ],
      "stateMutability": "view",
      "type": "function"
    },
    {
      "inputs": [
        {
          "internalType": "uint256",
          "name": "index",
          "type": "uint256"
        }
      ],
      "name": "getWinner",
      "outputs": [
        {
          "internalType": "address",
          "name": "player",
          "type": "address"
        },
        {
          "internalType": "uint256",
          "name": "position",
          "type": "uint256"
        },
        {
          "internalType": "uint256",
          "name": "prizeAmount",
          "type": "uint256"
        },
        {
          "internalType": "uint256",
          "name": "paidDate",
          "type": "uint256"
        },
        {
          "internalType": "string",
          "name": "cupName",
          "type": "string"
        }
      ],
      "stateMutability": "view",
      "type": "function"
    },
    {
      "inputs": [],
      "name": "isCupActive",
      "outputs": [
        {
          "internalType": "bool",
          "name": "",
          "type": "bool"
        }
      ],
      "stateMutability": "view",
      "type": "function"
    },
    {
      "inputs": [],
      "name": "owner",
      "outputs": [
        {
          "internalType": "address",
          "name": "",
          "type": "address"
        }
      ],
      "stateMutability": "view",
      "type": "function"
    },
    {
      "inputs": [
        {
          "internalType": "address payable",
          "name": "winner",
          "type": "address"
        },
        {
          "internalType": "uint256",
          "name": "position",
          "type": "uint256"
        },
        {
          "internalType": "uint256",
          "name": "amount",
          "type": "uint256"
        }
      ],
      "name": "payPrize",
      "outputs": [],
      "stateMutability": "nonpayable",
      "type": "function"
    },
    {
      "inputs": [
        {
          "internalType": "address",
          "name": "",
          "type": "address"
        },
        {
          "internalType": "uint256",
          "name": "",
          "type": "uint256"
        }
      ],
      "name": "playerWinnings",
      "outputs": [
        {
          "internalType": "uint256",
          "name": "",
          "type": "uint256"
        }
      ],
      "stateMutability": "view",
      "type": "function"
    },
    {
      "inputs": [],
      "name": "publicContribute",
      "outputs": [],
      "stateMutability": "payable",
      "type": "function"
    },
    {
      "inputs": [
        {
          "internalType": "address",
          "name": "",
          "type": "address"
        }
      ],
      "name": "publicContributions",
      "outputs": [
        {
          "internalType": "uint256",
          "name": "",
          "type": "uint256"
        }
      ],
      "stateMutability": "view",
      "type": "function"
    },
    {
      "inputs": [
        {
          "internalType": "uint256",
          "name": "",
          "type": "uint256"
        }
      ],
      "name": "publicContributors",
      "outputs": [
        {
          "internalType": "address",
          "name": "",
          "type": "address"
        }
      ],
      "stateMutability": "view",
      "type": "function"
    },
    {
      "inputs": [],
      "name": "renounceOwnership",
      "outputs": [],
      "stateMutability": "nonpayable",
      "type": "function"
    },
    {
      "inputs": [
        {
          "internalType": "uint256",
          "name": "",
          "type": "uint256"
        }
      ],
      "name": "sponsorAddresses",
      "outputs": [
        {
          "internalType": "address",
          "name": "",
          "type": "address"
        }
      ],
      "stateMutability": "view",
      "type": "function"
    },
    {
      "inputs": [
        {
          "internalType": "string",
          "name": "sponsorName",
          "type": "string"
        }
      ],
      "name": "sponsorContribute",
      "outputs": [],
      "stateMutability": "payable",
      "type": "function"
    },
    {
      "inputs": [
        {
          "internalType": "address",
          "name": "",
          "type": "address"
        }
      ],
      "name": "sponsors",
      "outputs": [
        {
          "internalType": "string",
          "name": "name",
          "type": "string"
        },
        {
          "internalType": "uint256",
          "name": "totalContributed",
          "type": "uint256"
        },
        {
          "internalType": "uint256",
          "name": "contributionCount",
          "type": "uint256"
        },
        {
          "internalType": "bool",
          "name": "isActive",
          "type": "bool"
        }
      ],
      "stateMutability": "view",
      "type": "function"
    },
    {
      "inputs": [],
      "name": "totalPrizePool",
      "outputs": [
        {
          "internalType": "uint256",
          "name": "",
          "type": "uint256"
        }
      ],
      "stateMutability": "view",
      "type": "function"
    },
    {
      "inputs": [],
      "name": "totalPrizesPaid",
      "outputs": [
        {
          "internalType": "uint256",
          "name": "",
          "type": "uint256"
        }
      ],
      "stateMutability": "view",
      "type": "function"
    },
    {
      "inputs": [],
      "name": "totalPublicContributions",
      "outputs": [
        {
          "internalType": "uint256",
          "name": "",
          "type": "uint256"
        }
      ],
      "stateMutability": "view",
      "type": "function"
    },
    {
      "inputs": [],
      "name": "totalSponsorsContributions",
      "outputs": [
        {
          "internalType": "uint256",
          "name": "",
          "type": "uint256"
        }
      ],
      "stateMutability": "view",
      "type": "function"
    },
    {
      "inputs": [
        {
          "internalType": "address",
          "name": "newOwner",
          "type": "address"
        }
      ],
      "name": "transferOwnership",
      "outputs": [],
      "stateMutability": "nonpayable",
      "type": "function"
    },
    {
      "inputs": [
        {
          "internalType": "uint256",
          "name": "",
          "type": "uint256"
        }
      ],
      "name": "winners",
      "outputs": [
        {
          "internalType": "address payable",
          "name": "player",
          "type": "address"
        },
        {
          "internalType": "uint256",
          "name": "position",
          "type": "uint256"
        },
        {
          "internalType": "uint256",
          "name": "prizeAmount",
          "type": "uint256"
        },
        {
          "internalType": "uint256",
          "name": "paidDate",
          "type": "uint256"
        },
        {
          "internalType": "string",
          "name": "cupName",
          "type": "string"
        }
      ],
      "stateMutability": "view",
      "type": "function"
    },
    {
      "inputs": [
        {
          "internalType": "address payable",
          "name": "to",
          "type": "address"
        },
        {
          "internalType": "uint256",
          "name": "amount",
          "type": "uint256"
        }
      ],
      "name": "withdraw",
      "outputs": [],
      "stateMutability": "nonpayable",
      "type": "function"
    },
    {
      "stateMutability": "payable",
      "type": "receive"
    }
  ],
  "bytecode": "0x608060405234801561000f575f5ffd5b50335f73ffffffffffffffffffffffffffffffffffffffff168173ffffffffffffffffffffffffffffffffffffffff1603610081575f6040517f1e4fbdf700000000000000000000000000000000000000000000000000000000815260040161007891906101b6565b60405180910390fd5b610090816100b660201b60201c565b50600180819055505f60055f6101000a81548160ff0219169083151502179055506101cf565b5f5f5f9054906101000a900473ffffffffffffffffffffffffffffffffffffffff169050815f5f6101000a81548173ffffffffffffffffffffffffffffffffffffffff021916908373ffffffffffffffffffffffffffffffffffffffff1602179055508173ffffffffffffffffffffffffffffffffffffffff168173ffffffffffffffffffffffffffffffffffffffff167f8be0079c531659141344cd1fd0a4f28419497f9722a3daafe3b4186f6b6457e060405160405180910390a35050565b5f73ffffffffffffffffffffffffffffffffffffffff82169050919050565b5f6101a082610177565b9050919050565b6101b081610196565b82525050565b5f6020820190506101c95f8301846101a7565b92915050565b614355806101dc5f395ff3fe608060405260043610610206575f3560e01c80639675566511610117578063d35590c21161009f578063ec5c1c621161006e578063ec5c1c6214610a6e578063f2fde38b14610a98578063f3fef3a314610ac0578063f5c90ede14610ae8578063f608f0e914610af257610383565b8063d35590c2146109b3578063db2e21bc146109f2578063dbc46b1214610a08578063eb1d440d14610a3257610383565b8063a7a7419f116100e6578063a7a7419f146108b6578063b6e3d9c2146108e7578063bacb683714610923578063ca61daa41461094d578063ceeca9841461098957610383565b806396755665146107e65780639b5f8abb14610822578063a2fb11751461084c578063a623fb901461088c57610383565b80634129b2c91161019a5780636f9fb98a116101695780636f9fb98a1461072a578063715018a6146107545780637b61adc31461076a5780638da5cb5b146107945780638dddab98146107be57610383565b80634129b2c91461066e578063435a91a0146106ae57806346cdc2bf146106d85780636dfc9926146106ee57610383565b80631f2e66a3116101d65780631f2e66a3146105c8578063398ab9a7146105f05780633f7b02ae1461061a578063406f15971461064457610383565b8062bc7893146104fb5780630702da191461053757806308d73af81461055f5780630c587fc01461058957610383565b36610383575f600c5f3373ffffffffffffffffffffffffffffffffffffffff1673ffffffffffffffffffffffffffffffffffffffff1681526020019081526020015f2054036102b057600d33908060018154018082558091505060019003905f5260205f20015f9091909190916101000a81548173ffffffffffffffffffffffffffffffffffffffff021916908373ffffffffffffffffffffffffffffffffffffffff1602179055505b34600c5f3373ffffffffffffffffffffffffffffffffffffffff1673ffffffffffffffffffffffffffffffffffffffff1681526020019081526020015f205f8282546102fc9190612b85565b925050819055503460065f8282546103149190612b85565b925050819055503460085f82825461032c9190612b85565b925050819055503373ffffffffffffffffffffffffffffffffffffffff167fa8f912adde7906f69697a18ddcc1e31ceb9d6698bddc74be335021872c7470ed346040516103799190612bc7565b60405180910390a2005b5f600c5f3373ffffffffffffffffffffffffffffffffffffffff1673ffffffffffffffffffffffffffffffffffffffff1681526020019081526020015f20540361042857600d33908060018154018082558091505060019003905f5260205f20015f9091909190916101000a81548173ffffffffffffffffffffffffffffffffffffffff021916908373ffffffffffffffffffffffffffffffffffffffff1602179055505b34600c5f3373ffffffffffffffffffffffffffffffffffffffff1673ffffffffffffffffffffffffffffffffffffffff1681526020019081526020015f205f8282546104749190612b85565b925050819055503460065f82825461048c9190612b85565b925050819055503460085f8282546104a49190612b85565b925050819055503373ffffffffffffffffffffffffffffffffffffffff167fa8f912adde7906f69697a18ddcc1e31ceb9d6698bddc74be335021872c7470ed346040516104f19190612bc7565b60405180910390a2005b348015610506575f5ffd5b50610521600480360381019061051c9190612c4b565b610b0e565b60405161052e9190612d2d565b60405180910390f35b348015610542575f5ffd5b5061055d60048036038101906105589190612eb3565b610ba1565b005b34801561056a575f5ffd5b50610573610cf5565b6040516105809190612bc7565b60405180910390f35b348015610594575f5ffd5b506105af60048036038101906105aa9190612c4b565b610d01565b6040516105bf9493929190612f99565b60405180910390f35b3480156105d3575f5ffd5b506105ee60048036038101906105e99190613095565b610e31565b005b3480156105fb575f5ffd5b5061060461150a565b6040516106119190612bc7565b60405180910390f35b348015610625575f5ffd5b5061062e611510565b60405161063b9190612bc7565b60405180910390f35b34801561064f575f5ffd5b50610658611516565b6040516106659190612bc7565b60405180910390f35b348015610679575f5ffd5b50610694600480360381019061068f9190613145565b61151c565b6040516106a595949392919061317f565b60405180910390f35b3480156106b9575f5ffd5b506106c26116c5565b6040516106cf9190612bc7565b60405180910390f35b3480156106e3575f5ffd5b506106ec6116cb565b005b3480156106f9575f5ffd5b50610714600480360381019061070f9190612c4b565b611778565b6040516107219190612bc7565b60405180910390f35b348015610735575f5ffd5b5061073e61178d565b60405161074b9190612bc7565b60405180910390f35b34801561075f575f5ffd5b50610768611794565b005b348015610775575f5ffd5b5061077e6117a7565b60405161078b9190612bc7565b60405180910390f35b34801561079f575f5ffd5b506107a86117ad565b6040516107b591906131d7565b60405180910390f35b3480156107c9575f5ffd5b506107e460048036038101906107df919061322b565b6117d4565b005b3480156107f1575f5ffd5b5061080c6004803603810190610807919061327b565b611c32565b6040516108199190612bc7565b60405180910390f35b34801561082d575f5ffd5b50610836611c5d565b6040516108439190613370565b60405180910390f35b348015610857575f5ffd5b50610872600480360381019061086d9190613145565b611ce8565b60405161088395949392919061339f565b60405180910390f35b348015610897575f5ffd5b506108a0611dce565b6040516108ad91906133f7565b60405180910390f35b3480156108c1575f5ffd5b506108ca611e5a565b6040516108de989796959493929190613417565b60405180910390f35b3480156108f2575f5ffd5b5061090d60048036038101906109089190613145565b611f2a565b60405161091a91906131d7565b60405180910390f35b34801561092e575f5ffd5b50610937611f65565b6040516109449190612bc7565b60405180910390f35b348015610958575f5ffd5b50610973600480360381019061096e9190612c4b565b611f6b565b6040516109809190612bc7565b60405180910390f35b348015610994575f5ffd5b5061099d611fb1565b6040516109aa9190612bc7565b60405180910390f35b3480156109be575f5ffd5b506109d960048036038101906109d49190612c4b565b611fbd565b6040516109e99493929190612f99565b60405180910390f35b3480156109fd575f5ffd5b50610a0661207b565b005b348015610a13575f5ffd5b50610a1c6121e8565b604051610a299190612bc7565b60405180910390f35b348015610a3d575f5ffd5b50610a586004803603810190610a539190613145565b6121f4565b604051610a6591906131d7565b60405180910390f35b348015610a79575f5ffd5b50610a8261222f565b604051610a8f919061349a565b60405180910390f35b348015610aa3575f5ffd5b50610abe6004803603810190610ab99190612c4b565b612241565b005b348015610acb575f5ffd5b50610ae66004803603810190610ae191906134b3565b6122c5565b005b610af06124e5565b005b610b0c6004803603810190610b0791906134f1565b61269f565b005b6060600f5f8373ffffffffffffffffffffffffffffffffffffffff1673ffffffffffffffffffffffffffffffffffffffff1681526020019081526020015f20805480602002602001604051908101604052809291908181526020018280548015610b9557602002820191905f5260205f20905b815481526020019060010190808311610b81575b50505050509050919050565b610ba96129b1565b5f835111610bec576040517f08c379a0000000000000000000000000000000000000000000000000000000008152600401610be390613582565b60405180910390fd5b808210610c2e576040517f08c379a0000000000000000000000000000000000000000000000000000000008152600401610c25906135ea565b60405180910390fd5b60055f9054906101000a900460ff1615610c7d576040517f08c379a0000000000000000000000000000000000000000000000000000000008152600401610c7490613652565b60405180910390fd5b8260029081610c8c919061386d565b508160038190555080600481905550600160055f6101000a81548160ff0219169083151502179055507fdf50afb04b7c17db565ee8a64c7ee456cc3e0653012b335224335cee56f8869e838383604051610ce89392919061393c565b60405180910390a1505050565b5f600b80549050905090565b60605f5f5f5f600a5f8773ffffffffffffffffffffffffffffffffffffffff1673ffffffffffffffffffffffffffffffffffffffff1681526020019081526020015f206040518060800160405290815f82018054610d5e9061369d565b80601f0160208091040260200160405190810160405280929190818152602001828054610d8a9061369d565b8015610dd55780601f10610dac57610100808354040283529160200191610dd5565b820191905f5260205f20905b815481529060010190602001808311610db857829003601f168201915b505050505081526020016001820154815260200160028201548152602001600382015f9054906101000a900460ff1615151515815250509050805f01518160200151826040015183606001519450945094509450509193509193565b610e396129b1565b610e41612a38565b8383905086869050148015610e5b57508181905084849050145b610e9a576040517f08c379a0000000000000000000000000000000000000000000000000000000008152600401610e91906139c2565b60405180910390fd5b5f8686905011610edf576040517f08c379a0000000000000000000000000000000000000000000000000000000008152600401610ed690613a2a565b60405180910390fd5b5f5f90505f5f90505b83839050811015610f2757838382818110610f0657610f05613a48565b5b9050602002013582610f189190612b85565b91508080600101915050610ee8565b50806006541015610f6d576040517f08c379a0000000000000000000000000000000000000000000000000000000008152600401610f6490613abf565b60405180910390fd5b8060065f828254610f7e9190613add565b925050819055508060095f828254610f969190612b85565b925050819055505f5f90505b878790508110156114f8575f73ffffffffffffffffffffffffffffffffffffffff16888883818110610fd757610fd6613a48565b5b9050602002016020810190610fec9190613b10565b73ffffffffffffffffffffffffffffffffffffffff1603611042576040517f08c379a000000000000000000000000000000000000000000000000000000000815260040161103990613b85565b60405180910390fd5b5f86868381811061105657611055613a48565b5b905060200201351161109d576040517f08c379a000000000000000000000000000000000000000000000000000000000815260040161109490613bed565b60405180910390fd5b5f8484838181106110b1576110b0613a48565b5b90506020020135116110f8576040517f08c379a00000000000000000000000000000000000000000000000000000000081526004016110ef90613c55565b60405180910390fd5b5f6040518060a001604052808a8a8581811061111757611116613a48565b5b905060200201602081019061112c9190613b10565b73ffffffffffffffffffffffffffffffffffffffff16815260200188888581811061115a57611159613a48565b5b90506020020135815260200186868581811061117957611178613a48565b5b905060200201358152602001428152602001600280546111989061369d565b80601f01602080910402602001604051908101604052809291908181526020018280546111c49061369d565b801561120f5780601f106111e65761010080835404028352916020019161120f565b820191905f5260205f20905b8154815290600101906020018083116111f257829003601f168201915b50505050508152509050600e81908060018154018082558091505060019003905f5260205f2090600502015f909190919091505f820151815f015f6101000a81548173ffffffffffffffffffffffffffffffffffffffff021916908373ffffffffffffffffffffffffffffffffffffffff16021790555060208201518160010155604082015181600201556060820151816003015560808201518160040190816112b9919061386d565b505050600f5f8a8a858181106112d2576112d1613a48565b5b90506020020160208101906112e79190613b10565b73ffffffffffffffffffffffffffffffffffffffff1673ffffffffffffffffffffffffffffffffffffffff1681526020019081526020015f206001600e805490506113329190613add565b908060018154018082558091505060019003905f5260205f20015f90919091909150555f89898481811061136957611368613a48565b5b905060200201602081019061137e9190613b10565b73ffffffffffffffffffffffffffffffffffffffff168686858181106113a7576113a6613a48565b5b905060200201356040516113ba90613ca0565b5f6040518083038185875af1925050503d805f81146113f4576040519150601f19603f3d011682016040523d82523d5f602084013e6113f9565b606091505b505090508061143d576040517f08c379a000000000000000000000000000000000000000000000000000000000815260040161143490613cfe565b60405180910390fd5b8989848181106114505761144f613a48565b5b90506020020160208101906114659190613b10565b73ffffffffffffffffffffffffffffffffffffffff167fc99122297fc787d0d7218688d78f540340b6b0627d5017b3891c100de90ada208989868181106114af576114ae613a48565b5b905060200201358888878181106114c9576114c8613a48565b5b9050602002013560026040516114e193929190613d9d565b60405180910390a250508080600101915050610fa2565b5050611502612a7e565b505050505050565b60065481565b60045481565b60035481565b5f5f5f5f6060600e805490508610611569576040517f08c379a000000000000000000000000000000000000000000000000000000000815260040161156090613e23565b60405180910390fd5b5f600e878154811061157e5761157d613a48565b5b905f5260205f2090600502016040518060a00160405290815f82015f9054906101000a900473ffffffffffffffffffffffffffffffffffffffff1673ffffffffffffffffffffffffffffffffffffffff1673ffffffffffffffffffffffffffffffffffffffff1681526020016001820154815260200160028201548152602001600382015481526020016004820180546116179061369d565b80601f01602080910402602001604051908101604052809291908181526020018280546116439061369d565b801561168e5780601f106116655761010080835404028352916020019161168e565b820191905f5260205f20905b81548152906001019060200180831161167157829003601f168201915b5050505050815250509050805f01518160200151826040015183606001518460800151955095509550955095505091939590929450565b60075481565b6116d36129b1565b60055f9054906101000a900460ff16611721576040517f08c379a000000000000000000000000000000000000000000000000000000000815260040161171890613e8b565b60405180910390fd5b5f60055f6101000a81548160ff0219169083151502179055507f91ef3f455c6365f60ee1444a5b63c060eaa9b59049e3f90517d6bf2fa92e04fb600260065460405161176e929190613ea9565b60405180910390a1565b600c602052805f5260405f205f915090505481565b5f47905090565b61179c6129b1565b6117a55f612a87565b565b60095481565b5f5f5f9054906101000a900473ffffffffffffffffffffffffffffffffffffffff16905090565b6117dc6129b1565b6117e4612a38565b5f73ffffffffffffffffffffffffffffffffffffffff168373ffffffffffffffffffffffffffffffffffffffff1603611852576040517f08c379a000000000000000000000000000000000000000000000000000000000815260040161184990613b85565b60405180910390fd5b5f8211611894576040517f08c379a000000000000000000000000000000000000000000000000000000000815260040161188b90613bed565b60405180910390fd5b5f81116118d6576040517f08c379a00000000000000000000000000000000000000000000000000000000081526004016118cd90613f47565b60405180910390fd5b80600654101561191b576040517f08c379a000000000000000000000000000000000000000000000000000000000815260040161191290613abf565b60405180910390fd5b8060065f82825461192c9190613add565b925050819055508060095f8282546119449190612b85565b925050819055505f6040518060a001604052808573ffffffffffffffffffffffffffffffffffffffff168152602001848152602001838152602001428152602001600280546119929061369d565b80601f01602080910402602001604051908101604052809291908181526020018280546119be9061369d565b8015611a095780601f106119e057610100808354040283529160200191611a09565b820191905f5260205f20905b8154815290600101906020018083116119ec57829003601f168201915b50505050508152509050600e81908060018154018082558091505060019003905f5260205f2090600502015f909190919091505f820151815f015f6101000a81548173ffffffffffffffffffffffffffffffffffffffff021916908373ffffffffffffffffffffffffffffffffffffffff1602179055506020820151816001015560408201518160020155606082015181600301556080820151816004019081611ab3919061386d565b505050600f5f8573ffffffffffffffffffffffffffffffffffffffff1673ffffffffffffffffffffffffffffffffffffffff1681526020019081526020015f206001600e80549050611b059190613add565b908060018154018082558091505060019003905f5260205f20015f90919091909150555f8473ffffffffffffffffffffffffffffffffffffffff1683604051611b4d90613ca0565b5f6040518083038185875af1925050503d805f8114611b87576040519150601f19603f3d011682016040523d82523d5f602084013e611b8c565b606091505b5050905080611bd0576040517f08c379a0000000000000000000000000000000000000000000000000000000008152600401611bc790613cfe565b60405180910390fd5b8473ffffffffffffffffffffffffffffffffffffffff167fc99122297fc787d0d7218688d78f540340b6b0627d5017b3891c100de90ada2085856002604051611c1b93929190613d9d565b60405180910390a25050611c2d612a7e565b505050565b600f602052815f5260405f208181548110611c4b575f80fd5b905f5260205f20015f91509150505481565b6060600b805480602002602001604051908101604052809291908181526020018280548015611cde57602002820191905f5260205f20905b815f9054906101000a900473ffffffffffffffffffffffffffffffffffffffff1673ffffffffffffffffffffffffffffffffffffffff1681526020019060010190808311611c95575b5050505050905090565b600e8181548110611cf7575f80fd5b905f5260205f2090600502015f91509050805f015f9054906101000a900473ffffffffffffffffffffffffffffffffffffffff1690806001015490806002015490806003015490806004018054611d4d9061369d565b80601f0160208091040260200160405190810160405280929190818152602001828054611d799061369d565b8015611dc45780601f10611d9b57610100808354040283529160200191611dc4565b820191905f5260205f20905b815481529060010190602001808311611da757829003601f168201915b5050505050905085565b60028054611ddb9061369d565b80601f0160208091040260200160405190810160405280929190818152602001828054611e079061369d565b8015611e525780601f10611e2957610100808354040283529160200191611e52565b820191905f5260205f20905b815481529060010190602001808311611e3557829003601f168201915b505050505081565b60605f5f5f5f5f5f5f600260035460045460055f9054906101000a900460ff16600654600754600854600954878054611e929061369d565b80601f0160208091040260200160405190810160405280929190818152602001828054611ebe9061369d565b8015611f095780601f10611ee057610100808354040283529160200191611f09565b820191905f5260205f20905b815481529060010190602001808311611eec57829003601f168201915b50505050509750975097509750975097509750975097509091929394959697565b600d8181548110611f39575f80fd5b905f5260205f20015f915054906101000a900473ffffffffffffffffffffffffffffffffffffffff1681565b60085481565b5f600c5f8373ffffffffffffffffffffffffffffffffffffffff1673ffffffffffffffffffffffffffffffffffffffff1681526020019081526020015f20549050919050565b5f600e80549050905090565b600a602052805f5260405f205f91509050805f018054611fdc9061369d565b80601f01602080910402602001604051908101604052809291908181526020018280546120089061369d565b80156120535780601f1061202a57610100808354040283529160200191612053565b820191905f5260205f20905b81548152906001019060200180831161203657829003601f168201915b505050505090806001015490806002015490806003015f9054906101000a900460ff16905084565b6120836129b1565b61208b612a38565b5f4790505f81116120d1576040517f08c379a00000000000000000000000000000000000000000000000000000000081526004016120c890613faf565b60405180910390fd5b5f6006819055505f6120e16117ad565b73ffffffffffffffffffffffffffffffffffffffff168260405161210490613ca0565b5f6040518083038185875af1925050503d805f811461213e576040519150601f19603f3d011682016040523d82523d5f602084013e612143565b606091505b5050905080612187576040517f08c379a000000000000000000000000000000000000000000000000000000000815260040161217e90614017565b60405180910390fd5b61218f6117ad565b73ffffffffffffffffffffffffffffffffffffffff167f23d6711a1d031134a36921253c75aa59e967d38e369ac625992824315e204f20836040516121d49190612bc7565b60405180910390a250506121e6612a7e565b565b5f600d80549050905090565b600b8181548110612203575f80fd5b905f5260205f20015f915054906101000a900473ffffffffffffffffffffffffffffffffffffffff1681565b60055f9054906101000a900460ff1681565b6122496129b1565b5f73ffffffffffffffffffffffffffffffffffffffff168173ffffffffffffffffffffffffffffffffffffffff16036122b9575f6040517f1e4fbdf70000000000000000000000000000000000000000000000000000000081526004016122b091906131d7565b60405180910390fd5b6122c281612a87565b50565b6122cd6129b1565b6122d5612a38565b5f73ffffffffffffffffffffffffffffffffffffffff168273ffffffffffffffffffffffffffffffffffffffff1603612343576040517f08c379a000000000000000000000000000000000000000000000000000000000815260040161233a9061407f565b60405180910390fd5b5f8111612385576040517f08c379a000000000000000000000000000000000000000000000000000000000815260040161237c9061410d565b60405180910390fd5b8060065410156123ca576040517f08c379a00000000000000000000000000000000000000000000000000000000081526004016123c190614175565b60405180910390fd5b8060065f8282546123db9190613add565b925050819055505f8273ffffffffffffffffffffffffffffffffffffffff168260405161240790613ca0565b5f6040518083038185875af1925050503d805f8114612441576040519150601f19603f3d011682016040523d82523d5f602084013e612446565b606091505b505090508061248a576040517f08c379a0000000000000000000000000000000000000000000000000000000008152600401612481906141dd565b60405180910390fd5b8273ffffffffffffffffffffffffffffffffffffffff167f7fcf532c15f0a6db0bd6d0e038bea71d30d808c7d98cb3bf7268a95bf5081b65836040516124d09190612bc7565b60405180910390a2506124e1612a7e565b5050565b5f3411612527576040517f08c379a000000000000000000000000000000000000000000000000000000000815260040161251e9061426b565b60405180910390fd5b5f600c5f3373ffffffffffffffffffffffffffffffffffffffff1673ffffffffffffffffffffffffffffffffffffffff1681526020019081526020015f2054036125cc57600d33908060018154018082558091505060019003905f5260205f20015f9091909190916101000a81548173ffffffffffffffffffffffffffffffffffffffff021916908373ffffffffffffffffffffffffffffffffffffffff1602179055505b34600c5f3373ffffffffffffffffffffffffffffffffffffffff1673ffffffffffffffffffffffffffffffffffffffff1681526020019081526020015f205f8282546126189190612b85565b925050819055503460065f8282546126309190612b85565b925050819055503460085f8282546126489190612b85565b925050819055503373ffffffffffffffffffffffffffffffffffffffff167fa8f912adde7906f69697a18ddcc1e31ceb9d6698bddc74be335021872c7470ed346040516126959190612bc7565b60405180910390a2565b5f34116126e1576040517f08c379a00000000000000000000000000000000000000000000000000000000081526004016126d89061426b565b60405180910390fd5b5f815111612724576040517f08c379a000000000000000000000000000000000000000000000000000000000815260040161271b906142d3565b60405180910390fd5b600a5f3373ffffffffffffffffffffffffffffffffffffffff1673ffffffffffffffffffffffffffffffffffffffff1681526020019081526020015f206003015f9054906101000a900460ff166128815760405180608001604052808281526020015f81526020015f815260200160011515815250600a5f3373ffffffffffffffffffffffffffffffffffffffff1673ffffffffffffffffffffffffffffffffffffffff1681526020019081526020015f205f820151815f0190816127e9919061386d565b5060208201518160010155604082015181600201556060820151816003015f6101000a81548160ff021916908315150217905550905050600b33908060018154018082558091505060019003905f5260205f20015f9091909190916101000a81548173ffffffffffffffffffffffffffffffffffffffff021916908373ffffffffffffffffffffffffffffffffffffffff1602179055505b34600a5f3373ffffffffffffffffffffffffffffffffffffffff1673ffffffffffffffffffffffffffffffffffffffff1681526020019081526020015f206001015f8282546128d09190612b85565b925050819055506001600a5f3373ffffffffffffffffffffffffffffffffffffffff1673ffffffffffffffffffffffffffffffffffffffff1681526020019081526020015f206002015f8282546129279190612b85565b925050819055503460065f82825461293f9190612b85565b925050819055503460075f8282546129579190612b85565b925050819055503373ffffffffffffffffffffffffffffffffffffffff167f088dbf2e6fcef863571badc2238d10feee86644641abe1866dd1c5c64236ee8582346040516129a69291906142f1565b60405180910390a250565b6129b9612b48565b73ffffffffffffffffffffffffffffffffffffffff166129d76117ad565b73ffffffffffffffffffffffffffffffffffffffff1614612a36576129fa612b48565b6040517f118cdaa7000000000000000000000000000000000000000000000000000000008152600401612a2d91906131d7565b60405180910390fd5b565b600260015403612a74576040517f3ee5aeb500000000000000000000000000000000000000000000000000000000815260040160405180910390fd5b6002600181905550565b60018081905550565b5f5f5f9054906101000a900473ffffffffffffffffffffffffffffffffffffffff169050815f5f6101000a81548173ffffffffffffffffffffffffffffffffffffffff021916908373ffffffffffffffffffffffffffffffffffffffff1602179055508173ffffffffffffffffffffffffffffffffffffffff168173ffffffffffffffffffffffffffffffffffffffff167f8be0079c531659141344cd1fd0a4f28419497f9722a3daafe3b4186f6b6457e060405160405180910390a35050565b5f33905090565b5f819050919050565b7f4e487b71000000000000000000000000000000000000000000000000000000005f52601160045260245ffd5b5f612b8f82612b4f565b9150612b9a83612b4f565b9250828201905080821115612bb257612bb1612b58565b5b92915050565b612bc181612b4f565b82525050565b5f602082019050612bda5f830184612bb8565b92915050565b5f604051905090565b5f5ffd5b5f5ffd5b5f73ffffffffffffffffffffffffffffffffffffffff82169050919050565b5f612c1a82612bf1565b9050919050565b612c2a81612c10565b8114612c34575f5ffd5b50565b5f81359050612c4581612c21565b92915050565b5f60208284031215612c6057612c5f612be9565b5b5f612c6d84828501612c37565b91505092915050565b5f81519050919050565b5f82825260208201905092915050565b5f819050602082019050919050565b612ca881612b4f565b82525050565b5f612cb98383612c9f565b60208301905092915050565b5f602082019050919050565b5f612cdb82612c76565b612ce58185612c80565b9350612cf083612c90565b805f5b83811015612d20578151612d078882612cae565b9750612d1283612cc5565b925050600181019050612cf3565b5085935050505092915050565b5f6020820190508181035f830152612d458184612cd1565b905092915050565b5f5ffd5b5f5ffd5b5f601f19601f8301169050919050565b7f4e487b71000000000000000000000000000000000000000000000000000000005f52604160045260245ffd5b612d9b82612d55565b810181811067ffffffffffffffff82111715612dba57612db9612d65565b5b80604052505050565b5f612dcc612be0565b9050612dd88282612d92565b919050565b5f67ffffffffffffffff821115612df757612df6612d65565b5b612e0082612d55565b9050602081019050919050565b828183375f83830152505050565b5f612e2d612e2884612ddd565b612dc3565b905082815260208101848484011115612e4957612e48612d51565b5b612e54848285612e0d565b509392505050565b5f82601f830112612e7057612e6f612d4d565b5b8135612e80848260208601612e1b565b91505092915050565b612e9281612b4f565b8114612e9c575f5ffd5b50565b5f81359050612ead81612e89565b92915050565b5f5f5f60608486031215612eca57612ec9612be9565b5b5f84013567ffffffffffffffff811115612ee757612ee6612bed565b5b612ef386828701612e5c565b9350506020612f0486828701612e9f565b9250506040612f1586828701612e9f565b9150509250925092565b5f81519050919050565b5f82825260208201905092915050565b8281835e5f83830152505050565b5f612f5182612f1f565b612f5b8185612f29565b9350612f6b818560208601612f39565b612f7481612d55565b840191505092915050565b5f8115159050919050565b612f9381612f7f565b82525050565b5f6080820190508181035f830152612fb18187612f47565b9050612fc06020830186612bb8565b612fcd6040830185612bb8565b612fda6060830184612f8a565b95945050505050565b5f5ffd5b5f5ffd5b5f5f83601f84011261300057612fff612d4d565b5b8235905067ffffffffffffffff81111561301d5761301c612fe3565b5b60208301915083602082028301111561303957613038612fe7565b5b9250929050565b5f5f83601f84011261305557613054612d4d565b5b8235905067ffffffffffffffff81111561307257613071612fe3565b5b60208301915083602082028301111561308e5761308d612fe7565b5b9250929050565b5f5f5f5f5f5f606087890312156130af576130ae612be9565b5b5f87013567ffffffffffffffff8111156130cc576130cb612bed565b5b6130d889828a01612feb565b9650965050602087013567ffffffffffffffff8111156130fb576130fa612bed565b5b61310789828a01613040565b9450945050604087013567ffffffffffffffff81111561312a57613129612bed565b5b61313689828a01613040565b92509250509295509295509295565b5f6020828403121561315a57613159612be9565b5b5f61316784828501612e9f565b91505092915050565b61317981612c10565b82525050565b5f60a0820190506131925f830188613170565b61319f6020830187612bb8565b6131ac6040830186612bb8565b6131b96060830185612bb8565b81810360808301526131cb8184612f47565b90509695505050505050565b5f6020820190506131ea5f830184613170565b92915050565b5f6131fa82612bf1565b9050919050565b61320a816131f0565b8114613214575f5ffd5b50565b5f8135905061322581613201565b92915050565b5f5f5f6060848603121561324257613241612be9565b5b5f61324f86828701613217565b935050602061326086828701612e9f565b925050604061327186828701612e9f565b9150509250925092565b5f5f6040838503121561329157613290612be9565b5b5f61329e85828601612c37565b92505060206132af85828601612e9f565b9150509250929050565b5f81519050919050565b5f82825260208201905092915050565b5f819050602082019050919050565b6132eb81612c10565b82525050565b5f6132fc83836132e2565b60208301905092915050565b5f602082019050919050565b5f61331e826132b9565b61332881856132c3565b9350613333836132d3565b805f5b8381101561336357815161334a88826132f1565b975061335583613308565b925050600181019050613336565b5085935050505092915050565b5f6020820190508181035f8301526133888184613314565b905092915050565b613399816131f0565b82525050565b5f60a0820190506133b25f830188613390565b6133bf6020830187612bb8565b6133cc6040830186612bb8565b6133d96060830185612bb8565b81810360808301526133eb8184612f47565b90509695505050505050565b5f6020820190508181035f83015261340f8184612f47565b905092915050565b5f610100820190508181035f830152613430818b612f47565b905061343f602083018a612bb8565b61344c6040830189612bb8565b6134596060830188612f8a565b6134666080830187612bb8565b61347360a0830186612bb8565b61348060c0830185612bb8565b61348d60e0830184612bb8565b9998505050505050505050565b5f6020820190506134ad5f830184612f8a565b92915050565b5f5f604083850312156134c9576134c8612be9565b5b5f6134d685828601613217565b92505060206134e785828601612e9f565b9150509250929050565b5f6020828403121561350657613505612be9565b5b5f82013567ffffffffffffffff81111561352357613522612bed565b5b61352f84828501612e5c565b91505092915050565b7f437570206e616d652063616e6e6f7420626520656d70747900000000000000005f82015250565b5f61356c601883612f29565b915061357782613538565b602082019050919050565b5f6020820190508181035f83015261359981613560565b9050919050565b7f496e76616c6964206461746573000000000000000000000000000000000000005f82015250565b5f6135d4600d83612f29565b91506135df826135a0565b602082019050919050565b5f6020820190508181035f830152613601816135c8565b9050919050565b7f412063757020697320616c7265616479206163746976650000000000000000005f82015250565b5f61363c601783612f29565b915061364782613608565b602082019050919050565b5f6020820190508181035f83015261366981613630565b9050919050565b7f4e487b71000000000000000000000000000000000000000000000000000000005f52602260045260245ffd5b5f60028204905060018216806136b457607f821691505b6020821081036136c7576136c6613670565b5b50919050565b5f819050815f5260205f209050919050565b5f6020601f8301049050919050565b5f82821b905092915050565b5f600883026137297fffffffffffffffffffffffffffffffffffffffffffffffffffffffffffffffff826136ee565b61373386836136ee565b95508019841693508086168417925050509392505050565b5f819050919050565b5f61376e61376961376484612b4f565b61374b565b612b4f565b9050919050565b5f819050919050565b61378783613754565b61379b61379382613775565b8484546136fa565b825550505050565b5f5f905090565b6137b26137a3565b6137bd81848461377e565b505050565b5b818110156137e0576137d55f826137aa565b6001810190506137c3565b5050565b601f821115613825576137f6816136cd565b6137ff846136df565b8101602085101561380e578190505b61382261381a856136df565b8301826137c2565b50505b505050565b5f82821c905092915050565b5f6138455f198460080261382a565b1980831691505092915050565b5f61385d8383613836565b9150826002028217905092915050565b61387682612f1f565b67ffffffffffffffff81111561388f5761388e612d65565b5b613899825461369d565b6138a48282856137e4565b5f60209050601f8311600181146138d5575f84156138c3578287015190505b6138cd8582613852565b865550613934565b601f1984166138e3866136cd565b5f5b8281101561390a578489015182556001820191506020850194506020810190506138e5565b868310156139275784890151613923601f891682613836565b8355505b6001600288020188555050505b505050505050565b5f6060820190508181035f8301526139548186612f47565b90506139636020830185612bb8565b6139706040830184612bb8565b949350505050565b7f417272617973206c656e677468206d69736d61746368000000000000000000005f82015250565b5f6139ac601683612f29565b91506139b782613978565b602082019050919050565b5f6020820190508181035f8301526139d9816139a0565b9050919050565b7f456d7074792061727261797300000000000000000000000000000000000000005f82015250565b5f613a14600c83612f29565b9150613a1f826139e0565b602082019050919050565b5f6020820190508181035f830152613a4181613a08565b9050919050565b7f4e487b71000000000000000000000000000000000000000000000000000000005f52603260045260245ffd5b7f496e73756666696369656e74207072697a6520706f6f6c0000000000000000005f82015250565b5f613aa9601783612f29565b9150613ab482613a75565b602082019050919050565b5f6020820190508181035f830152613ad681613a9d565b9050919050565b5f613ae782612b4f565b9150613af283612b4f565b9250828203905081811115613b0a57613b09612b58565b5b92915050565b5f60208284031215613b2557613b24612be9565b5b5f613b3284828501613217565b91505092915050565b7f496e76616c69642077696e6e65722061646472657373000000000000000000005f82015250565b5f613b6f601683612f29565b9150613b7a82613b3b565b602082019050919050565b5f6020820190508181035f830152613b9c81613b63565b9050919050565b7f506f736974696f6e206d7573742062652067726561746572207468616e2030005f82015250565b5f613bd7601f83612f29565b9150613be282613ba3565b602082019050919050565b5f6020820190508181035f830152613c0481613bcb565b9050919050565b7f416d6f756e74206d7573742062652067726561746572207468616e20300000005f82015250565b5f613c3f601d83612f29565b9150613c4a82613c0b565b602082019050919050565b5f6020820190508181035f830152613c6c81613c33565b9050919050565b5f81905092915050565b50565b5f613c8b5f83613c73565b9150613c9682613c7d565b5f82019050919050565b5f613caa82613c80565b9150819050919050565b7f5072697a65207472616e73666572206661696c656400000000000000000000005f82015250565b5f613ce8601583612f29565b9150613cf382613cb4565b602082019050919050565b5f6020820190508181035f830152613d1581613cdc565b9050919050565b5f8154613d288161369d565b613d328186612f29565b9450600182165f8114613d4c5760018114613d6257613d94565b60ff198316865281151560200286019350613d94565b613d6b856136cd565b5f5b83811015613d8c57815481890152600182019150602081019050613d6d565b808801955050505b50505092915050565b5f606082019050613db05f830186612bb8565b613dbd6020830185612bb8565b8181036040830152613dcf8184613d1c565b9050949350505050565b7f496e76616c69642077696e6e657220696e6465780000000000000000000000005f82015250565b5f613e0d601483612f29565b9150613e1882613dd9565b602082019050919050565b5f6020820190508181035f830152613e3a81613e01565b9050919050565b7f4e6f2061637469766520637570000000000000000000000000000000000000005f82015250565b5f613e75600d83612f29565b9150613e8082613e41565b602082019050919050565b5f6020820190508181035f830152613ea281613e69565b9050919050565b5f6040820190508181035f830152613ec18185613d1c565b9050613ed06020830184612bb8565b9392505050565b7f5072697a6520616d6f756e74206d7573742062652067726561746572207468615f8201527f6e20300000000000000000000000000000000000000000000000000000000000602082015250565b5f613f31602383612f29565b9150613f3c82613ed7565b604082019050919050565b5f6020820190508181035f830152613f5e81613f25565b9050919050565b7f4e6f2066756e647320746f2077697468647261770000000000000000000000005f82015250565b5f613f99601483612f29565b9150613fa482613f65565b602082019050919050565b5f6020820190508181035f830152613fc681613f8d565b9050919050565b7f456d657267656e6379207769746864726177616c206661696c656400000000005f82015250565b5f614001601b83612f29565b915061400c82613fcd565b602082019050919050565b5f6020820190508181035f83015261402e81613ff5565b9050919050565b7f496e76616c69642064657374696e6174696f6e206164647265737300000000005f82015250565b5f614069601b83612f29565b915061407482614035565b602082019050919050565b5f6020820190508181035f8301526140968161405d565b9050919050565b7f5769746864726177616c20616d6f756e74206d757374206265206772656174655f8201527f72207468616e2030000000000000000000000000000000000000000000000000602082015250565b5f6140f7602883612f29565b91506141028261409d565b604082019050919050565b5f6020820190508181035f830152614124816140eb565b9050919050565b7f496e73756666696369656e742062616c616e63650000000000000000000000005f82015250565b5f61415f601483612f29565b915061416a8261412b565b602082019050919050565b5f6020820190508181035f83015261418c81614153565b9050919050565b7f5769746864726177616c207472616e73666572206661696c65640000000000005f82015250565b5f6141c7601a83612f29565b91506141d282614193565b602082019050919050565b5f6020820190508181035f8301526141f4816141bb565b9050919050565b7f436f6e747269627574696f6e20616d6f756e74206d75737420626520677265615f8201527f746572207468616e203000000000000000000000000000000000000000000000602082015250565b5f614255602a83612f29565b9150614260826141fb565b604082019050919050565b5f6020820190508181035f83015261428281614249565b9050919050565b7f53706f6e736f72206e616d652063616e6e6f7420626520656d707479000000005f82015250565b5f6142bd601c83612f29565b91506142c882614289565b602082019050919050565b5f6020820190508181035f8301526142ea816142b1565b9050919050565b5f6040820190508181035f8301526143098185612f47565b90506143186020830184612bb8565b939250505056fea26469706673582212207525c94e5a9c164cc0b875c16a3ed3516f97c9a9e10acb015dd1a6c7e4514ca264736f6c634300081c0033",
  "linkReferences": {},
  "deployedLinkReferences": {},
  "immutableReferences": {},
  "inputSourceName": "project/contracts/OpenLeagueCup.sol",
  "buildInfoId": "solc-0_8_28-cf97f9beb1a969274bc172a0c1bcb8c53d6b601c"
}