{
  "_format": "hh-sol-artifact-1",
  "contractName": "OpenLeagueCup",
  "sourceName": "contracts/OpenLeagueCup.sol",
  "abi": [
    {
      "inputs": [],
      "stateMutability": "nonpayable",
      "type": "constructor"
    },
    {
      "inputs": [
        {
          "internalType": "address",
          "name": "owner",
          "type": "address"
        }
      ],
      "name": "OwnableInvalidOwner",
      "type": "error"
    },
    {
      "inputs": [
        {
          "internalType": "address",
          "name": "account",
          "type": "address"
        }
      ],
      "name": "OwnableUnauthorizedAccount",
      "type": "error"
    },
    {
      "inputs": [],
      "name": "ReentrancyGuardReentrantCall",
      "type": "error"
    },
    {
      "anonymous": false,
      "inputs": [
        {
          "indexed": false,
          "internalType": "string",
          "name": "cupName",
          "type": "string"
        },
        {
          "indexed": false,
          "internalType": "uint256",
          "name": "startDate",
          "type": "uint256"
        },
        {
          "indexed": false,
          "internalType": "uint256",
          "name": "endDate",
          "type": "uint256"
        }
      ],
      "name": "CupCreated",
      "type": "event"
    },
    {
      "anonymous": false,
      "inputs": [
        {
          "indexed": false,
          "internalType": "string",
          "name": "cupName",
          "type": "string"
        },
        {
          "indexed": false,
          "internalType": "uint256",
          "name": "totalPrizePool",
          "type": "uint256"
        }
      ],
      "name": "CupEnded",
      "type": "event"
    },
    {
      "anonymous": false,
      "inputs": [
        {
          "indexed": true,
          "internalType": "address",
          "name": "to",
          "type": "address"
        },
        {
          "indexed": false,
          "internalType": "uint256",
          "name": "amount",
          "type": "uint256"
        }
      ],
      "name": "EmergencyWithdrawal",
      "type": "event"
    },
    {
      "anonymous": false,
      "inputs": [
        {
          "indexed": true,
          "internalType": "address",
          "name": "previousOwner",
          "type": "address"
        },
        {
          "indexed": true,
          "internalType": "address",
          "name": "newOwner",
          "type": "address"
        }
      ],
      "name": "OwnershipTransferred",
      "type": "event"
    },
    {
      "anonymous": false,
      "inputs": [
        {
          "indexed": true,
          "internalType": "address",
          "name": "winner",
          "type": "address"
        },
        {
          "indexed": false,
          "internalType": "uint256",
          "name": "position",
          "type": "uint256"
        },
        {
          "indexed": false,
          "internalType": "uint256",
          "name": "amount",
          "type": "uint256"
        },
        {
          "indexed": false,
          "internalType": "string",
          "name": "cupName",
          "type": "string"
        }
      ],
      "name": "PrizePaid",
      "type": "event"
    },
    {
      "anonymous": false,
      "inputs": [
        {
          "indexed": true,
          "internalType": "address",
          "name": "contributor",
          "type": "address"
        },
        {
          "indexed": false,
          "internalType": "uint256",
          "name": "amount",
          "type": "uint256"
        }
      ],
      "name": "PublicContribution",
      "type": "event"
    },
    {
      "anonymous": false,
      "inputs": [
        {
          "indexed": true,
          "internalType": "address",
          "name": "sponsor",
          "type": "address"
        },
        {
          "indexed": false,
          "internalType": "string",
          "name": "sponsorName",
          "type": "string"
        },
        {
          "indexed": false,
          "internalType": "uint256",
          "name": "amount",
          "type": "uint256"
        }
      ],
      "name": "SponsorContribution",
      "type": "event"
    },
    {
      "anonymous": false,
      "inputs": [
        {
          "indexed": true,
          "internalType": "address",
          "name": "to",
          "type": "address"
        },
        {
          "indexed": false,
          "internalType": "uint256",
          "name": "amount",
          "type": "uint256"
        }
      ],
      "name": "Withdrawal",
      "type": "event"
    },
    {
      "stateMutability": "payable",
      "type": "fallback"
    },
    {
      "inputs": [
        {
          "internalType": "address payable[]",
          "name": "_winners",
          "type": "address[]"
        },
        {
          "internalType": "uint256[]",
          "name": "positions",
          "type": "uint256[]"
        },
        {
          "internalType": "uint256[]",
          "name": "amounts",
          "type": "uint256[]"
        }
      ],
      "name": "batchPayPrizes",
      "outputs": [],
      "stateMutability": "nonpayable",
      "type": "function"
    },
    {
      "inputs": [
        {
          "internalType": "string",
          "name": "_cupName",
          "type": "string"
        },
        {
          "internalType": "uint256",
          "name": "_startDate",
          "type": "uint256"
        },
        {
          "internalType": "uint256",
          "name": "_endDate",
          "type": "uint256"
        }
      ],
      "name": "createCup",
      "outputs": [],
      "stateMutability": "nonpayable",
      "type": "function"
    },
    {
      "inputs": [],
      "name": "currentCupEndDate",
      "outputs": [
        {
          "internalType": "uint256",
          "name": "",
          "type": "uint256"
        }
      ],
      "stateMutability": "view",
      "type": "function"
    },
    {
      "inputs": [],
      "name": "currentCupName",
      "outputs": [
        {
          "internalType": "string",
          "name": "",
          "type": "string"
        }
      ],
      "stateMutability": "view",
      "type": "function"
    },
    {
      "inputs": [],
      "name": "currentCupStartDate",
      "outputs": [
        {
          "internalType": "uint256",
          "name": "",
          "type": "uint256"
        }
      ],
      "stateMutability": "view",
      "type": "function"
    },
    {
      "inputs": [],
      "name": "emergencyWithdraw",
      "outputs": [],
      "stateMutability": "nonpayable",
      "type": "function"
    },
    {
      "inputs": [],
      "name": "endCup",
      "outputs": [],
      "stateMutability": "nonpayable",
      "type": "function"
    },
    {
      "inputs": [],
      "name": "getAllSponsors",
      "outputs": [
        {
          "internalType": "address[]",
          "name": "",
          "type": "address[]"
        }
      ],
      "stateMutability": "view",
      "type": "function"
    },
    {
      "inputs": [],
      "name": "getContractBalance",
      "outputs": [
        {
          "internalType": "uint256",
          "name": "",
          "type": "uint256"
        }
      ],
      "stateMutability": "view",
      "type": "function"
    },
    {
      "inputs": [],
      "name": "getCupStats",
      "outputs": [
        {
          "internalType": "string",
          "name": "cupName",
          "type": "string"
        },
        {
          "internalType": "uint256",
          "name": "startDate",
          "type": "uint256"
        },
        {
          "internalType": "uint256",
          "name": "endDate",
          "type": "uint256"
        },
        {
          "internalType": "bool",
          "name": "active",
          "type": "bool"
        },
        {
          "internalType": "uint256",
          "name": "prizePool",
          "type": "uint256"
        },
        {
          "internalType": "uint256",
          "name": "sponsorsContributions",
          "type": "uint256"
        },
        {
          "internalType": "uint256",
          "name": "publicContributions",
          "type": "uint256"
        },
        {
          "internalType": "uint256",
          "name": "prizesPaid",
          "type": "uint256"
        }
      ],
      "stateMutability": "view",
      "type": "function"
    },
    {
      "inputs": [
        {
          "internalType": "address",
          "name": "player",
          "type": "address"
        }
      ],
      "name": "getPlayerWinnings",
      "outputs": [
        {
          "internalType": "uint256[]",
          "name": "",
          "type": "uint256[]"
        }
      ],
      "stateMutability": "view",
      "type": "function"
    },
    {
      "inputs": [
        {
          "internalType": "address",
          "name": "contributor",
          "type": "address"
        }
      ],
      "name": "getPublicContribution",
      "outputs": [
        {
          "internalType": "uint256",
          "name": "",
          "type": "uint256"
        }
      ],
      "stateMutability": "view",
      "type": "function"
    },
    {
      "inputs": [
        {
          "internalType": "address",
          "name": "sponsorAddress",
          "type": "address"
        }
      ],
      "name": "getSponsorInfo",
      "outputs": [
        {
          "internalType": "string",
          "name": "name",
          "type": "string"
        },
        {
          "internalType": "uint256",
          "name": "totalContributed",
          "type": "uint256"
        },
        {
          "internalType": "uint256",
          "name": "contributionCount",
          "type": "uint256"
        },
        {
          "internalType": "bool",
          "name": "isActive",
          "type": "bool"
        }
      ],
      "stateMutability": "view",
      "type": "function"
    },
    {
      "inputs": [],
      "name": "getTotalPublicContributors",
      "outputs": [
        {
          "internalType": "uint256",
          "name": "",
          "type": "uint256"
        }
      ],
      "stateMutability": "view",
      "type": "function"
    },
    {
      "inputs": [],
      "name": "getTotalSponsors",
      "outputs": [
        {
          "internalType": "uint256",
          "name": "",
          "type": "uint256"
        }
      ],
      "stateMutability": "view",
      "type": "function"
    },
    {
      "inputs": [],
      "name": "getTotalWinners",
      "outputs": [
        {
          "internalType": "uint256",
          "name": "",
          "type": "uint256"
        }
      ],
      "stateMutability": "view",
      "type": "function"
    },
    {
      "inputs": [
        {
          "internalType": "uint256",
          "name": "index",
          "type": "uint256"
        }
      ],
      "name": "getWinner",
      "outputs": [
        {
          "internalType": "address",
          "name": "player",
          "type": "address"
        },
        {
          "internalType": "uint256",
          "name": "position",
          "type": "uint256"
        },
        {
          "internalType": "uint256",
          "name": "prizeAmount",
          "type": "uint256"
        },
        {
          "internalType": "uint256",
          "name": "paidDate",
          "type": "uint256"
        },
        {
          "internalType": "string",
          "name": "cupName",
          "type": "string"
        }
      ],
      "stateMutability": "view",
      "type": "function"
    },
    {
      "inputs": [],
      "name": "isCupActive",
      "outputs": [
        {
          "internalType": "bool",
          "name": "",
          "type": "bool"
        }
      ],
      "stateMutability": "view",
      "type": "function"
    },
    {
      "inputs": [],
      "name": "owner",
      "outputs": [
        {
          "internalType": "address",
          "name": "",
          "type": "address"
        }
      ],
      "stateMutability": "view",
      "type": "function"
    },
    {
      "inputs": [
        {
          "internalType": "address payable",
          "name": "winner",
          "type": "address"
        },
        {
          "internalType": "uint256",
          "name": "position",
          "type": "uint256"
        },
        {
          "internalType": "uint256",
          "name": "amount",
          "type": "uint256"
        }
      ],
      "name": "payPrize",
      "outputs": [],
      "stateMutability": "nonpayable",
      "type": "function"
    },
    {
      "inputs": [
        {
          "internalType": "address",
          "name": "",
          "type": "address"
        },
        {
          "internalType": "uint256",
          "name": "",
          "type": "uint256"
        }
      ],
      "name": "playerWinnings",
      "outputs": [
        {
          "internalType": "uint256",
          "name": "",
          "type": "uint256"
        }
      ],
      "stateMutability": "view",
      "type": "function"
    },
    {
      "inputs": [],
      "name": "publicContribute",
      "outputs": [],
      "stateMutability": "payable",
      "type": "function"
    },
    {
      "inputs": [
        {
          "internalType": "address",
          "name": "",
          "type": "address"
        }
      ],
      "name": "publicContributions",
      "outputs": [
        {
          "internalType": "uint256",
          "name": "",
          "type": "uint256"
        }
      ],
      "stateMutability": "view",
      "type": "function"
    },
    {
      "inputs": [
        {
          "internalType": "uint256",
          "name": "",
          "type": "uint256"
        }
      ],
      "name": "publicContributors",
      "outputs": [
        {
          "internalType": "address",
          "name": "",
          "type": "address"
        }
      ],
      "stateMutability": "view",
      "type": "function"
    },
    {
      "inputs": [],
      "name": "renounceOwnership",
      "outputs": [],
      "stateMutability": "nonpayable",
      "type": "function"
    },
    {
      "inputs": [
        {
          "internalType": "uint256",
          "name": "",
          "type": "uint256"
        }
      ],
      "name": "sponsorAddresses",
      "outputs": [
        {
          "internalType": "address",
          "name": "",
          "type": "address"
        }
      ],
      "stateMutability": "view",
      "type": "function"
    },
    {
      "inputs": [
        {
          "internalType": "string",
          "name": "sponsorName",
          "type": "string"
        }
      ],
      "name": "sponsorContribute",
      "outputs": [],
      "stateMutability": "payable",
      "type": "function"
    },
    {
      "inputs": [
        {
          "internalType": "address",
          "name": "",
          "type": "address"
        }
      ],
      "name": "sponsors",
      "outputs": [
        {
          "internalType": "string",
          "name": "name",
          "type": "string"
        },
        {
          "internalType": "uint256",
          "name": "totalContributed",
          "type": "uint256"
        },
        {
          "internalType": "uint256",
          "name": "contributionCount",
          "type": "uint256"
        },
        {
          "internalType": "bool",
          "name": "isActive",
          "type": "bool"
        }
      ],
      "stateMutability": "view",
      "type": "function"
    },
    {
      "inputs": [],
      "name": "totalPrizePool",
      "outputs": [
        {
          "internalType": "uint256",
          "name": "",
          "type": "uint256"
        }
      ],
      "stateMutability": "view",
      "type": "function"
    },
    {
      "inputs": [],
      "name": "totalPrizesPaid",
      "outputs": [
        {
          "internalType": "uint256",
          "name": "",
          "type": "uint256"
        }
      ],
      "stateMutability": "view",
      "type": "function"
    },
    {
      "inputs": [],
      "name": "totalPublicContributions",
      "outputs": [
        {
          "internalType": "uint256",
          "name": "",
          "type": "uint256"
        }
      ],
      "stateMutability": "view",
      "type": "function"
    },
    {
      "inputs": [],
      "name": "totalSponsorsContributions",
      "outputs": [
        {
          "internalType": "uint256",
          "name": "",
          "type": "uint256"
        }
      ],
      "stateMutability": "view",
      "type": "function"
    },
    {
      "inputs": [
        {
          "internalType": "address",
          "name": "newOwner",
          "type": "address"
        }
      ],
      "name": "transferOwnership",
      "outputs": [],
      "stateMutability": "nonpayable",
      "type": "function"
    },
    {
      "inputs": [
        {
          "internalType": "uint256",
          "name": "",
          "type": "uint256"
        }
      ],
      "name": "winners",
      "outputs": [
        {
          "internalType": "address payable",
          "name": "player",
          "type": "address"
        },
        {
          "internalType": "uint256",
          "name": "position",
          "type": "uint256"
        },
        {
          "internalType": "uint256",
          "name": "prizeAmount",
          "type": "uint256"
        },
        {
          "internalType": "uint256",
          "name": "paidDate",
          "type": "uint256"
        },
        {
          "internalType": "string",
          "name": "cupName",
          "type": "string"
        }
      ],
      "stateMutability": "view",
      "type": "function"
    },
    {
      "inputs": [
        {
          "internalType": "address payable",
          "name": "to",
          "type": "address"
        },
        {
          "internalType": "uint256",
          "name": "amount",
          "type": "uint256"
        }
      ],
      "name": "withdraw",
      "outputs": [],
      "stateMutability": "nonpayable",
      "type": "function"
    },
    {
      "stateMutability": "payable",
      "type": "receive"
    }
  ],
  "bytecode": "0x608060405234801561001057600080fd5b50338061003757604051631e4fbdf760e01b81526000600482015260240160405180910390fd5b61004081610054565b50600180556005805460ff191690556100a4565b600080546001600160a01b038381166001600160a01b0319831681178455604051919092169283917f8be0079c531659141344cd1fd0a4f28419497f9722a3daafe3b4186f6b6457e09190a35050565b612aa380620000b46000396000f3fe6080604052600436106102075760003560e01c80639675566511610118578063d35590c2116100a0578063ec5c1c621161006f578063ec5c1c6214610720578063f2fde38b1461074a578063f3fef3a31461076a578063f5c90ede1461078a578063f608f0e914610792576102f2565b8063d35590c2146106b6578063db2e21bc146106d6578063dbc46b12146106eb578063eb1d440d14610700576102f2565b8063a7a7419f116100e7578063a7a7419f1461060c578063b6e3d9c214610635578063bacb683714610655578063ca61daa41461066b578063ceeca984146106a1576102f2565b806396755665146105885780639b5f8abb146105a8578063a2fb1175146105ca578063a623fb90146105ea576102f2565b80634129b2c91161019b5780636f9fb98a1161016a5780636f9fb98a146104f8578063715018a61461050b5780637b61adc3146105205780638da5cb5b146105365780638dddab9814610568576102f2565b80634129b2c91461046f578063435a91a0146104a057806346cdc2bf146104b65780636dfc9926146104cb576102f2565b80631f2e66a3116101d75780631f2e66a31461040d578063398ab9a71461042d5780633f7b02ae14610443578063406f159714610459576102f2565b8062bc7893146103665780630702da191461039c57806308d73af8146103be5780630c587fc0146103dd576102f2565b366102f257336000908152600c6020526040812054900361026557600d80546001810182556000919091527fd7b6990105719101dabeb77144f2a3385c8033acd3af97e9423a695e81ad1eb50180546001600160a01b031916331790555b336000908152600c60205260408120805434929061028490849061232a565b92505081905550346006600082825461029d919061232a565b9250508190555034600860008282546102b6919061232a565b909155505060405134815233907fa8f912adde7906f69697a18ddcc1e31ceb9d6698bddc74be335021872c7470ed9060200160405180910390a2005b336000908152600c6020526040812054900361026557600d8054600181019091557fd7b6990105719101dabeb77144f2a3385c8033acd3af97e9423a695e81ad1eb50180546001600160a01b031916339081179091556000908152600c60205260408120805434929061028490849061232a565b34801561037257600080fd5b50610386610381366004612358565b6107a5565b604051610393919061237c565b60405180910390f35b3480156103a857600080fd5b506103bc6103b7366004612463565b610811565b005b3480156103ca57600080fd5b50600b545b604051908152602001610393565b3480156103e957600080fd5b506103fd6103f8366004612358565b610966565b60405161039394939291906124f7565b34801561041957600080fd5b506103bc610428366004612574565b610a7c565b34801561043957600080fd5b506103cf60065481565b34801561044f57600080fd5b506103cf60045481565b34801561046557600080fd5b506103cf60035481565b34801561047b57600080fd5b5061048f61048a36600461260e565b611153565b604051610393959493929190612627565b3480156104ac57600080fd5b506103cf60075481565b3480156104c257600080fd5b506103bc6112de565b3480156104d757600080fd5b506103cf6104e6366004612358565b600c6020526000908152604090205481565b34801561050457600080fd5b50476103cf565b34801561051757600080fd5b506103bc611371565b34801561052c57600080fd5b506103cf60095481565b34801561054257600080fd5b506000546001600160a01b03165b6040516001600160a01b039091168152602001610393565b34801561057457600080fd5b506103bc610583366004612665565b611385565b34801561059457600080fd5b506103cf6105a336600461269a565b611800565b3480156105b457600080fd5b506105bd611831565b60405161039391906126c6565b3480156105d657600080fd5b5061048f6105e536600461260e565b611893565b3480156105f657600080fd5b506105ff61196a565b6040516103939190612707565b34801561061857600080fd5b506106216119f8565b60405161039398979695949392919061271a565b34801561064157600080fd5b5061055061065036600461260e565b611acf565b34801561066157600080fd5b506103cf60085481565b34801561067757600080fd5b506103cf610686366004612358565b6001600160a01b03166000908152600c602052604090205490565b3480156106ad57600080fd5b50600e546103cf565b3480156106c257600080fd5b506103fd6106d1366004612358565b611af9565b3480156106e257600080fd5b506103bc611bae565b3480156106f757600080fd5b50600d546103cf565b34801561070c57600080fd5b5061055061071b36600461260e565b611d04565b34801561072c57600080fd5b5060055461073a9060ff1681565b6040519015158152602001610393565b34801561075657600080fd5b506103bc610765366004612358565b611d14565b34801561077657600080fd5b506103bc61078536600461269a565b611d52565b6103bc611f6b565b6103bc6107a0366004612765565b612071565b6001600160a01b0381166000908152600f602090815260409182902080548351818402810184019094528084526060939283018282801561080557602002820191906000526020600020905b8154815260200190600101908083116107f1575b50505050509050919050565b61081961226d565b600083511161086f5760405162461bcd60e51b815260206004820152601860248201527f437570206e616d652063616e6e6f7420626520656d707479000000000000000060448201526064015b60405180910390fd5b8082106108ae5760405162461bcd60e51b815260206004820152600d60248201526c496e76616c696420646174657360981b6044820152606401610866565b60055460ff16156109015760405162461bcd60e51b815260206004820152601760248201527f412063757020697320616c7265616479206163746976650000000000000000006044820152606401610866565b600261090d8482612822565b50600382905560048190556005805460ff191660011790556040517fdf50afb04b7c17db565ee8a64c7ee456cc3e0653012b335224335cee56f8869e90610959908590859085906128e2565b60405180910390a1505050565b6060600080600080600a6000876001600160a01b03166001600160a01b031681526020019081526020016000206040518060800160405290816000820180546109ae906127a2565b80601f01602080910402602001604051908101604052809291908181526020018280546109da906127a2565b8015610a275780601f106109fc57610100808354040283529160200191610a27565b820191906000526020600020905b815481529060010190602001808311610a0a57829003601f168201915b50505091835250506001820154602080830191909152600283015460408084019190915260039093015460ff161515606092830152835190840151928401519390910151909991985091965090945092505050565b610a8461226d565b610a8c61229a565b8483148015610a9a57508281145b610adf5760405162461bcd60e51b8152602060048201526016602482015275082e4e4c2f2e640d8cadccee8d040dad2e6dac2e8c6d60531b6044820152606401610866565b84610b1b5760405162461bcd60e51b815260206004820152600c60248201526b456d7074792061727261797360a01b6044820152606401610866565b6000805b82811015610b5f57838382818110610b3957610b39612907565b9050602002013582610b4b919061232a565b915080610b578161291d565b915050610b1f565b50806006541015610bac5760405162461bcd60e51b8152602060048201526017602482015276125b9cdd59999a58da595b9d081c1c9a5e99481c1bdbdb604a1b6044820152606401610866565b8060066000828254610bbe9190612936565b925050819055508060096000828254610bd7919061232a565b90915550600090505b86811015611140576000888883818110610bfc57610bfc612907565b9050602002016020810190610c119190612358565b6001600160a01b031603610c605760405162461bcd60e51b8152602060048201526016602482015275496e76616c69642077696e6e6572206164647265737360501b6044820152606401610866565b6000868683818110610c7457610c74612907565b9050602002013511610cc85760405162461bcd60e51b815260206004820152601f60248201527f506f736974696f6e206d7573742062652067726561746572207468616e2030006044820152606401610866565b6000848483818110610cdc57610cdc612907565b9050602002013511610d305760405162461bcd60e51b815260206004820152601d60248201527f416d6f756e74206d7573742062652067726561746572207468616e20300000006044820152606401610866565b60006040518060a001604052808a8a85818110610d4f57610d4f612907565b9050602002016020810190610d649190612358565b6001600160a01b03168152602001888885818110610d8457610d84612907565b905060200201358152602001868685818110610da257610da2612907565b90506020020135815260200142815260200160028054610dc1906127a2565b80601f0160208091040260200160405190810160405280929190818152602001828054610ded906127a2565b8015610e3a5780601f10610e0f57610100808354040283529160200191610e3a565b820191906000526020600020905b815481529060010190602001808311610e1d57829003601f168201915b505050919092525050600e805460018101825560009190915281517fbb7b4a454dc3493923482f07822329ed19e8244eff582cc204f8554c3620c3fd600590920291820180546001600160a01b0319166001600160a01b0390921691909117815560208301517fbb7b4a454dc3493923482f07822329ed19e8244eff582cc204f8554c3620c3fe83015560408301517fbb7b4a454dc3493923482f07822329ed19e8244eff582cc204f8554c3620c3ff83015560608301517fbb7b4a454dc3493923482f07822329ed19e8244eff582cc204f8554c3620c4008301556080830151929350839290917fbb7b4a454dc3493923482f07822329ed19e8244eff582cc204f8554c3620c4010190610f4f9082612822565b505050600f60008a8a85818110610f6857610f68612907565b9050602002016020810190610f7d9190612358565b6001600160a01b031681526020810191909152604001600020600e54610fa590600190612936565b81546001810183556000928352602083200155898984818110610fca57610fca612907565b9050602002016020810190610fdf9190612358565b6001600160a01b0316868685818110610ffa57610ffa612907565b9050602002013560405160006040518083038185875af1925050503d8060008114611041576040519150601f19603f3d011682016040523d82523d6000602084013e611046565b606091505b505090508061108f5760405162461bcd60e51b8152602060048201526015602482015274141c9a5e99481d1c985b9cd9995c8819985a5b1959605a1b6044820152606401610866565b8989848181106110a1576110a1612907565b90506020020160208101906110b69190612358565b6001600160a01b03167fc99122297fc787d0d7218688d78f540340b6b0627d5017b3891c100de90ada208989868181106110f2576110f2612907565b9050602002013588888781811061110b5761110b612907565b905060200201356002604051611123939291906129c6565b60405180910390a2505080806111389061291d565b915050610be0565b505061114b60018055565b505050505050565b6000806000806060600e8054905086106111a65760405162461bcd60e51b8152602060048201526014602482015273092dcecc2d8d2c840eed2dcdccae440d2dcc8caf60631b6044820152606401610866565b6000600e87815481106111bb576111bb612907565b90600052602060002090600502016040518060a00160405290816000820160009054906101000a90046001600160a01b03166001600160a01b03166001600160a01b03168152602001600182015481526020016002820154815260200160038201548152602001600482018054611231906127a2565b80601f016020809104026020016040519081016040528092919081815260200182805461125d906127a2565b80156112aa5780601f1061127f576101008083540402835291602001916112aa565b820191906000526020600020905b81548152906001019060200180831161128d57829003601f168201915b5050509190925250508151602083015160408401516060850151608090950151929c919b5099509297509550909350505050565b6112e661226d565b60055460ff166113285760405162461bcd60e51b815260206004820152600d60248201526c04e6f206163746976652063757609c1b6044820152606401610866565b6005805460ff191690556006546040517f91ef3f455c6365f60ee1444a5b63c060eaa9b59049e3f90517d6bf2fa92e04fb9161136791600291906129ee565b60405180910390a1565b61137961226d565b61138360006122c4565b565b61138d61226d565b61139561229a565b6001600160a01b0383166113e45760405162461bcd60e51b8152602060048201526016602482015275496e76616c69642077696e6e6572206164647265737360501b6044820152606401610866565b600082116114345760405162461bcd60e51b815260206004820152601f60248201527f506f736974696f6e206d7573742062652067726561746572207468616e2030006044820152606401610866565b600081116114905760405162461bcd60e51b815260206004820152602360248201527f5072697a6520616d6f756e74206d75737420626520677265617465722074686160448201526206e20360ec1b6064820152608401610866565b8060065410156114dc5760405162461bcd60e51b8152602060048201526017602482015276125b9cdd59999a58da595b9d081c1c9a5e99481c1bdbdb604a1b6044820152606401610866565b80600660008282546114ee9190612936565b925050819055508060096000828254611507919061232a565b9250508190555060006040518060a00160405280856001600160a01b0316815260200184815260200183815260200142815260200160028054611549906127a2565b80601f0160208091040260200160405190810160405280929190818152602001828054611575906127a2565b80156115c25780601f10611597576101008083540402835291602001916115c2565b820191906000526020600020905b8154815290600101906020018083116115a557829003601f168201915b505050919092525050600e805460018101825560009190915281517fbb7b4a454dc3493923482f07822329ed19e8244eff582cc204f8554c3620c3fd600590920291820180546001600160a01b0319166001600160a01b0390921691909117815560208301517fbb7b4a454dc3493923482f07822329ed19e8244eff582cc204f8554c3620c3fe83015560408301517fbb7b4a454dc3493923482f07822329ed19e8244eff582cc204f8554c3620c3ff83015560608301517fbb7b4a454dc3493923482f07822329ed19e8244eff582cc204f8554c3620c4008301556080830151929350839290917fbb7b4a454dc3493923482f07822329ed19e8244eff582cc204f8554c3620c40101906116d79082612822565b5050506001600160a01b0384166000908152600f60205260409020600e5461170190600190612936565b815460018101835560009283526020832001556040516001600160a01b0386169084908381818185875af1925050503d806000811461175c576040519150601f19603f3d011682016040523d82523d6000602084013e611761565b606091505b50509050806117aa5760405162461bcd60e51b8152602060048201526015602482015274141c9a5e99481d1c985b9cd9995c8819985a5b1959605a1b6044820152606401610866565b846001600160a01b03167fc99122297fc787d0d7218688d78f540340b6b0627d5017b3891c100de90ada20858560026040516117e8939291906129c6565b60405180910390a250506117fb60018055565b505050565b600f602052816000526040600020818154811061181c57600080fd5b90600052602060002001600091509150505481565b6060600b80548060200260200160405190810160405280929190818152602001828054801561188957602002820191906000526020600020905b81546001600160a01b0316815260019091019060200180831161186b575b5050505050905090565b600e81815481106118a357600080fd5b6000918252602090912060059091020180546001820154600283015460038401546004850180546001600160a01b039095169650929491939092906118e7906127a2565b80601f0160208091040260200160405190810160405280929190818152602001828054611913906127a2565b80156119605780601f1061193557610100808354040283529160200191611960565b820191906000526020600020905b81548152906001019060200180831161194357829003601f168201915b5050505050905085565b60028054611977906127a2565b80601f01602080910402602001604051908101604052809291908181526020018280546119a3906127a2565b80156119f05780601f106119c5576101008083540402835291602001916119f0565b820191906000526020600020905b8154815290600101906020018083116119d357829003601f168201915b505050505081565b606060008060008060008060006002600354600454600560009054906101000a900460ff16600654600754600854600954878054611a35906127a2565b80601f0160208091040260200160405190810160405280929190818152602001828054611a61906127a2565b8015611aae5780601f10611a8357610100808354040283529160200191611aae565b820191906000526020600020905b815481529060010190602001808311611a9157829003601f168201915b50505050509750975097509750975097509750975097509091929394959697565b600d8181548110611adf57600080fd5b6000918252602090912001546001600160a01b0316905081565b600a60205260009081526040902080548190611b14906127a2565b80601f0160208091040260200160405190810160405280929190818152602001828054611b40906127a2565b8015611b8d5780601f10611b6257610100808354040283529160200191611b8d565b820191906000526020600020905b815481529060010190602001808311611b7057829003601f168201915b50505050600183015460028401546003909401549293909290915060ff1684565b611bb661226d565b611bbe61229a565b4780611c035760405162461bcd60e51b81526020600482015260146024820152734e6f2066756e647320746f20776974686472617760601b6044820152606401610866565b6000600681905580546040516001600160a01b039091169083908381818185875af1925050503d8060008114611c55576040519150601f19603f3d011682016040523d82523d6000602084013e611c5a565b606091505b5050905080611cab5760405162461bcd60e51b815260206004820152601b60248201527f456d657267656e6379207769746864726177616c206661696c656400000000006044820152606401610866565b6000546001600160a01b03166001600160a01b03167f23d6711a1d031134a36921253c75aa59e967d38e369ac625992824315e204f2083604051611cf191815260200190565b60405180910390a2505061138360018055565b600b8181548110611adf57600080fd5b611d1c61226d565b6001600160a01b038116611d4657604051631e4fbdf760e01b815260006004820152602401610866565b611d4f816122c4565b50565b611d5a61226d565b611d6261229a565b6001600160a01b038216611db85760405162461bcd60e51b815260206004820152601b60248201527f496e76616c69642064657374696e6174696f6e206164647265737300000000006044820152606401610866565b60008111611e195760405162461bcd60e51b815260206004820152602860248201527f5769746864726177616c20616d6f756e74206d75737420626520677265617465604482015267072207468616e20360c41b6064820152608401610866565b806006541015611e625760405162461bcd60e51b8152602060048201526014602482015273496e73756666696369656e742062616c616e636560601b6044820152606401610866565b8060066000828254611e749190612936565b90915550506040516000906001600160a01b0384169083908381818185875af1925050503d8060008114611ec4576040519150601f19603f3d011682016040523d82523d6000602084013e611ec9565b606091505b5050905080611f1a5760405162461bcd60e51b815260206004820152601a60248201527f5769746864726177616c207472616e73666572206661696c65640000000000006044820152606401610866565b826001600160a01b03167f7fcf532c15f0a6db0bd6d0e038bea71d30d808c7d98cb3bf7268a95bf5081b6583604051611f5591815260200190565b60405180910390a250611f6760018055565b5050565b60003411611f8b5760405162461bcd60e51b815260040161086690612a10565b336000908152600c60205260408120549003611fe457600d80546001810182556000919091527fd7b6990105719101dabeb77144f2a3385c8033acd3af97e9423a695e81ad1eb50180546001600160a01b031916331790555b336000908152600c60205260408120805434929061200390849061232a565b92505081905550346006600082825461201c919061232a565b925050819055503460086000828254612035919061232a565b909155505060405134815233907fa8f912adde7906f69697a18ddcc1e31ceb9d6698bddc74be335021872c7470ed9060200160405180910390a2565b600034116120915760405162461bcd60e51b815260040161086690612a10565b60008151116120e25760405162461bcd60e51b815260206004820152601c60248201527f53706f6e736f72206e616d652063616e6e6f7420626520656d707479000000006044820152606401610866565b336000908152600a602052604090206003015460ff166121ad57604080516080810182528281526000602080830182905282840182905260016060840152338252600a905291909120815181906121399082612822565b506020820151600180830191909155604083015160028301556060909201516003909101805491151560ff19909216919091179055600b805491820181556000527f0175b7a638427703f0dbe7bb9bbf987a2551717b34e79f33b5b1008d1fa01db90180546001600160a01b031916331790555b336000908152600a6020526040812060010180543492906121cf90849061232a565b9091555050336000908152600a602052604081206002018054600192906121f790849061232a565b925050819055503460066000828254612210919061232a565b925050819055503460076000828254612229919061232a565b909155505060405133907f088dbf2e6fcef863571badc2238d10feee86644641abe1866dd1c5c64236ee85906122629084903490612a5a565b60405180910390a250565b6000546001600160a01b031633146113835760405163118cdaa760e01b8152336004820152602401610866565b6002600154036122bd57604051633ee5aeb560e01b815260040160405180910390fd5b6002600155565b600080546001600160a01b038381166001600160a01b0319831681178455604051919092169283917f8be0079c531659141344cd1fd0a4f28419497f9722a3daafe3b4186f6b6457e09190a35050565b634e487b7160e01b600052601160045260246000fd5b8082018082111561233d5761233d612314565b92915050565b6001600160a01b0381168114611d4f57600080fd5b60006020828403121561236a57600080fd5b813561237581612343565b9392505050565b6020808252825182820181905260009190848201906040850190845b818110156123b457835183529284019291840191600101612398565b50909695505050505050565b634e487b7160e01b600052604160045260246000fd5b600082601f8301126123e757600080fd5b813567ffffffffffffffff80821115612402576124026123c0565b604051601f8301601f19908116603f0116810190828211818310171561242a5761242a6123c0565b8160405283815286602085880101111561244357600080fd5b836020870160208301376000602085830101528094505050505092915050565b60008060006060848603121561247857600080fd5b833567ffffffffffffffff81111561248f57600080fd5b61249b868287016123d6565b9660208601359650604090950135949350505050565b6000815180845260005b818110156124d7576020818501810151868301820152016124bb565b506000602082860101526020601f19601f83011685010191505092915050565b60808152600061250a60808301876124b1565b60208301959095525060408101929092521515606090910152919050565b60008083601f84011261253a57600080fd5b50813567ffffffffffffffff81111561255257600080fd5b6020830191508360208260051b850101111561256d57600080fd5b9250929050565b6000806000806000806060878903121561258d57600080fd5b863567ffffffffffffffff808211156125a557600080fd5b6125b18a838b01612528565b909850965060208901359150808211156125ca57600080fd5b6125d68a838b01612528565b909650945060408901359150808211156125ef57600080fd5b506125fc89828a01612528565b979a9699509497509295939492505050565b60006020828403121561262057600080fd5b5035919050565b60018060a01b038616815284602082015283604082015282606082015260a06080820152600061265a60a08301846124b1565b979650505050505050565b60008060006060848603121561267a57600080fd5b833561268581612343565b95602085013595506040909401359392505050565b600080604083850312156126ad57600080fd5b82356126b881612343565b946020939093013593505050565b6020808252825182820181905260009190848201906040850190845b818110156123b45783516001600160a01b0316835292840192918401916001016126e2565b60208152600061237560208301846124b1565b600061010080835261272e8184018c6124b1565b602084019a909a52505060408101969096529315156060860152608085019290925260a084015260c083015260e090910152919050565b60006020828403121561277757600080fd5b813567ffffffffffffffff81111561278e57600080fd5b61279a848285016123d6565b949350505050565b600181811c908216806127b657607f821691505b6020821081036127d657634e487b7160e01b600052602260045260246000fd5b50919050565b601f8211156117fb57600081815260208120601f850160051c810160208610156128035750805b601f850160051c820191505b8181101561114b5782815560010161280f565b815167ffffffffffffffff81111561283c5761283c6123c0565b6128508161284a84546127a2565b846127dc565b602080601f831160018114612885576000841561286d5750858301515b600019600386901b1c1916600185901b17855561114b565b600085815260208120601f198616915b828110156128b457888601518255948401946001909101908401612895565b50858210156128d25787850151600019600388901b60f8161c191681555b5050505050600190811b01905550565b6060815260006128f560608301866124b1565b60208301949094525060400152919050565b634e487b7160e01b600052603260045260246000fd5b60006001820161292f5761292f612314565b5060010190565b8181038181111561233d5761233d612314565b60008154612956816127a2565b808552602060018381168015612973576001811461298d576129bb565b60ff1985168884015283151560051b8801830195506129bb565b866000528260002060005b858110156129b35781548a8201860152908301908401612998565b890184019650505b505050505092915050565b8381528260208201526060604082015260006129e56060830184612949565b95945050505050565b604081526000612a016040830185612949565b90508260208301529392505050565b6020808252602a908201527f436f6e747269627574696f6e20616d6f756e74206d75737420626520677265616040820152690746572207468616e20360b41b606082015260800190565b604081526000612a0160408301856124b156fea2646970667358221220eae44b2c2d3c4652164a23c32df9314aa3ab52ce9afcd5dc611bfbea3575b6b564736f6c63430008140033",
  "linkReferences": {},
  "deployedLinkReferences": {}
}